{
  "address": "0x61867B6d828C6Ba3a04D114b43C03fa6e94752a3",
  "abi": [
    {
      "inputs": [
        {
          "internalType": "contract ENS",
          "name": "_ens",
          "type": "address"
        },
        {
          "internalType": "bytes32",
          "name": "_baseNode",
          "type": "bytes32"
        }
      ],
      "stateMutability": "nonpayable",
      "type": "constructor"
    },
    {
      "inputs": [],
      "name": "NewOwnerIsZeroAddress",
      "type": "error"
    },
    {
      "inputs": [],
      "name": "NoHandoverRequest",
      "type": "error"
    },
    {
      "inputs": [],
      "name": "NotStarted",
      "type": "error"
    },
    {
      "inputs": [],
      "name": "Unauthorized",
      "type": "error"
    },
    {
      "inputs": [],
      "name": "UnauthorizedController",
      "type": "error"
    },
    {
      "inputs": [],
      "name": "UnauthorizedOwner",
      "type": "error"
    },
    {
      "inputs": [],
      "name": "Unavailable",
      "type": "error"
    },
    {
      "anonymous": false,
      "inputs": [
        {
          "indexed": true,
          "internalType": "address",
          "name": "owner",
          "type": "address"
        },
        {
          "indexed": true,
          "internalType": "address",
          "name": "approved",
          "type": "address"
        },
        {
          "indexed": true,
          "internalType": "uint256",
          "name": "tokenId",
          "type": "uint256"
        }
      ],
      "name": "Approval",
      "type": "event"
    },
    {
      "anonymous": false,
      "inputs": [
        {
          "indexed": true,
          "internalType": "address",
          "name": "owner",
          "type": "address"
        },
        {
          "indexed": true,
          "internalType": "address",
          "name": "operator",
          "type": "address"
        },
        {
          "indexed": false,
          "internalType": "bool",
          "name": "approved",
          "type": "bool"
        }
      ],
      "name": "ApprovalForAll",
      "type": "event"
    },
    {
      "anonymous": false,
      "inputs": [
        {
          "indexed": true,
          "internalType": "address",
          "name": "controller",
          "type": "address"
        }
      ],
      "name": "ControllerAdded",
      "type": "event"
    },
    {
      "anonymous": false,
      "inputs": [
        {
          "indexed": true,
          "internalType": "address",
          "name": "controller",
          "type": "address"
        }
      ],
      "name": "ControllerRemoved",
      "type": "event"
    },
    {
      "anonymous": false,
      "inputs": [
        {
          "indexed": true,
          "internalType": "uint256",
          "name": "id",
          "type": "uint256"
        },
        {
          "indexed": true,
          "internalType": "address",
          "name": "owner",
          "type": "address"
        },
        {
          "indexed": true,
          "internalType": "address",
          "name": "collection",
          "type": "address"
        },
        {
          "indexed": false,
          "internalType": "uint256",
          "name": "nft",
          "type": "uint256"
        }
      ],
      "name": "NameRegistered",
      "type": "event"
    },
    {
      "anonymous": false,
      "inputs": [
        {
          "indexed": true,
          "internalType": "uint256",
          "name": "id",
          "type": "uint256"
        },
        {
          "indexed": false,
          "internalType": "uint256",
          "name": "expires",
          "type": "uint256"
        }
      ],
      "name": "NameRenewed",
      "type": "event"
    },
    {
      "anonymous": false,
      "inputs": [
        {
          "indexed": true,
          "internalType": "address",
          "name": "pendingOwner",
          "type": "address"
        }
      ],
      "name": "OwnershipHandoverCanceled",
      "type": "event"
    },
    {
      "anonymous": false,
      "inputs": [
        {
          "indexed": true,
          "internalType": "address",
          "name": "pendingOwner",
          "type": "address"
        }
      ],
      "name": "OwnershipHandoverRequested",
      "type": "event"
    },
    {
      "anonymous": false,
      "inputs": [
        {
          "indexed": true,
          "internalType": "address",
          "name": "oldOwner",
          "type": "address"
        },
        {
          "indexed": true,
          "internalType": "address",
          "name": "newOwner",
          "type": "address"
        }
      ],
      "name": "OwnershipTransferred",
      "type": "event"
    },
    {
      "anonymous": false,
      "inputs": [
        {
          "indexed": true,
          "internalType": "address",
          "name": "from",
          "type": "address"
        },
        {
          "indexed": true,
          "internalType": "address",
          "name": "to",
          "type": "address"
        },
        {
          "indexed": true,
          "internalType": "uint256",
          "name": "tokenId",
          "type": "uint256"
        }
      ],
      "name": "Transfer",
      "type": "event"
    },
    {
      "inputs": [
        {
          "internalType": "address",
          "name": "controller",
          "type": "address"
        }
      ],
      "name": "addController",
      "outputs": [],
      "stateMutability": "nonpayable",
      "type": "function"
    },
    {
      "inputs": [
        {
          "internalType": "address",
          "name": "to",
          "type": "address"
        },
        {
          "internalType": "uint256",
          "name": "tokenId",
          "type": "uint256"
        }
      ],
      "name": "approve",
      "outputs": [],
      "stateMutability": "nonpayable",
      "type": "function"
    },
    {
      "inputs": [
        {
          "internalType": "uint256",
          "name": "id",
          "type": "uint256"
        }
      ],
      "name": "available",
      "outputs": [
        {
          "internalType": "bool",
          "name": "",
          "type": "bool"
        }
      ],
      "stateMutability": "view",
      "type": "function"
    },
    {
      "inputs": [
        {
          "internalType": "address",
          "name": "owner",
          "type": "address"
        }
      ],
      "name": "balanceOf",
      "outputs": [
        {
          "internalType": "uint256",
          "name": "",
          "type": "uint256"
        }
      ],
      "stateMutability": "view",
      "type": "function"
    },
    {
      "inputs": [],
      "name": "baseNode",
      "outputs": [
        {
          "internalType": "bytes32",
          "name": "",
          "type": "bytes32"
        }
      ],
      "stateMutability": "view",
      "type": "function"
    },
    {
      "inputs": [],
      "name": "cancelOwnershipHandover",
      "outputs": [],
      "stateMutability": "payable",
      "type": "function"
    },
    {
      "inputs": [
        {
          "internalType": "address",
          "name": "pendingOwner",
          "type": "address"
        }
      ],
      "name": "completeOwnershipHandover",
      "outputs": [],
      "stateMutability": "payable",
      "type": "function"
    },
    {
      "inputs": [
        {
          "internalType": "address",
          "name": "",
          "type": "address"
        }
      ],
      "name": "controllers",
      "outputs": [
        {
          "internalType": "bool",
          "name": "",
          "type": "bool"
        }
      ],
      "stateMutability": "view",
      "type": "function"
    },
    {
      "inputs": [],
      "name": "ens",
      "outputs": [
        {
          "internalType": "contract ENS",
          "name": "",
          "type": "address"
        }
      ],
      "stateMutability": "view",
      "type": "function"
    },
    {
      "inputs": [
        {
          "internalType": "uint256",
          "name": "tokenId",
          "type": "uint256"
        }
      ],
      "name": "getApproved",
      "outputs": [
        {
          "internalType": "address",
          "name": "",
          "type": "address"
        }
      ],
      "stateMutability": "view",
      "type": "function"
    },
    {
      "inputs": [
        {
          "internalType": "address",
          "name": "owner",
          "type": "address"
        },
        {
          "internalType": "address",
          "name": "operator",
          "type": "address"
        }
      ],
      "name": "isApprovedForAll",
      "outputs": [
        {
          "internalType": "bool",
          "name": "",
          "type": "bool"
        }
      ],
      "stateMutability": "view",
      "type": "function"
    },
    {
      "inputs": [],
      "name": "name",
      "outputs": [
        {
          "internalType": "string",
          "name": "",
          "type": "string"
        }
      ],
      "stateMutability": "view",
      "type": "function"
    },
    {
      "inputs": [],
      "name": "owner",
      "outputs": [
        {
          "internalType": "address",
          "name": "result",
          "type": "address"
        }
      ],
      "stateMutability": "view",
      "type": "function"
    },
    {
      "inputs": [
        {
          "internalType": "uint256",
          "name": "tokenId",
          "type": "uint256"
        }
      ],
      "name": "ownerOf",
      "outputs": [
        {
          "internalType": "address",
          "name": "",
          "type": "address"
        }
      ],
      "stateMutability": "view",
      "type": "function"
    },
    {
      "inputs": [
        {
          "internalType": "address",
          "name": "pendingOwner",
          "type": "address"
        }
      ],
      "name": "ownershipHandoverExpiresAt",
      "outputs": [
        {
          "internalType": "uint256",
          "name": "result",
          "type": "uint256"
        }
      ],
      "stateMutability": "view",
      "type": "function"
    },
    {
      "inputs": [
        {
          "internalType": "uint256",
          "name": "id",
          "type": "uint256"
        },
        {
          "internalType": "address",
          "name": "owner",
          "type": "address"
        }
      ],
      "name": "reclaim",
      "outputs": [],
      "stateMutability": "nonpayable",
      "type": "function"
    },
    {
      "inputs": [
        {
          "internalType": "uint256",
          "name": "id",
          "type": "uint256"
        },
        {
          "internalType": "address",
          "name": "collection",
          "type": "address"
        },
        {
          "internalType": "uint256",
          "name": "nft",
          "type": "uint256"
        }
      ],
      "name": "register",
      "outputs": [],
      "stateMutability": "nonpayable",
      "type": "function"
    },
    {
      "inputs": [
        {
          "internalType": "uint256",
          "name": "id",
          "type": "uint256"
        },
        {
          "internalType": "address",
          "name": "collection",
          "type": "address"
        },
        {
          "internalType": "uint256",
          "name": "nft",
          "type": "uint256"
        }
      ],
      "name": "registerOnly",
      "outputs": [],
      "stateMutability": "nonpayable",
      "type": "function"
    },
    {
      "inputs": [],
      "name": "registerResolver",
      "outputs": [],
      "stateMutability": "nonpayable",
      "type": "function"
    },
    {
      "inputs": [
        {
          "internalType": "address",
          "name": "controller",
          "type": "address"
        }
      ],
      "name": "removeController",
      "outputs": [],
      "stateMutability": "nonpayable",
      "type": "function"
    },
    {
      "inputs": [],
      "name": "renounceOwnership",
      "outputs": [],
      "stateMutability": "payable",
      "type": "function"
    },
    {
      "inputs": [],
      "name": "requestOwnershipHandover",
      "outputs": [],
      "stateMutability": "payable",
      "type": "function"
    },
    {
      "inputs": [
        {
          "internalType": "uint256",
          "name": "id",
          "type": "uint256"
        }
      ],
      "name": "resetOwner",
      "outputs": [],
      "stateMutability": "nonpayable",
      "type": "function"
    },
    {
      "inputs": [
        {
          "internalType": "address",
          "name": "from",
          "type": "address"
        },
        {
          "internalType": "address",
          "name": "to",
          "type": "address"
        },
        {
          "internalType": "uint256",
          "name": "tokenId",
          "type": "uint256"
        }
      ],
      "name": "safeTransferFrom",
      "outputs": [],
      "stateMutability": "nonpayable",
      "type": "function"
    },
    {
      "inputs": [
        {
          "internalType": "address",
          "name": "from",
          "type": "address"
        },
        {
          "internalType": "address",
          "name": "to",
          "type": "address"
        },
        {
          "internalType": "uint256",
          "name": "tokenId",
          "type": "uint256"
        },
        {
          "internalType": "bytes",
          "name": "data",
          "type": "bytes"
        }
      ],
      "name": "safeTransferFrom",
      "outputs": [],
      "stateMutability": "nonpayable",
      "type": "function"
    },
    {
      "inputs": [
        {
          "internalType": "address",
          "name": "operator",
          "type": "address"
        },
        {
          "internalType": "bool",
          "name": "approved",
          "type": "bool"
        }
      ],
      "name": "setApprovalForAll",
      "outputs": [],
      "stateMutability": "nonpayable",
      "type": "function"
    },
    {
      "inputs": [
        {
          "internalType": "address",
          "name": "resolver",
          "type": "address"
        }
      ],
      "name": "setResolver",
      "outputs": [],
      "stateMutability": "nonpayable",
      "type": "function"
    },
    {
      "inputs": [
        {
          "internalType": "bytes4",
          "name": "interfaceID",
          "type": "bytes4"
        }
      ],
      "name": "supportsInterface",
      "outputs": [
        {
          "internalType": "bool",
          "name": "",
          "type": "bool"
        }
      ],
      "stateMutability": "view",
      "type": "function"
    },
    {
      "inputs": [],
      "name": "symbol",
      "outputs": [
        {
          "internalType": "string",
          "name": "",
          "type": "string"
        }
      ],
      "stateMutability": "view",
      "type": "function"
    },
    {
      "inputs": [
        {
          "internalType": "uint256",
          "name": "tokenId",
          "type": "uint256"
        }
      ],
      "name": "tokenURI",
      "outputs": [
        {
          "internalType": "string",
          "name": "",
          "type": "string"
        }
      ],
      "stateMutability": "view",
      "type": "function"
    },
    {
      "inputs": [
        {
          "internalType": "address",
          "name": "from",
          "type": "address"
        },
        {
          "internalType": "address",
          "name": "to",
          "type": "address"
        },
        {
          "internalType": "uint256",
          "name": "tokenId",
          "type": "uint256"
        }
      ],
      "name": "transferFrom",
      "outputs": [],
      "stateMutability": "nonpayable",
      "type": "function"
    },
    {
      "inputs": [
        {
          "internalType": "address",
          "name": "newOwner",
          "type": "address"
        }
      ],
      "name": "transferOwnership",
      "outputs": [],
      "stateMutability": "payable",
      "type": "function"
    }
  ],
  "transactionHash": "0x22e92b38bc0673096ca31262da793b78fc5aa29e3b735c07dae0c827875b8b82",
  "args": [
    "0x00000000000C2E074eC69A0dFb2997BA6C7d2e1e",
    "0xf029b4b627c4a2cd7f70eb6bb0281fec39238419d6d4df5a010dad7432a8d5c8"
  ],
  "numDeployments": 1,
  "solcInputHash": "aeb391062fb41e8a230bfb201c3db1a3",
  "bytecode": "0x60806040523480156200001157600080fd5b506040516200270438038062002704833981016040819052620000349162000139565b60408051602080820183526000808352835191820190935282815290916200005d83826200028f565b5060016200006c82826200028f565b5050600680546001600160a01b0319166001600160a01b0385161790555060078190556200009a33620000a2565b50506200035f565b6001600160a01b0316638b78c6d8198190558060007f8be0079c531659141344cd1fd0a4f28419497f9722a3daafe3b4186f6b6457e08180a350565b60006001600160a01b0382165b92915050565b6000620000eb82620000de565b6200010981620000f1565b81146200011557600080fd5b50565b8051620000eb81620000fe565b8062000109565b8051620000eb8162000125565b60008060408385031215620001515762000151600080fd5b60006200015f858562000118565b925050602062000172858286016200012c565b9150509250929050565b634e487b7160e01b600052604160045260246000fd5b634e487b7160e01b600052602260045260246000fd5b600281046001821680620001bd57607f821691505b602082108103620001d257620001d262000192565b50919050565b6000620000eb620001e68381565b90565b620001f483620001d8565b81546008840282811b60001990911b908116901990911617825550505050565b600062000223818484620001e9565b505050565b8181101562000247576200023e60008262000214565b60010162000228565b5050565b601f82111562000223576000818152602090206020601f85010481016020851015620002745750805b620002886020601f86010483018262000228565b5050505050565b81516001600160401b03811115620002ab57620002ab6200017c565b620002b78254620001a8565b620002c48282856200024b565b6020601f831160018114620002fb5760008415620002e25750858201515b600019600886021c198116600286021786555062000357565b600085815260208120601f198616915b828110156200032d57888501518255602094850194600190920191016200030b565b868310156200034a5784890151600019601f89166008021c191682555b6001600288020188555050505b505050505050565b612395806200036f6000396000f3fe6080604052600436106101e35760003560e01c80638da5cb5b11610102578063da8c229e11610095578063f2fde38b11610064578063f2fde38b1461053d578063f6a74ed714610550578063fca247ac14610570578063fee81cf41461059057600080fd5b8063da8c229e146104c4578063ddf7fcb0146104f4578063e985e9c51461050a578063f04e283e1461052a57600080fd5b8063a22cb465116100d1578063a22cb46514610444578063a7fc7a0714610464578063b88d4fde14610484578063c87b56dd146104a457600080fd5b80638da5cb5b146103d6578063959725d1146103ef57806395d89b411461040f57806396e494e81461042457600080fd5b806328ed4f6c1161017a57806354d1f13d1161014957806354d1f13d146103795780636352211e1461038157806370a08231146103a1578063715018a6146103ce57600080fd5b806328ed4f6c146102ec5780633f15457f1461030c57806342842e0e146103395780634e543b261461035957600080fd5b80630e297b45116101b65780630e297b451461028f5780630f5c4969146102af57806323b872dd146102c457806325692962146102e457600080fd5b806301ffc9a7146101e857806306fdde031461021e578063081812fc14610240578063095ea7b31461026d575b600080fd5b3480156101f457600080fd5b506102086102033660046119a4565b6105c3565b60405161021591906119cf565b60405180910390f35b34801561022a57600080fd5b50610233610630565b6040516102159190611a33565b34801561024c57600080fd5b5061026061025b366004611a55565b6106c2565b6040516102159190611a90565b34801561027957600080fd5b5061028d610288366004611ab2565b6106e9565b005b34801561029b57600080fd5b5061028d6102aa366004611aef565b610777565b3480156102bb57600080fd5b5061028d610784565b3480156102d057600080fd5b5061028d6102df366004611b3f565b61091f565b61028d610950565b3480156102f857600080fd5b5061028d610307366004611b63565b6109a0565b34801561031857600080fd5b5060065461032c906001600160a01b031681565b6040516102159190611bd8565b34801561034557600080fd5b5061028d610354366004611b3f565b610ad9565b34801561036557600080fd5b5061028d610374366004611be6565b610af4565b61028d610b64565b34801561038d57600080fd5b5061026061039c366004611a55565b610ba0565b3480156103ad57600080fd5b506103c16103bc366004611be6565b610bab565b6040516102159190611c0d565b61028d610bef565b3480156103e257600080fd5b50638b78c6d81954610260565b3480156103fb57600080fd5b5061028d61040a366004611a55565b610c03565b34801561041b57600080fd5b50610233610df8565b34801561043057600080fd5b5061020861043f366004611a55565b610e07565b34801561045057600080fd5b5061028d61045f366004611c2e565b610e19565b34801561047057600080fd5b5061028d61047f366004611be6565b610e28565b34801561049057600080fd5b5061028d61049f366004611d54565b610e7c565b3480156104b057600080fd5b506102336104bf366004611a55565b610eb4565b3480156104d057600080fd5b506102086104df366004611be6565b60086020526000908152604090205460ff1681565b34801561050057600080fd5b506103c160075481565b34801561051657600080fd5b50610208610525366004611dd3565b610f28565b61028d610538366004611be6565b610f56565b61028d61054b366004611be6565b610f96565b34801561055c57600080fd5b5061028d61056b366004611be6565b610fbd565b34801561057c57600080fd5b5061028d61058b366004611aef565b61100e565b34801561059c57600080fd5b506103c16105ab366004611be6565b63389a75e1600c908152600091909152602090205490565b60006001600160e01b031982166301ffc9a760e01b14806105f457506001600160e01b031982166380ac58cd60e01b145b8061060f57506001600160e01b0319821663959725d160e01b145b8061062a57506001600160e01b03198216630a3b53db60e21b145b92915050565b60606000805461063f90611e0b565b80601f016020809104026020016040519081016040528092919081815260200182805461066b90611e0b565b80156106b85780601f1061068d576101008083540402835291602001916106b8565b820191906000526020600020905b81548152906001019060200180831161069b57829003601f168201915b5050505050905090565b60006106cd8261101b565b506000908152600460205260409020546001600160a01b031690565b60006106f482611040565b9050806001600160a01b0316836001600160a01b0316036107305760405162461bcd60e51b815260040161072790611e78565b60405180910390fd5b336001600160a01b038216148061074c575061074c8133610f28565b6107685760405162461bcd60e51b815260040161072790611ee2565b6107728383611078565b505050565b61077283838360006110e6565b6006546007546040516302571be360e01b815230926001600160a01b0316916302571be3916107b69190600401611c0d565b602060405180830381865afa1580156107d3573d6000803e3d6000fd5b505050506040513d601f19601f820116820180604052508101906107f79190611efd565b6001600160a01b03161461081e57604051636f312cbd60e01b815260040160405180910390fd5b610826611301565b7f329539a1d23af1810c48a07fe7fc66a3b34fbc8b37e9b3cdb97bb88ceab7e4bf61085533306101a48461131c565b6006546007546040516306ab592360e01b81526001600160a01b03909216916306ab59239161088a9185903390600401611f1e565b6020604051808303816000875af11580156108a9573d6000803e3d6000fd5b505050506040513d601f19601f820116820180604052508101906108cd9190611f51565b50306001600160a01b0316336001600160a01b0316827f164e3a0aa76a5ec6f8e54bffa6d4ca4591afd88609c4272cfbef422a26bd8f676101a46040516109149190611f87565b60405180910390a450565b6109293382611425565b6109455760405162461bcd60e51b815260040161072790611fdf565b610772838383611484565b60006202a30067ffffffffffffffff164201905063389a75e1600c5233600052806020600c2055337fdbf36a107da19e49527a7176a1babf963b4b0ff8cde35ee35d6cd8f1f9ac7e1d600080a250565b6006546007546040516302571be360e01b815230926001600160a01b0316916302571be3916109d29190600401611c0d565b602060405180830381865afa1580156109ef573d6000803e3d6000fd5b505050506040513d601f19601f82011682018060405250810190610a139190611efd565b6001600160a01b031614610a3a57604051636f312cbd60e01b815260040160405180910390fd5b610a443383611425565b610a615760405163de271cf560e01b815260040160405180910390fd5b6006546007546040516306ab592360e01b81526001600160a01b03909216916306ab592391610a969186908690600401611f1e565b6020604051808303816000875af1158015610ab5573d6000803e3d6000fd5b505050506040513d601f19601f820116820180604052508101906107729190611f51565b61077283838360405180602001604052806000815250610e7c565b610afc611301565b600654600754604051630c4b7b8560e11b81526001600160a01b0390921691631896f70a91610b2f918590600401611fef565b600060405180830381600087803b158015610b4957600080fd5b505af1158015610b5d573d6000803e3d6000fd5b5050505050565b63389a75e1600c523360005260006020600c2055337ffa7b8eab7da67f412cc9575ed43464468f9bfbae89d1675917346ca6d8fe3c92600080a2565b600061062a82611040565b60006001600160a01b038216610bd35760405162461bcd60e51b815260040161072790612050565b506001600160a01b031660009081526003602052604090205490565b610bf7611301565b610c0160006115b0565b565b6006546007546040516302571be360e01b815230926001600160a01b0316916302571be391610c359190600401611c0d565b602060405180830381865afa158015610c52573d6000803e3d6000fd5b505050506040513d601f19601f82011682018060405250810190610c769190611efd565b6001600160a01b031614610c9d57604051636f312cbd60e01b815260040160405180910390fd5b3360009081526008602052604090205460ff16610ccd57604051632b06fb3960e21b815260040160405180910390fd5b610cd6816115ee565b610cf35760405163a3b8915f60e01b815260040160405180910390fd5b6000610d51826040805160608082018352600080835260208084018290529284018190529384526002808352938390208351918201845280546001600160a01b03908116835260018201549383019390935290930154169082015290565b805160208201516040516331a9108f60e11b81529293506000926001600160a01b0390921691636352211e91610d8991600401611c0d565b602060405180830381865afa158015610da6573d6000803e3d6000fd5b505050506040513d601f19601f82011682018060405250810190610dca9190611efd565b905081604001516001600160a01b0316816001600160a01b031614610772576107728260400151828561160f565b60606001805461063f90611e0b565b6000610e12826115ee565b1592915050565b610e24338383611640565b5050565b610e30611301565b6001600160a01b038116600081815260086020526040808220805460ff19166001179055517f0a8bb31534c0ed46f380cb867bd5c803a189ced9a764e30b3a4991a9901d74749190a250565b610e863383611425565b610ea25760405162461bcd60e51b815260040161072790611fdf565b610eae848484846116e2565b50505050565b6060610ebf8261101b565b6000610ed660408051602081019091526000815290565b90506000815111610ef65760405180602001604052806000815250610f21565b80610f0084611715565b604051602001610f11929190612082565b6040516020818303038152906040525b9392505050565b6001600160a01b03918216600090815260056020908152604080832093909416825291909152205460ff1690565b610f5e611301565b63389a75e1600c52806000526020600c208054421115610f8657636f5e88186000526004601cfd5b60009055610f93816115b0565b50565b610f9e611301565b8060601b610fb457637448fbae6000526004601cfd5b610f93816115b0565b610fc5611301565b6001600160a01b038116600081815260086020526040808220805460ff19169055517f33d83959be2573f5453b12eb9d43b3499bc57d96bd2f067ba44803c859e811139190a250565b61077283838360016110e6565b611024816115ee565b610f935760405162461bcd60e51b8152600401610727906120d1565b6000818152600260208190526040822001546001600160a01b03168061062a5760405162461bcd60e51b8152600401610727906120d1565b600081815260046020526040902080546001600160a01b0319166001600160a01b03841690811790915581906110ad82611040565b6001600160a01b03167f8c5be1e5ebec7d5bd14f71427d1e84f3dd0314c0f7b2291e5b200ac8c7c3b92560405160405180910390a45050565b6006546007546040516302571be360e01b815230926001600160a01b0316916302571be3916111189190600401611c0d565b602060405180830381865afa158015611135573d6000803e3d6000fd5b505050506040513d601f19601f820116820180604052508101906111599190611efd565b6001600160a01b03161461118057604051636f312cbd60e01b815260040160405180910390fd5b3360009081526008602052604090205460ff166111b057604051632b06fb3960e21b815260040160405180910390fd5b6040516331a9108f60e11b81526000906001600160a01b03851690636352211e906111df908690600401611c0d565b602060405180830381865afa1580156111fc573d6000803e3d6000fd5b505050506040513d601f19601f820116820180604052508101906112209190611efd565b905061122e8185858861131c565b81156112ae576006546007546040516306ab592360e01b81526001600160a01b03909216916306ab5923916112699189908690600401611f1e565b6020604051808303816000875af1158015611288573d6000803e3d6000fd5b505050506040513d601f19601f820116820180604052508101906112ac9190611f51565b505b836001600160a01b0316816001600160a01b0316867f164e3a0aa76a5ec6f8e54bffa6d4ca4591afd88609c4272cfbef422a26bd8f67866040516112f29190611c0d565b60405180910390a45050505050565b638b78c6d819543314610c01576382b429006000526004601cfd5b6001600160a01b0384166113425760405162461bcd60e51b815260040161072790612113565b61134b816115ee565b156113685760405162461bcd60e51b815260040161072790612157565b604080516060810182526001600160a01b0380861682526bffffffffffffffffffffffff8516602080840191825288831684860181815260008881526002808552888220975188549088166001600160a01b031991821617895595516001808a01919091559251970180549790961696909416959095179093558282526003905283812080549093019092559151839291907fddf252ad1be2c89b69c2b068fc378daa952ba7f163c4a11628f55a4df523b3ef908290a450505050565b60008061143183610ba0565b9050806001600160a01b0316846001600160a01b0316148061146c5750836001600160a01b0316611461846106c2565b6001600160a01b0316145b8061147c575061147c8185610f28565b949350505050565b826001600160a01b031661149782611040565b6001600160a01b0316146114bd5760405162461bcd60e51b8152600401610727906121a9565b6001600160a01b0382166114e35760405162461bcd60e51b8152600401610727906121fa565b826001600160a01b03166114f682611040565b6001600160a01b03161461151c5760405162461bcd60e51b8152600401610727906121a9565b600081815260046020908152604080832080546001600160a01b03199081169091556001600160a01b038781168086526003855283862080546000190190559087168086528386208054600101905586865260029485905283862090940180549092168417909155905184937fddf252ad1be2c89b69c2b068fc378daa952ba7f163c4a11628f55a4df523b3ef91a4505050565b638b78c6d81980546001600160a01b039092169182907f8be0079c531659141344cd1fd0a4f28419497f9722a3daafe3b4186f6b6457e0600080a355565b600090815260026020819052604090912001546001600160a01b0316151590565b826001600160a01b0316826001600160a01b03160361151c5760405162461bcd60e51b81526004016107279061223c565b816001600160a01b0316836001600160a01b0316036116715760405162461bcd60e51b815260040161072790612280565b6001600160a01b0383811660008181526005602090815260408083209487168084529490915290819020805460ff1916851515179055517f17307eab39ab6107e8899845ad3d59bd9653f200f220920489ca2b5937696c31906116d59085906119cf565b60405180910390a3505050565b6116ed848484611484565b6116f9848484846117a9565b610eae5760405162461bcd60e51b8152600401610727906122df565b60606000611722836118aa565b600101905060008167ffffffffffffffff81111561174257611742611c61565b6040519080825280601f01601f19166020018201604052801561176c576020820181803683370190505b5090508181016020015b600019016f181899199a1a9b1b9c1cb0b131b232b360811b600a86061a8153600a8504945084611776575b509392505050565b60006001600160a01b0384163b1561189f57604051630a85bd0160e11b81526001600160a01b0385169063150b7a02906117ed9033908990889088906004016122ef565b6020604051808303816000875af1925050508015611828575060408051601f3d908101601f191682019092526118259181019061233e565b60015b611885573d808015611856576040519150601f19603f3d011682016040523d82523d6000602084013e61185b565b606091505b50805160000361187d5760405162461bcd60e51b8152600401610727906122df565b805181602001fd5b6001600160e01b031916630a85bd0160e11b14905061147c565b506001949350505050565b60008072184f03e93ff9f4daa797ed6e38ed64bf6a1f0160401b83106118e95772184f03e93ff9f4daa797ed6e38ed64bf6a1f0160401b830492506040015b6d04ee2d6d415b85acef81000000008310611915576d04ee2d6d415b85acef8100000000830492506020015b662386f26fc10000831061193357662386f26fc10000830492506010015b6305f5e100831061194b576305f5e100830492506008015b612710831061195f57612710830492506004015b60648310611971576064830492506002015b600a831061062a5760010192915050565b6001600160e01b031981165b8114610f9357600080fd5b803561062a81611982565b6000602082840312156119b9576119b9600080fd5b600061147c8484611999565b8015155b82525050565b6020810161062a82846119c5565b60005b838110156119f85781810151838201526020016119e0565b50506000910152565b6000611a0b825190565b808452602084019350611a228185602086016119dd565b601f01601f19169290920192915050565b60208082528101610f218184611a01565b8061198e565b803561062a81611a44565b600060208284031215611a6a57611a6a600080fd5b600061147c8484611a4a565b60006001600160a01b03821661062a565b6119c981611a76565b6020810161062a8284611a87565b61198e81611a76565b803561062a81611a9e565b60008060408385031215611ac857611ac8600080fd5b6000611ad48585611aa7565b9250506020611ae585828601611a4a565b9150509250929050565b600080600060608486031215611b0757611b07600080fd5b6000611b138686611a4a565b9350506020611b2486828701611aa7565b9250506040611b3586828701611a4a565b9150509250925092565b600080600060608486031215611b5757611b57600080fd5b6000611b138686611aa7565b60008060408385031215611b7957611b79600080fd5b6000611b858585611a4a565b9250506020611ae585828601611aa7565b600061062a6001600160a01b038316611bad565b90565b6001600160a01b031690565b600061062a82611b96565b600061062a82611bb9565b6119c981611bc4565b6020810161062a8284611bcf565b600060208284031215611bfb57611bfb600080fd5b600061147c8484611aa7565b806119c9565b6020810161062a8284611c07565b80151561198e565b803561062a81611c1b565b60008060408385031215611c4457611c44600080fd5b6000611c508585611aa7565b9250506020611ae585828601611c23565b634e487b7160e01b600052604160045260246000fd5b601f19601f830116810181811067ffffffffffffffff82111715611c9d57611c9d611c61565b6040525050565b6000611caf60405190565b9050611cbb8282611c77565b919050565b600067ffffffffffffffff821115611cda57611cda611c61565b601f19601f83011660200192915050565b82818337506000910152565b6000611d0a611d0584611cc0565b611ca4565b905082815260208101848484011115611d2557611d25600080fd5b6117a1848285611ceb565b600082601f830112611d4457611d44600080fd5b813561147c848260208601611cf7565b60008060008060808587031215611d6d57611d6d600080fd5b6000611d798787611aa7565b9450506020611d8a87828801611aa7565b9350506040611d9b87828801611a4a565b925050606085013567ffffffffffffffff811115611dbb57611dbb600080fd5b611dc787828801611d30565b91505092959194509250565b60008060408385031215611de957611de9600080fd5b6000611b858585611aa7565b634e487b7160e01b600052602260045260246000fd5b600281046001821680611e1f57607f821691505b602082108103611e3157611e31611df5565b50919050565b602181526000602082017f4552433732313a20617070726f76616c20746f2063757272656e74206f776e658152603960f91b602082015291505b5060400190565b6020808252810161062a81611e37565b603d81526000602082017f4552433732313a20617070726f76652063616c6c6572206973206e6f7420746f81527f6b656e206f776e6572206f7220617070726f76656420666f7220616c6c00000060208201529150611e71565b6020808252810161062a81611e88565b805161062a81611a9e565b600060208284031215611f1257611f12600080fd5b600061147c8484611ef2565b60608101611f2c8286611c07565b611f396020830185611c07565b61147c6040830184611a87565b805161062a81611a44565b600060208284031215611f6657611f66600080fd5b600061147c8484611f46565b600061062a611baa8381565b6119c981611f72565b6020810161062a8284611f7e565b602d81526000602082017f4552433732313a2063616c6c6572206973206e6f7420746f6b656e206f776e6581526c1c881bdc88185c1c1c9bdd9959609a1b60208201529150611e71565b6020808252810161062a81611f95565b60408101611ffd8285611c07565b610f216020830184611a87565b602981526000602082017f4552433732313a2061646472657373207a65726f206973206e6f7420612076618152683634b21037bbb732b960b91b60208201529150611e71565b6020808252810161062a8161200a565b600061206a825190565b6120788185602086016119dd565b9290920192915050565b600061208e8285612060565b915061147c8284612060565b601881526000602082017f4552433732313a20696e76616c696420746f6b656e2049440000000000000000815291505b5060200190565b6020808252810161062a8161209a565b60208082527f4552433732313a206d696e7420746f20746865207a65726f2061646472657373910190815260006120ca565b6020808252810161062a816120e1565b601c81526000602082017f4552433732313a20746f6b656e20616c7265616479206d696e74656400000000815291506120ca565b6020808252810161062a81612123565b602581526000602082017f4552433732313a207472616e736665722066726f6d20696e636f72726563742081526437bbb732b960d91b60208201529150611e71565b6020808252810161062a81612167565b602481526000602082017f4552433732313a207472616e7366657220746f20746865207a65726f206164648152637265737360e01b60208201529150611e71565b6020808252810161062a816121b9565b60208082527f4552433732313a207472616e7366657220746f2073616d652061646472657373910190815260006120ca565b6020808252810161062a8161220a565b601981526000602082017f4552433732313a20617070726f766520746f2063616c6c657200000000000000815291506120ca565b6020808252810161062a8161224c565b603281526000602082017f4552433732313a207472616e7366657220746f206e6f6e20455243373231526581527131b2b4bb32b91034b6b83632b6b2b73a32b960711b60208201529150611e71565b6020808252810161062a81612290565b608081016122fd8287611a87565b61230a6020830186611a87565b6123176040830185611c07565b81810360608301526123298184611a01565b9695505050505050565b805161062a81611982565b60006020828403121561235357612353600080fd5b600061147c848461233356fea2646970667358221220b5be105575b053062e4791d9b99297209226bf831cfeb503214ff5a77476f0bf64736f6c63430008110033",
  "devdoc": {
    "errors": {
      "NewOwnerIsZeroAddress()": [
        {
          "details": "The `newOwner` cannot be the zero address."
        }
      ],
      "NoHandoverRequest()": [
        {
          "details": "The `pendingOwner` does not have a valid handover request."
        }
      ],
      "Unauthorized()": [
        {
          "details": "The caller is not authorized to call the function."
        }
      ]
    },
    "kind": "dev",
    "methods": {
      "approve(address,uint256)": {
        "details": "See {IERC721-approve}."
      },
      "balanceOf(address)": {
        "details": "See {IERC721-balanceOf}."
      },
      "cancelOwnershipHandover()": {
        "details": "Cancels the two-step ownership handover to the caller, if any."
      },
      "completeOwnershipHandover(address)": {
        "details": "Allows the owner to complete the two-step ownership handover to `pendingOwner`. Reverts if there is no existing ownership handover requested by `pendingOwner`."
      },
      "getApproved(uint256)": {
        "details": "See {IERC721-getApproved}."
      },
      "isApprovedForAll(address,address)": {
        "details": "See {IERC721-isApprovedForAll}."
      },
      "name()": {
        "details": "See {IERC721Metadata-name}."
      },
      "owner()": {
        "details": "Returns the owner of the contract."
      },
      "ownerOf(uint256)": {
        "details": "Gets the owner of the specified token ID. Names become unowned      when their registration expires.",
        "params": {
          "tokenId": "uint256 ID of the token to query the owner of"
        },
        "returns": {
          "_0": "address currently marked as the owner of the given token ID"
        }
      },
      "ownershipHandoverExpiresAt(address)": {
        "details": "Returns the expiry timestamp for the two-step ownership handover to `pendingOwner`."
      },
      "reclaim(uint256,address)": {
        "details": "Reclaim ownership of a name in ENS, if you own it in the registrar."
      },
      "register(uint256,address,uint256)": {
        "details": "Register a name.",
        "params": {
          "collection": "The address of remilia nft contract.",
          "id": "The token ID (keccak256 of the label).",
          "nft": "token id of the nft."
        }
      },
      "registerOnly(uint256,address,uint256)": {
        "details": "Register a name, without modifying the registry.",
        "params": {
          "collection": "The address of remilia nft contract.",
          "id": "The token ID (keccak256 of the label).",
          "nft": "token id of the nft."
        }
      },
      "renounceOwnership()": {
        "details": "Allows the owner to renounce their ownership."
      },
      "requestOwnershipHandover()": {
        "details": "Request a two-step ownership handover to the caller. The request will automatically expire in 48 hours (172800 seconds) by default."
      },
      "resetOwner(uint256)": {
        "details": "Resets ownership of a name to the minter NFT owner."
      },
      "safeTransferFrom(address,address,uint256)": {
        "details": "See {IERC721-safeTransferFrom}."
      },
      "safeTransferFrom(address,address,uint256,bytes)": {
        "details": "See {IERC721-safeTransferFrom}."
      },
      "setApprovalForAll(address,bool)": {
        "details": "See {IERC721-setApprovalForAll}."
      },
      "symbol()": {
        "details": "See {IERC721Metadata-symbol}."
      },
      "tokenURI(uint256)": {
        "details": "See {IERC721Metadata-tokenURI}."
      },
      "transferFrom(address,address,uint256)": {
        "details": "See {IERC721-transferFrom}."
      },
      "transferOwnership(address)": {
        "details": "Allows the owner to transfer the ownership to `newOwner`."
      }
    },
    "version": 1
  },
  "userdoc": {
    "kind": "user",
    "methods": {},
    "version": 1
  },
  "storageLayout": {
    "storage": [
      {
        "astId": 2151,
        "contract": "contracts/ethregistrar/RemiliasRegistrar.sol:RemiliasRegistrar",
        "label": "_name",
        "offset": 0,
        "slot": "0",
        "type": "t_string_storage"
      },
      {
        "astId": 2153,
        "contract": "contracts/ethregistrar/RemiliasRegistrar.sol:RemiliasRegistrar",
        "label": "_symbol",
        "offset": 0,
        "slot": "1",
        "type": "t_string_storage"
      },
      {
        "astId": 2158,
        "contract": "contracts/ethregistrar/RemiliasRegistrar.sol:RemiliasRegistrar",
        "label": "_owners",
        "offset": 0,
        "slot": "2",
        "type": "t_mapping(t_uint256,t_struct(MiladyOwner)2149_storage)"
      },
      {
        "astId": 2162,
        "contract": "contracts/ethregistrar/RemiliasRegistrar.sol:RemiliasRegistrar",
        "label": "_balances",
        "offset": 0,
        "slot": "3",
        "type": "t_mapping(t_address,t_uint256)"
      },
      {
        "astId": 2166,
        "contract": "contracts/ethregistrar/RemiliasRegistrar.sol:RemiliasRegistrar",
        "label": "_tokenApprovals",
        "offset": 0,
        "slot": "4",
        "type": "t_mapping(t_uint256,t_address)"
      },
      {
        "astId": 2172,
        "contract": "contracts/ethregistrar/RemiliasRegistrar.sol:RemiliasRegistrar",
        "label": "_operatorApprovals",
        "offset": 0,
        "slot": "5",
        "type": "t_mapping(t_address,t_mapping(t_address,t_bool))"
      },
      {
        "astId": 3331,
        "contract": "contracts/ethregistrar/RemiliasRegistrar.sol:RemiliasRegistrar",
        "label": "ens",
        "offset": 0,
        "slot": "6",
        "type": "t_contract(ENS)4598"
      },
      {
        "astId": 3333,
        "contract": "contracts/ethregistrar/RemiliasRegistrar.sol:RemiliasRegistrar",
        "label": "baseNode",
        "offset": 0,
        "slot": "7",
        "type": "t_bytes32"
      },
      {
        "astId": 3337,
        "contract": "contracts/ethregistrar/RemiliasRegistrar.sol:RemiliasRegistrar",
        "label": "controllers",
        "offset": 0,
        "slot": "8",
        "type": "t_mapping(t_address,t_bool)"
      }
    ],
    "types": {
      "t_address": {
        "encoding": "inplace",
        "label": "address",
        "numberOfBytes": "20"
      },
      "t_bool": {
        "encoding": "inplace",
        "label": "bool",
        "numberOfBytes": "1"
      },
      "t_bytes32": {
        "encoding": "inplace",
        "label": "bytes32",
        "numberOfBytes": "32"
      },
      "t_contract(ENS)4598": {
        "encoding": "inplace",
        "label": "contract ENS",
        "numberOfBytes": "20"
      },
      "t_mapping(t_address,t_bool)": {
        "encoding": "mapping",
        "key": "t_address",
        "label": "mapping(address => bool)",
        "numberOfBytes": "32",
        "value": "t_bool"
      },
      "t_mapping(t_address,t_mapping(t_address,t_bool))": {
        "encoding": "mapping",
        "key": "t_address",
        "label": "mapping(address => mapping(address => bool))",
        "numberOfBytes": "32",
        "value": "t_mapping(t_address,t_bool)"
      },
      "t_mapping(t_address,t_uint256)": {
        "encoding": "mapping",
        "key": "t_address",
        "label": "mapping(address => uint256)",
        "numberOfBytes": "32",
        "value": "t_uint256"
      },
      "t_mapping(t_uint256,t_address)": {
        "encoding": "mapping",
        "key": "t_uint256",
        "label": "mapping(uint256 => address)",
        "numberOfBytes": "32",
        "value": "t_address"
      },
      "t_mapping(t_uint256,t_struct(MiladyOwner)2149_storage)": {
        "encoding": "mapping",
        "key": "t_uint256",
        "label": "mapping(uint256 => struct ERC721Remilias.MiladyOwner)",
        "numberOfBytes": "32",
        "value": "t_struct(MiladyOwner)2149_storage"
      },
      "t_string_storage": {
        "encoding": "bytes",
        "label": "string",
        "numberOfBytes": "32"
      },
      "t_struct(MiladyOwner)2149_storage": {
        "encoding": "inplace",
        "label": "struct ERC721Remilias.MiladyOwner",
        "members": [
          {
            "astId": 2144,
            "contract": "contracts/ethregistrar/RemiliasRegistrar.sol:RemiliasRegistrar",
            "label": "collection",
            "offset": 0,
            "slot": "0",
            "type": "t_address"
          },
          {
            "astId": 2146,
            "contract": "contracts/ethregistrar/RemiliasRegistrar.sol:RemiliasRegistrar",
            "label": "nft",
            "offset": 0,
            "slot": "1",
            "type": "t_uint256"
          },
          {
            "astId": 2148,
            "contract": "contracts/ethregistrar/RemiliasRegistrar.sol:RemiliasRegistrar",
            "label": "owner",
            "offset": 0,
            "slot": "2",
            "type": "t_address"
          }
        ],
        "numberOfBytes": "96"
      },
      "t_uint256": {
        "encoding": "inplace",
        "label": "uint256",
        "numberOfBytes": "32"
      }
    }
  }
}