{
  "address": "0xb9fa1d93A9666126a79825788De1527a9dBb73e6",
  "abi": [
    {
      "inputs": [
        {
          "internalType": "contract ENS",
          "name": "_ens",
          "type": "address"
        },
        {
          "internalType": "contract IRemiliasNameWrapper",
          "name": "wrapperAddress",
          "type": "address"
        },
        {
          "internalType": "address",
          "name": "_trustedETHController",
          "type": "address"
        },
        {
          "internalType": "address",
          "name": "_trustedReverseRegistrar",
          "type": "address"
        }
      ],
      "stateMutability": "nonpayable",
      "type": "constructor"
    },
    {
      "anonymous": false,
      "inputs": [
        {
          "indexed": true,
          "internalType": "bytes32",
          "name": "node",
          "type": "bytes32"
        },
        {
          "indexed": true,
          "internalType": "uint256",
          "name": "contentType",
          "type": "uint256"
        }
      ],
      "name": "ABIChanged",
      "type": "event"
    },
    {
      "anonymous": false,
      "inputs": [
        {
          "indexed": true,
          "internalType": "bytes32",
          "name": "node",
          "type": "bytes32"
        },
        {
          "indexed": false,
          "internalType": "address",
          "name": "a",
          "type": "address"
        }
      ],
      "name": "AddrChanged",
      "type": "event"
    },
    {
      "anonymous": false,
      "inputs": [
        {
          "indexed": true,
          "internalType": "bytes32",
          "name": "node",
          "type": "bytes32"
        },
        {
          "indexed": false,
          "internalType": "uint256",
          "name": "coinType",
          "type": "uint256"
        },
        {
          "indexed": false,
          "internalType": "bytes",
          "name": "newAddress",
          "type": "bytes"
        }
      ],
      "name": "AddressChanged",
      "type": "event"
    },
    {
      "anonymous": false,
      "inputs": [
        {
          "indexed": true,
          "internalType": "address",
          "name": "owner",
          "type": "address"
        },
        {
          "indexed": true,
          "internalType": "address",
          "name": "operator",
          "type": "address"
        },
        {
          "indexed": false,
          "internalType": "bool",
          "name": "approved",
          "type": "bool"
        }
      ],
      "name": "ApprovalForAll",
      "type": "event"
    },
    {
      "anonymous": false,
      "inputs": [
        {
          "indexed": false,
          "internalType": "address",
          "name": "owner",
          "type": "address"
        },
        {
          "indexed": true,
          "internalType": "bytes32",
          "name": "node",
          "type": "bytes32"
        },
        {
          "indexed": true,
          "internalType": "address",
          "name": "delegate",
          "type": "address"
        },
        {
          "indexed": true,
          "internalType": "bool",
          "name": "approved",
          "type": "bool"
        }
      ],
      "name": "Approved",
      "type": "event"
    },
    {
      "anonymous": false,
      "inputs": [
        {
          "indexed": true,
          "internalType": "bytes32",
          "name": "node",
          "type": "bytes32"
        },
        {
          "indexed": false,
          "internalType": "bytes",
          "name": "hash",
          "type": "bytes"
        }
      ],
      "name": "ContenthashChanged",
      "type": "event"
    },
    {
      "anonymous": false,
      "inputs": [
        {
          "indexed": true,
          "internalType": "bytes32",
          "name": "node",
          "type": "bytes32"
        },
        {
          "indexed": false,
          "internalType": "bytes",
          "name": "name",
          "type": "bytes"
        },
        {
          "indexed": false,
          "internalType": "uint16",
          "name": "resource",
          "type": "uint16"
        },
        {
          "indexed": false,
          "internalType": "bytes",
          "name": "record",
          "type": "bytes"
        }
      ],
      "name": "DNSRecordChanged",
      "type": "event"
    },
    {
      "anonymous": false,
      "inputs": [
        {
          "indexed": true,
          "internalType": "bytes32",
          "name": "node",
          "type": "bytes32"
        },
        {
          "indexed": false,
          "internalType": "bytes",
          "name": "name",
          "type": "bytes"
        },
        {
          "indexed": false,
          "internalType": "uint16",
          "name": "resource",
          "type": "uint16"
        }
      ],
      "name": "DNSRecordDeleted",
      "type": "event"
    },
    {
      "anonymous": false,
      "inputs": [
        {
          "indexed": true,
          "internalType": "bytes32",
          "name": "node",
          "type": "bytes32"
        },
        {
          "indexed": false,
          "internalType": "bytes",
          "name": "lastzonehash",
          "type": "bytes"
        },
        {
          "indexed": false,
          "internalType": "bytes",
          "name": "zonehash",
          "type": "bytes"
        }
      ],
      "name": "DNSZonehashChanged",
      "type": "event"
    },
    {
      "anonymous": false,
      "inputs": [
        {
          "indexed": true,
          "internalType": "bytes32",
          "name": "node",
          "type": "bytes32"
        },
        {
          "indexed": true,
          "internalType": "bytes4",
          "name": "interfaceID",
          "type": "bytes4"
        },
        {
          "indexed": false,
          "internalType": "address",
          "name": "implementer",
          "type": "address"
        }
      ],
      "name": "InterfaceChanged",
      "type": "event"
    },
    {
      "anonymous": false,
      "inputs": [
        {
          "indexed": true,
          "internalType": "bytes32",
          "name": "node",
          "type": "bytes32"
        },
        {
          "indexed": false,
          "internalType": "string",
          "name": "name",
          "type": "string"
        }
      ],
      "name": "NameChanged",
      "type": "event"
    },
    {
      "anonymous": false,
      "inputs": [
        {
          "indexed": true,
          "internalType": "bytes32",
          "name": "node",
          "type": "bytes32"
        },
        {
          "indexed": false,
          "internalType": "bytes32",
          "name": "x",
          "type": "bytes32"
        },
        {
          "indexed": false,
          "internalType": "bytes32",
          "name": "y",
          "type": "bytes32"
        }
      ],
      "name": "PubkeyChanged",
      "type": "event"
    },
    {
      "anonymous": false,
      "inputs": [
        {
          "indexed": true,
          "internalType": "bytes32",
          "name": "node",
          "type": "bytes32"
        },
        {
          "indexed": true,
          "internalType": "string",
          "name": "indexedKey",
          "type": "string"
        },
        {
          "indexed": false,
          "internalType": "string",
          "name": "key",
          "type": "string"
        },
        {
          "indexed": false,
          "internalType": "string",
          "name": "value",
          "type": "string"
        }
      ],
      "name": "TextChanged",
      "type": "event"
    },
    {
      "anonymous": false,
      "inputs": [
        {
          "indexed": true,
          "internalType": "bytes32",
          "name": "node",
          "type": "bytes32"
        },
        {
          "indexed": false,
          "internalType": "uint64",
          "name": "newVersion",
          "type": "uint64"
        }
      ],
      "name": "VersionChanged",
      "type": "event"
    },
    {
      "inputs": [
        {
          "internalType": "bytes32",
          "name": "node",
          "type": "bytes32"
        },
        {
          "internalType": "uint256",
          "name": "contentTypes",
          "type": "uint256"
        }
      ],
      "name": "ABI",
      "outputs": [
        {
          "internalType": "uint256",
          "name": "",
          "type": "uint256"
        },
        {
          "internalType": "bytes",
          "name": "",
          "type": "bytes"
        }
      ],
      "stateMutability": "view",
      "type": "function"
    },
    {
      "inputs": [
        {
          "internalType": "bytes32",
          "name": "node",
          "type": "bytes32"
        }
      ],
      "name": "addr",
      "outputs": [
        {
          "internalType": "address payable",
          "name": "",
          "type": "address"
        }
      ],
      "stateMutability": "view",
      "type": "function"
    },
    {
      "inputs": [
        {
          "internalType": "bytes32",
          "name": "node",
          "type": "bytes32"
        },
        {
          "internalType": "uint256",
          "name": "coinType",
          "type": "uint256"
        }
      ],
      "name": "addr",
      "outputs": [
        {
          "internalType": "bytes",
          "name": "",
          "type": "bytes"
        }
      ],
      "stateMutability": "view",
      "type": "function"
    },
    {
      "inputs": [
        {
          "internalType": "bytes32",
          "name": "node",
          "type": "bytes32"
        },
        {
          "internalType": "address",
          "name": "delegate",
          "type": "address"
        },
        {
          "internalType": "bool",
          "name": "approved",
          "type": "bool"
        }
      ],
      "name": "approve",
      "outputs": [],
      "stateMutability": "nonpayable",
      "type": "function"
    },
    {
      "inputs": [
        {
          "internalType": "bytes32",
          "name": "node",
          "type": "bytes32"
        }
      ],
      "name": "clearRecords",
      "outputs": [],
      "stateMutability": "nonpayable",
      "type": "function"
    },
    {
      "inputs": [
        {
          "internalType": "bytes32",
          "name": "node",
          "type": "bytes32"
        }
      ],
      "name": "contenthash",
      "outputs": [
        {
          "internalType": "bytes",
          "name": "",
          "type": "bytes"
        }
      ],
      "stateMutability": "view",
      "type": "function"
    },
    {
      "inputs": [
        {
          "internalType": "bytes32",
          "name": "node",
          "type": "bytes32"
        },
        {
          "internalType": "bytes32",
          "name": "name",
          "type": "bytes32"
        },
        {
          "internalType": "uint16",
          "name": "resource",
          "type": "uint16"
        }
      ],
      "name": "dnsRecord",
      "outputs": [
        {
          "internalType": "bytes",
          "name": "",
          "type": "bytes"
        }
      ],
      "stateMutability": "view",
      "type": "function"
    },
    {
      "inputs": [
        {
          "internalType": "bytes32",
          "name": "node",
          "type": "bytes32"
        },
        {
          "internalType": "bytes32",
          "name": "name",
          "type": "bytes32"
        }
      ],
      "name": "hasDNSRecords",
      "outputs": [
        {
          "internalType": "bool",
          "name": "",
          "type": "bool"
        }
      ],
      "stateMutability": "view",
      "type": "function"
    },
    {
      "inputs": [
        {
          "internalType": "bytes32",
          "name": "node",
          "type": "bytes32"
        },
        {
          "internalType": "bytes4",
          "name": "interfaceID",
          "type": "bytes4"
        }
      ],
      "name": "interfaceImplementer",
      "outputs": [
        {
          "internalType": "address",
          "name": "",
          "type": "address"
        }
      ],
      "stateMutability": "view",
      "type": "function"
    },
    {
      "inputs": [
        {
          "internalType": "address",
          "name": "owner",
          "type": "address"
        },
        {
          "internalType": "bytes32",
          "name": "node",
          "type": "bytes32"
        },
        {
          "internalType": "address",
          "name": "delegate",
          "type": "address"
        }
      ],
      "name": "isApprovedFor",
      "outputs": [
        {
          "internalType": "bool",
          "name": "",
          "type": "bool"
        }
      ],
      "stateMutability": "view",
      "type": "function"
    },
    {
      "inputs": [
        {
          "internalType": "address",
          "name": "account",
          "type": "address"
        },
        {
          "internalType": "address",
          "name": "operator",
          "type": "address"
        }
      ],
      "name": "isApprovedForAll",
      "outputs": [
        {
          "internalType": "bool",
          "name": "",
          "type": "bool"
        }
      ],
      "stateMutability": "view",
      "type": "function"
    },
    {
      "inputs": [
        {
          "internalType": "bytes[]",
          "name": "data",
          "type": "bytes[]"
        }
      ],
      "name": "multicall",
      "outputs": [
        {
          "internalType": "bytes[]",
          "name": "results",
          "type": "bytes[]"
        }
      ],
      "stateMutability": "nonpayable",
      "type": "function"
    },
    {
      "inputs": [
        {
          "internalType": "bytes32",
          "name": "nodehash",
          "type": "bytes32"
        },
        {
          "internalType": "bytes[]",
          "name": "data",
          "type": "bytes[]"
        }
      ],
      "name": "multicallWithNodeCheck",
      "outputs": [
        {
          "internalType": "bytes[]",
          "name": "results",
          "type": "bytes[]"
        }
      ],
      "stateMutability": "nonpayable",
      "type": "function"
    },
    {
      "inputs": [
        {
          "internalType": "bytes32",
          "name": "node",
          "type": "bytes32"
        }
      ],
      "name": "name",
      "outputs": [
        {
          "internalType": "string",
          "name": "",
          "type": "string"
        }
      ],
      "stateMutability": "view",
      "type": "function"
    },
    {
      "inputs": [
        {
          "internalType": "bytes32",
          "name": "node",
          "type": "bytes32"
        }
      ],
      "name": "pubkey",
      "outputs": [
        {
          "internalType": "bytes32",
          "name": "x",
          "type": "bytes32"
        },
        {
          "internalType": "bytes32",
          "name": "y",
          "type": "bytes32"
        }
      ],
      "stateMutability": "view",
      "type": "function"
    },
    {
      "inputs": [
        {
          "internalType": "bytes32",
          "name": "",
          "type": "bytes32"
        }
      ],
      "name": "recordVersions",
      "outputs": [
        {
          "internalType": "uint64",
          "name": "",
          "type": "uint64"
        }
      ],
      "stateMutability": "view",
      "type": "function"
    },
    {
      "inputs": [
        {
          "internalType": "bytes32",
          "name": "node",
          "type": "bytes32"
        },
        {
          "internalType": "uint256",
          "name": "contentType",
          "type": "uint256"
        },
        {
          "internalType": "bytes",
          "name": "data",
          "type": "bytes"
        }
      ],
      "name": "setABI",
      "outputs": [],
      "stateMutability": "nonpayable",
      "type": "function"
    },
    {
      "inputs": [
        {
          "internalType": "bytes32",
          "name": "node",
          "type": "bytes32"
        },
        {
          "internalType": "uint256",
          "name": "coinType",
          "type": "uint256"
        },
        {
          "internalType": "bytes",
          "name": "a",
          "type": "bytes"
        }
      ],
      "name": "setAddr",
      "outputs": [],
      "stateMutability": "nonpayable",
      "type": "function"
    },
    {
      "inputs": [
        {
          "internalType": "bytes32",
          "name": "node",
          "type": "bytes32"
        },
        {
          "internalType": "address",
          "name": "a",
          "type": "address"
        }
      ],
      "name": "setAddr",
      "outputs": [],
      "stateMutability": "nonpayable",
      "type": "function"
    },
    {
      "inputs": [
        {
          "internalType": "address",
          "name": "operator",
          "type": "address"
        },
        {
          "internalType": "bool",
          "name": "approved",
          "type": "bool"
        }
      ],
      "name": "setApprovalForAll",
      "outputs": [],
      "stateMutability": "nonpayable",
      "type": "function"
    },
    {
      "inputs": [
        {
          "internalType": "bytes32",
          "name": "node",
          "type": "bytes32"
        },
        {
          "internalType": "bytes",
          "name": "hash",
          "type": "bytes"
        }
      ],
      "name": "setContenthash",
      "outputs": [],
      "stateMutability": "nonpayable",
      "type": "function"
    },
    {
      "inputs": [
        {
          "internalType": "bytes32",
          "name": "node",
          "type": "bytes32"
        },
        {
          "internalType": "bytes",
          "name": "data",
          "type": "bytes"
        }
      ],
      "name": "setDNSRecords",
      "outputs": [],
      "stateMutability": "nonpayable",
      "type": "function"
    },
    {
      "inputs": [
        {
          "internalType": "bytes32",
          "name": "node",
          "type": "bytes32"
        },
        {
          "internalType": "bytes4",
          "name": "interfaceID",
          "type": "bytes4"
        },
        {
          "internalType": "address",
          "name": "implementer",
          "type": "address"
        }
      ],
      "name": "setInterface",
      "outputs": [],
      "stateMutability": "nonpayable",
      "type": "function"
    },
    {
      "inputs": [
        {
          "internalType": "bytes32",
          "name": "node",
          "type": "bytes32"
        },
        {
          "internalType": "string",
          "name": "newName",
          "type": "string"
        }
      ],
      "name": "setName",
      "outputs": [],
      "stateMutability": "nonpayable",
      "type": "function"
    },
    {
      "inputs": [
        {
          "internalType": "bytes32",
          "name": "node",
          "type": "bytes32"
        },
        {
          "internalType": "bytes32",
          "name": "x",
          "type": "bytes32"
        },
        {
          "internalType": "bytes32",
          "name": "y",
          "type": "bytes32"
        }
      ],
      "name": "setPubkey",
      "outputs": [],
      "stateMutability": "nonpayable",
      "type": "function"
    },
    {
      "inputs": [
        {
          "internalType": "bytes32",
          "name": "node",
          "type": "bytes32"
        },
        {
          "internalType": "string",
          "name": "key",
          "type": "string"
        },
        {
          "internalType": "string",
          "name": "value",
          "type": "string"
        }
      ],
      "name": "setText",
      "outputs": [],
      "stateMutability": "nonpayable",
      "type": "function"
    },
    {
      "inputs": [
        {
          "internalType": "bytes32",
          "name": "node",
          "type": "bytes32"
        },
        {
          "internalType": "bytes",
          "name": "hash",
          "type": "bytes"
        }
      ],
      "name": "setZonehash",
      "outputs": [],
      "stateMutability": "nonpayable",
      "type": "function"
    },
    {
      "inputs": [
        {
          "internalType": "bytes4",
          "name": "interfaceID",
          "type": "bytes4"
        }
      ],
      "name": "supportsInterface",
      "outputs": [
        {
          "internalType": "bool",
          "name": "",
          "type": "bool"
        }
      ],
      "stateMutability": "view",
      "type": "function"
    },
    {
      "inputs": [
        {
          "internalType": "bytes32",
          "name": "node",
          "type": "bytes32"
        },
        {
          "internalType": "string",
          "name": "key",
          "type": "string"
        }
      ],
      "name": "text",
      "outputs": [
        {
          "internalType": "string",
          "name": "",
          "type": "string"
        }
      ],
      "stateMutability": "view",
      "type": "function"
    },
    {
      "inputs": [
        {
          "internalType": "bytes32",
          "name": "node",
          "type": "bytes32"
        }
      ],
      "name": "zonehash",
      "outputs": [
        {
          "internalType": "bytes",
          "name": "",
          "type": "bytes"
        }
      ],
      "stateMutability": "view",
      "type": "function"
    }
  ],
  "transactionHash": "0x8e14bb2aae68b0de7c9ad69f355bd834540911d055f9b469e77a4c0047bc5144",
  "args": [
    "0x00000000000C2E074eC69A0dFb2997BA6C7d2e1e",
    "0xCC757CDfC2305113f04Ce1fe08951C2889526B37",
    "0x44B7922c2eD5f0d1e5210C8e90c6d2E03E66e046",
    "0xa58E81fe9b61B5c3fE2AFD33CF304c454AbFc7Cb"
  ],
  "numDeployments": 1,
  "solcInputHash": "198e032c3bc7f97f8ded800bd4fcf484",
  "bytecode": "0x6101006040523480156200001257600080fd5b5060405162003478380380620034788339810160408190526200003591620001cb565b6040516302571be360e01b8152849033906000906001600160a01b038416906302571be3906200008a907f91d1777781884d03a6757a803996e38de2a42967fb37eeaca72729271025a9e29060040162000241565b602060405180830381865afa158015620000a8573d6000803e3d6000fd5b505050506040513d601f19601f82011682018060405250810190620000ce919062000251565b604051630f41a04d60e11b81529091506001600160a01b03821690631e83409a90620000ff90859060040162000289565b6020604051808303816000875af11580156200011f573d6000803e3d6000fd5b505050506040513d601f19601f82011682018060405250810190620001459190620002ad565b5050506001600160a01b039485166080525091831660a052821660c0521660e052620002d2565b60006001600160a01b0382165b92915050565b600062000179826200016c565b62000197816200017f565b8114620001a357600080fd5b50565b805162000179816200018c565b62000197816200016c565b80516200017981620001b3565b60008060008060808587031215620001e657620001e6600080fd5b6000620001f48787620001a6565b94505060206200020787828801620001a6565b93505060406200021a87828801620001be565b92505060606200022d87828801620001be565b91505092959194509250565b805b82525050565b6020810162000179828462000239565b600060208284031215620002685762000268600080fd5b6000620002768484620001be565b949350505050565b6200023b816200016c565b602081016200017982846200027e565b8062000197565b8051620001798162000299565b600060208284031215620002c457620002c4600080fd5b6000620002768484620002a0565b60805160a05160c05160e05161316562000313600039600061169e0152600061166c01526000818161176101526117af015260006116e701526131656000f3fe608060405234801561001057600080fd5b50600436106101da5760003560e01c80638b95dd7111610104578063c8690233116100a2578063e32954eb11610071578063e32954eb146104e4578063e59d895d146104f7578063e985e9c51461050a578063f1cb7e061461054657600080fd5b8063c869023314610437578063ce3decdc14610488578063d5fa2b001461049b578063d700ff33146104ae57600080fd5b8063a8fa5682116100de578063a8fa5682146103ad578063a9784b3e146103c0578063ac9650d814610404578063bc1c58d11461042457600080fd5b80638b95dd7114610374578063a22cb46514610387578063a4b91a011461039a57600080fd5b80633603d7581161017c5780635c98042b1161014b5780635c98042b14610328578063623195b01461033b578063691f34311461034e578063773722131461036157600080fd5b80633603d758146102975780633b3b57de146102aa5780634cbf6ba4146102bd57806359d1d43c1461030857600080fd5b8063124a319c116101b8578063124a319c146102305780632203ab561461025057806329cd62ea14610271578063304e6ade1461028457600080fd5b806301ffc9a7146101df5780630af179d71461020857806310f13a8c1461021d575b600080fd5b6101f26101ed366004612248565b610559565b6040516101ff9190612273565b60405180910390f35b61021b6102163660046122dc565b61056a565b005b61021b61022b366004612337565b610773565b61024361023e3660046123c5565b61083f565b6040516101ff919061241c565b61026361025e36600461242a565b610a8c565b6040516101ff9291906124bb565b61021b61027f3660046124db565b610bc2565b61021b6102923660046122dc565b610c5c565b61021b6102a536600461252b565b610cd7565b6102436102b836600461252b565b610d7c565b6101f26102cb36600461242a565b600082815260208181526040808320546001600160401b031683526006825280832094835293815283822092825291909152205461ffff16151590565b61031b6103163660046122dc565b610dae565b6040516101ff919061254c565b61031b61033636600461252b565b610e8d565b61021b61034936600461255d565b610f4b565b61031b61035c36600461252b565b610fe7565b61021b61036f3660046122dc565b611020565b61021b6103823660046126bb565b61109b565b61021b610395366004612742565b611174565b61021b6103a8366004612775565b611214565b61031b6103bb3660046127d0565b6112b9565b6101f26103ce366004612816565b6001600160a01b039283166000908152600c60209081526040808320948352938152838220929094168152925290205460ff1690565b6104176104123660046128a6565b611306565b6040516101ff919061295f565b61031b61043236600461252b565b611314565b61047a61044536600461252b565b600081815260208181526040808320546001600160401b03168352600982528083209383529290522080546001909101549091565b6040516101ff929190612970565b61021b6104963660046122dc565b61134d565b61021b6104a936600461298b565b61148e565b6104d76104bc36600461252b565b6000602081905290815260409020546001600160401b031681565b6040516101ff91906129cd565b6104176104f23660046129db565b6114b5565b61021b610505366004612a2a565b6114ca565b6101f2610518366004612a5f565b6001600160a01b039182166000908152600b6020908152604080832093909416825291909152205460ff1690565b61031b61055436600461242a565b611573565b60006105648261163a565b92915050565b826105748161165f565b61057d57600080fd5b600084815260208181526040808320548151601f87018490048402810184019092528582528392606092839285926001600160401b039091169183916105e29183918d908d9081908401838280828437600092019190915250929392505061189c9050565b90505b8051516020820151101561070c578661ffff1660000361064a578060400151965061060f816118fd565b9450846040516020016106229190612aa3565b6040516020818303038152906040528051906020012092506106438161191e565b93506106fe565b6000610655826118fd565b9050816040015161ffff168861ffff161415806106795750610677868261193a565b155b156106fc576106d58c878a8e8e8080601f016020809104026020016040519081016040528093929190818152602001838380828437600092019190915250505060208801518d91506106cc908290612ac5565b8b51158a611958565b8160400151975081602001519650809550858051906020012093506106f98261191e565b94505b505b61070781611bbf565b6105e5565b50835115610767576107678a85888c8c8080601f0160208091040260200160405190810160405280939291908181526020018383808284376000920191909152508c925061075e91508290508f612ac5565b89511588611958565b50505050505050505050565b8461077d8161165f565b61078657600080fd5b600086815260208181526040808320546001600160401b03168352600a8252808320898452909152908190209051849184916107c59089908990612aeb565b908152602001604051809103902091826107e0929190612bd7565b5084846040516107f1929190612aeb565b6040518091039020867f448bc014f1536726cf8d54ff3d6481ed3cbc683c2591ca204274009afa09b1a18787878760405161082f9493929190612cbd565b60405180910390a3505050505050565b600082815260208181526040808320546001600160401b031683526007825280832085845282528083206001600160e01b0319851684529091528120546001600160a01b03168015610892579050610564565b600061089d85610d7c565b90506001600160a01b0381166108b857600092505050610564565b600080826001600160a01b03166301ffc9a760e01b6040516024016108dd9190612cfe565b60408051601f198184030181529181526020820180516001600160e01b03166301ffc9a760e01b179052516109129190612aa3565b600060405180830381855afa9150503d806000811461094d576040519150601f19603f3d011682016040523d82523d6000602084013e610952565b606091505b5091509150811580610965575060208151105b8061098f575080601f8151811061097e5761097e612d0c565b01602001516001600160f81b031916155b156109a1576000945050505050610564565b826001600160a01b0316866040516024016109bc9190612cfe565b60408051601f198184030181529181526020820180516001600160e01b03166301ffc9a760e01b179052516109f19190612aa3565b600060405180830381855afa9150503d8060008114610a2c576040519150601f19603f3d011682016040523d82523d6000602084013e610a31565b606091505b509092509050811580610a45575060208151105b80610a6f575080601f81518110610a5e57610a5e612d0c565b01602001516001600160f81b031916155b15610a81576000945050505050610564565b509095945050505050565b600082815260208181526040808320546001600160401b03168352600180835281842086855290925282206060915b848111610ba25780851615801590610aeb575060008181526020839052604081208054610ae790612b0e565b9050115b15610b9a5780826000838152602001908152602001600020808054610b0f90612b0e565b80601f0160208091040260200160405190810160405280929190818152602001828054610b3b90612b0e565b8015610b885780601f10610b5d57610100808354040283529160200191610b88565b820191906000526020600020905b815481529060010190602001808311610b6b57829003601f168201915b50505050509050935093505050610bbb565b60011b610abb565b5060006040518060200160405280600081525092509250505b9250929050565b82610bcc8161165f565b610bd557600080fd5b60408051808201825284815260208082018581526000888152808352848120546001600160401b03168152600983528481208982529092529083902091518255516001909101555184907f1d6f5e03d3f63eb58751986629a5439baee5079ff04f345becb66e23eb154e4690610c4e9086908690612970565b60405180910390a250505050565b82610c668161165f565b610c6f57600080fd5b600084815260208181526040808320546001600160401b03168352600382528083208784529091529020610ca4838583612bd7565b50837fe379c1624ed7e714cc0937528a32359d69d5281337765313dba4e081b72d75788484604051610c4e929190612d22565b80610ce18161165f565b610cea57600080fd5b600082815260208190526040812080546001600160401b031691610d0d83612d34565b82546101009290920a6001600160401b03818102199093169183160217909155600084815260208190526040908190205490518593507fc6621ccb8f3f5a04bb6502154b2caf6adf5983fe76dfef1cfc9c42e3579db44492610d709216906129cd565b60405180910390a25050565b600080610d8a83603c611573565b90508051600003610d9e5750600092915050565b610da781611ca7565b9392505050565b600083815260208181526040808320546001600160401b03168352600a825280832086845290915290819020905160609190610ded9085908590612aeb565b90815260200160405180910390208054610e0690612b0e565b80601f0160208091040260200160405190810160405280929190818152602001828054610e3290612b0e565b8015610e7f5780601f10610e5457610100808354040283529160200191610e7f565b820191906000526020600020905b815481529060010190602001808311610e6257829003601f168201915b505050505090509392505050565b600081815260208181526040808320546001600160401b03168352600482528083208484529091529020805460609190610ec690612b0e565b80601f0160208091040260200160405190810160405280929190818152602001828054610ef290612b0e565b8015610f3f5780601f10610f1457610100808354040283529160200191610f3f565b820191906000526020600020905b815481529060010190602001808311610f2257829003601f168201915b50505050509050919050565b83610f558161165f565b610f5e57600080fd5b83610f6a600182612ac5565b1615610f7557600080fd5b600085815260208181526040808320546001600160401b031683526001825280832088845282528083208784529091529020610fb2838583612bd7565b50604051849086907faa121bbeef5f32f5961a2a28966e769023910fc9479059ee3495d4c1a696efe390600090a35050505050565b600081815260208181526040808320546001600160401b03168352600882528083208484529091529020805460609190610ec690612b0e565b8261102a8161165f565b61103357600080fd5b600084815260208181526040808320546001600160401b03168352600882528083208784529091529020611068838583612bd7565b50837fb7d29e911041e8d9b843369e890bcb72c9388692ba48b65ac54e7214c4c348f78484604051610c4e929190612d22565b826110a58161165f565b6110ae57600080fd5b837f65412581168e88a1e60c6459d7f44ae83ad0832e670826c05a4e2476b57af75284846040516110e09291906124bb565b60405180910390a2603c830361113157837f52d7d861f09ab3d26239d492e8968629f95e9e318cf0b73bfddc441522a15fd261111b84611ca7565b6040516111289190612d7d565b60405180910390a25b600084815260208181526040808320546001600160401b03168352600282528083208784528252808320868452909152902061116d8382612d8b565b5050505050565b6001600160a01b03821633036111a55760405162461bcd60e51b815260040161119c90612e97565b60405180910390fd5b336000818152600b602090815260408083206001600160a01b038716808552925291829020805460ff191685151517905590519091907f17307eab39ab6107e8899845ad3d59bd9653f200f220920489ca2b5937696c3190611208908590612273565b60405180910390a35050565b6001600160a01b038216330361123c5760405162461bcd60e51b815260040161119c90612ea7565b336000818152600c6020908152604080832087845282528083206001600160a01b038716808552925291829020805460ff191685151590811790915591519192909186917ff0ddb3b04746704017f9aa8bd728fcc2c1d11675041205350018915f5e4750a0916112ac919061241c565b60405180910390a4505050565b600083815260208181526040808320546001600160401b03168352600582528083208684528252808320858452825280832061ffff851684529091529020805460609190610e0690612b0e565b6060610da760008484611cc6565b600081815260208181526040808320546001600160401b03168352600382528083208484529091529020805460609190610ec690612b0e565b826113578161165f565b61136057600080fd5b600084815260208181526040808320546001600160401b0316808452600483528184208885529092528220805491929161139990612b0e565b80601f01602080910402602001604051908101604052809291908181526020018280546113c590612b0e565b80156114125780601f106113e757610100808354040283529160200191611412565b820191906000526020600020905b8154815290600101906020018083116113f557829003601f168201915b505050506001600160401b03841660009081526004602090815260408083208b845290915290209192506114499050858783612bd7565b50857f8f15ed4b723ef428f250961da8315675b507046737e19319fc1a4d81bfe87f8582878760405161147e93929190612ee1565b60405180910390a2505050505050565b816114988161165f565b6114a157600080fd5b6114b083603c61038285611e48565b505050565b60606114c2848484611cc6565b949350505050565b826114d48161165f565b6114dd57600080fd5b600084815260208181526040808320546001600160401b031683526007825280832087845282528083206001600160e01b0319871680855292529182902080546001600160a01b0319166001600160a01b038616179055905185907f7c69f06bea0bdef565b709e93a147836b0063ba2dd89f02d0b7e8d931e6a6daa9061156590869061241c565b60405180910390a350505050565b600082815260208181526040808320546001600160401b0316835260028252808320858452825280832084845290915290208054606091906115b490612b0e565b80601f01602080910402602001604051908101604052809291908181526020018280546115e090612b0e565b801561162d5780601f106116025761010080835404028352916020019161162d565b820191906000526020600020905b81548152906001019060200180831161161057829003601f168201915b5050505050905092915050565b60006001600160e01b03198216631674750f60e21b1480610564575061056482611e78565b6000336001600160a01b037f00000000000000000000000000000000000000000000000000000000000000001614806116c05750336001600160a01b037f000000000000000000000000000000000000000000000000000000000000000016145b156116cd57506001919050565b6040516302571be360e01b81526000906001600160a01b037f000000000000000000000000000000000000000000000000000000000000000016906302571be39061171c908690600401612f10565b602060405180830381865afa158015611739573d6000803e3d6000fd5b505050506040513d601f19601f8201168201806040525081019061175d9190612f29565b90507f00000000000000000000000000000000000000000000000000000000000000006001600160a01b0316816001600160a01b031603611828576040516331a9108f60e11b81526001600160a01b037f00000000000000000000000000000000000000000000000000000000000000001690636352211e906117e4908690600401612f10565b602060405180830381865afa158015611801573d6000803e3d6000fd5b505050506040513d601f19601f820116820180604052508101906118259190612f29565b90505b6001600160a01b03811633148061186257506001600160a01b0381166000908152600b6020908152604080832033845290915290205460ff165b80610da757506001600160a01b0381166000908152600c60209081526040808320868452825280832033845290915290205460ff16610da7565b6118ea6040518060e001604052806060815260200160008152602001600061ffff168152602001600061ffff168152602001600063ffffffff16815260200160008152602001600081525090565b82815260c0810182905261056481611bbf565b60208101518151606091610564916119159082611e9d565b84519190611ef7565b60a081015160c082015160609161056491611915908290612ac5565b600081518351148015610da75750610da78360008460008751611f6d565b86516020880120600061196c878787611ef7565b90508315611a93576001600160401b03831660009081526005602090815260408083208d84528252808320858452825280832061ffff8c168452909152902080546119b690612b0e565b159050611a14576001600160401b03831660009081526006602090815260408083208d845282528083208584529091528120805461ffff16916119f883612f4a565b91906101000a81548161ffff021916908361ffff160217905550505b6001600160401b03831660009081526005602090815260408083208d84528252808320858452825280832061ffff8c1684529091528120611a54916121d0565b897f03528ed0c2a3ebc993b12ce3c16bb382f9c7d88ef7d8a1bf290eaf35955a12078a8a604051611a86929190612f6f565b60405180910390a2610767565b6001600160401b03831660009081526005602090815260408083208d84528252808320858452825280832061ffff8c16845290915290208054611ad590612b0e565b9050600003611b35576001600160401b03831660009081526006602090815260408083208d845282528083208584529091528120805461ffff1691611b1983612f8f565b91906101000a81548161ffff021916908361ffff160217905550505b6001600160401b03831660009081526005602090815260408083208d84528252808320858452825280832061ffff8c1684529091529020611b768282612d8b565b50897f52a608b3303a48862d07a73d82fa221318c0027fbbcfb1b2329bface3f19ff2b8a8a84604051611bab93929190612fa7565b60405180910390a250505050505050505050565b60c08101516020820181905281515111611bd65750565b6000611bea82600001518360200151611e9d565b8260200151611bf99190612fd9565b8251909150611c089082611f90565b61ffff166040830152611c1c600282612fd9565b8251909150611c2b9082611f90565b61ffff166060830152611c3f600282612fd9565b8251909150611c4e9082611fb8565b63ffffffff166080830152611c64600482612fd9565b8251909150600090611c769083611f90565b61ffff169050611c87600283612fd9565b60a084018190529150611c9a8183612fd9565b60c0909301929092525050565b60008151601414611cb757600080fd5b5060200151600160601b900490565b6060816001600160401b03811115611ce057611ce06125ca565b604051908082528060200260200182016040528015611d1357816020015b6060815260200190600190039081611cfe5790505b50905060005b82811015611e40578415611d88576000848483818110611d3b57611d3b612d0c565b9050602002810190611d4d9190612fec565b611d5c9160249160049161304a565b611d659161307a565b9050858114611d865760405162461bcd60e51b815260040161119c906130f6565b505b60008030868685818110611d9e57611d9e612d0c565b9050602002810190611db09190612fec565b604051611dbe929190612aeb565b600060405180830381855af49150503d8060008114611df9576040519150601f19603f3d011682016040523d82523d6000602084013e611dfe565b606091505b509150915081611e0d57600080fd5b80848481518110611e2057611e20612d0c565b602002602001018190525050508080611e3890613106565b915050611d19565b509392505050565b604080516014808252818301909252606091602082018180368337505050600160601b9290920260208301525090565b60006001600160e01b0319821663c869023360e01b1480610564575061056482611fe2565b6000815b83518110611eb157611eb1613119565b6000611ebd8583612007565b60ff169050611ecd816001612fd9565b611ed79083612fd9565b915080600003611ee75750611eed565b50611ea1565b6114c28382612ac5565b8251606090611f068385612fd9565b1115611f1157600080fd5b6000826001600160401b03811115611f2b57611f2b6125ca565b6040519080825280601f01601f191660200182016040528015611f55576020820181803683370190505b50905060208082019086860101610a8182828761202b565b6000611f7a848484612081565b611f85878785612081565b149695505050505050565b8151600090611fa0836002612fd9565b1115611fab57600080fd5b50016002015161ffff1690565b8151600090611fc8836004612fd9565b1115611fd357600080fd5b50016004015163ffffffff1690565b60006001600160e01b0319821663691f343160e01b14806105645750610564826120a5565b600082828151811061201b5761201b612d0c565b016020015160f81c905092915050565b602081106120635781518352612042602084612fd9565b925061204f602083612fd9565b915061205c602082612ac5565b905061202b565b905182516020929092036101000a6000190180199091169116179052565b82516000906120908385612fd9565b111561209b57600080fd5b5091016020012090565b60006001600160e01b031982166304928c6760e21b148061056457506105648260006001600160e01b0319821663547d2b4160e11b14806120f657506001600160e01b03198216635c98042b60e01b145b8061056457506105648260006001600160e01b0319821663bc1c58d160e01b148061056457506105648260006001600160e01b03198216631d9dabef60e11b148061215157506001600160e01b031982166378e5bf0360e11b145b8061056457506105648260006001600160e01b03198216631101d5ab60e11b148061056457506105648260006001600160e01b0319821663d700ff3360e01b148061056457506105648260006001600160e01b03198216634fbf043360e01b148061056457506301ffc9a760e01b6001600160e01b0319831614610564565b5080546121dc90612b0e565b6000825580601f106121ec575050565b601f01602090049060005260206000209081019061220a919061220d565b50565b5b80821115612222576000815560010161220e565b5090565b6001600160e01b031981165b811461220a57600080fd5b803561056481612226565b60006020828403121561225d5761225d600080fd5b60006114c2848461223d565b8015155b82525050565b602081016105648284612269565b80612232565b803561056481612281565b60008083601f8401126122a7576122a7600080fd5b5081356001600160401b038111156122c1576122c1600080fd5b602083019150836001820283011115610bbb57610bbb600080fd5b6000806000604084860312156122f4576122f4600080fd5b60006123008686612287565b93505060208401356001600160401b0381111561231f5761231f600080fd5b61232b86828701612292565b92509250509250925092565b60008060008060006060868803121561235257612352600080fd5b600061235e8888612287565b95505060208601356001600160401b0381111561237d5761237d600080fd5b61238988828901612292565b945094505060408601356001600160401b038111156123aa576123aa600080fd5b6123b688828901612292565b92509250509295509295909350565b600080604083850312156123db576123db600080fd5b60006123e78585612287565b92505060206123f88582860161223d565b9150509250929050565b60006001600160a01b038216610564565b61226d81612402565b602081016105648284612413565b6000806040838503121561244057612440600080fd5b600061244c8585612287565b92505060206123f885828601612287565b8061226d565b60005b8381101561247e578181015183820152602001612466565b50506000910152565b6000612491825190565b8084526020840193506124a8818560208601612463565b601f19601f8201165b9093019392505050565b604081016124c9828561245d565b81810360208301526114c28184612487565b6000806000606084860312156124f3576124f3600080fd5b60006124ff8686612287565b935050602061251086828701612287565b925050604061252186828701612287565b9150509250925092565b60006020828403121561254057612540600080fd5b60006114c28484612287565b60208082528101610da78184612487565b6000806000806060858703121561257657612576600080fd5b60006125828787612287565b945050602061259387828801612287565b93505060408501356001600160401b038111156125b2576125b2600080fd5b6125be87828801612292565b95989497509550505050565b634e487b7160e01b600052604160045260246000fd5b601f19601f83011681018181106001600160401b0382111715612605576126056125ca565b6040525050565b600061261760405190565b905061262382826125e0565b919050565b60006001600160401b03821115612641576126416125ca565b601f19601f83011660200192915050565b82818337506000910152565b600061267161266c84612628565b61260c565b90508281526020810184848401111561268c5761268c600080fd5b611e40848285612652565b600082601f8301126126ab576126ab600080fd5b81356114c284826020860161265e565b6000806000606084860312156126d3576126d3600080fd5b60006126df8686612287565b93505060206126f086828701612287565b92505060408401356001600160401b0381111561270f5761270f600080fd5b61252186828701612697565b61223281612402565b80356105648161271b565b801515612232565b80356105648161272f565b6000806040838503121561275857612758600080fd5b60006127648585612724565b92505060206123f885828601612737565b60008060006060848603121561278d5761278d600080fd5b60006127998686612287565b93505060206127aa86828701612724565b925050604061252186828701612737565b61ffff8116612232565b8035610564816127bb565b6000806000606084860312156127e8576127e8600080fd5b60006127f48686612287565b935050602061280586828701612287565b9250506040612521868287016127c5565b60008060006060848603121561282e5761282e600080fd5b600061283a8686612724565b935050602061284b86828701612287565b925050604061252186828701612724565b60008083601f84011261287157612871600080fd5b5081356001600160401b0381111561288b5761288b600080fd5b602083019150836020820283011115610bbb57610bbb600080fd5b600080602083850312156128bc576128bc600080fd5b82356001600160401b038111156128d5576128d5600080fd5b6128e18582860161285c565b92509250509250929050565b6000610da78383612487565b6000612903825190565b8084526020840193508360208202850161291d8560200190565b8060005b85811015612952578484038952815161293a85826128ed565b94506020830160209a909a0199925050600101612921565b5091979650505050505050565b60208082528101610da781846128f9565b6040810161297e828561245d565b610da7602083018461245d565b600080604083850312156129a1576129a1600080fd5b60006129ad8585612287565b92505060206123f885828601612724565b6001600160401b03811661226d565b6020810161056482846129be565b6000806000604084860312156129f3576129f3600080fd5b60006129ff8686612287565b93505060208401356001600160401b03811115612a1e57612a1e600080fd5b61232b8682870161285c565b600080600060608486031215612a4257612a42600080fd5b6000612a4e8686612287565b935050602061284b8682870161223d565b60008060408385031215612a7557612a75600080fd5b60006129ad8585612724565b6000612a8b825190565b612a99818560208601612463565b9290920192915050565b6000610da78284612a81565b634e487b7160e01b600052601160045260246000fd5b8181038181111561056457610564612aaf565b6000612ae5838584612652565b50500190565b60006114c2828486612ad8565b634e487b7160e01b600052602260045260246000fd5b600281046001821680612b2257607f821691505b602082108103612b3457612b34612af8565b50919050565b6000610564612b468381565b90565b612b5283612b3a565b81546008840282811b60001990911b908116901990911617825550505050565b60006114b0818484612b49565b81811015612b9a57612b92600082612b72565b600101612b7f565b5050565b601f8211156114b0576000818152602090206020601f85010481016020851015612bc55750805b61116d6020601f860104830182612b7f565b826001600160401b03811115612bef57612bef6125ca565b612bf98254612b0e565b612c04828285612b9e565b6000601f831160018114612c385760008415612c205750858201355b600019600886021c1981166002860217865550612c91565b600085815260208120601f198616915b82811015612c685788850135825560209485019460019092019101612c48565b86831015612c8457600019601f88166008021c19858a01351682555b6001600288020188555050505b50505050505050565b8183526000602084019350612cb0838584612652565b601f19601f8401166124b1565b60408082528101612ccf818688612c9a565b90508181036020830152612ce4818486612c9a565b9695505050505050565b6001600160e01b0319811661226d565b602081016105648284612cee565b634e487b7160e01b600052603260045260246000fd5b602080825281016114c2818486612c9a565b6001600160401b0316600067fffffffffffffffe198201612d5757612d57612aaf565b5060010190565b600061056482612402565b600061056482612d5e565b61226d81612d69565b602081016105648284612d74565b81516001600160401b03811115612da457612da46125ca565b612dae8254612b0e565b612db9828285612b9e565b6020601f831160018114612ded5760008415612dd55750858201515b600019600886021c1981166002860217865550612e46565b600085815260208120601f198616915b82811015612e1d5788850151825560209485019460019092019101612dfd565b86831015612e395784890151600019601f89166008021c191682555b6001600288020188555050505b505050505050565b602981526000602082017f455243313135353a2073657474696e6720617070726f76616c20737461747573815268103337b91039b2b63360b91b602082015291505b5060400190565b6020808252810161056481612e4e565b60208082528181019081527f53657474696e672064656c65676174652073746174757320666f722073656c66604083015260608201610564565b60408082528101612ef28186612487565b90508181036020830152612f07818486612c9a565b95945050505050565b60208101610564828461245d565b80516105648161271b565b600060208284031215612f3e57612f3e600080fd5b60006114c28484612f1e565b61ffff16600081612f5d57612f5d612aaf565b506000190190565b61ffff811661226d565b60408082528101612f808185612487565b9050610da76020830184612f65565b61ffff16600061fffe198201612d5757612d57612aaf565b60608082528101612fb88186612487565b9050612fc76020830185612f65565b8181036040830152612f078184612487565b8082018082111561056457610564612aaf565b6000808335601e193685900301811261300757613007600080fd5b8084019250823591506001600160401b0382111561302757613027600080fd5b60208301925060018202360383131561304257613042600080fd5b509250929050565b6000808585111561305d5761305d600080fd5b8386111561306d5761306d600080fd5b5050820193919092039150565b80358282602082101561309d57613098600019836020036008021b90565b831692505b505092915050565b603481526000602082017f6d756c746963616c6c3a20416c6c207265636f726473206d7573742068617665815273040c240dac2e8c6d0d2dcce40dcc2dacad0c2e6d60631b60208201529150612e90565b60208082528101610564816130a5565b60006000198203612d5757612d57612aaf565b634e487b7160e01b600052600160045260246000fdfea2646970667358221220b3f06aac7577bd6e9ba09066766415d2c64144d07097170a8d091b710748e00a64736f6c63430008110033",
  "devdoc": {
    "kind": "dev",
    "methods": {
      "ABI(bytes32,uint256)": {
        "params": {
          "contentTypes": "A bitwise OR of the ABI formats accepted by the caller.",
          "node": "The ENS node to query"
        },
        "returns": {
          "_0": "contentType The content type of the return value",
          "_1": "data The ABI data"
        }
      },
      "addr(bytes32)": {
        "params": {
          "node": "The ENS node to query."
        },
        "returns": {
          "_0": "The associated address."
        }
      },
      "approve(bytes32,address,bool)": {
        "details": "Approve a delegate to be able to updated records on a node."
      },
      "clearRecords(bytes32)": {
        "params": {
          "node": "The node to update."
        }
      },
      "contenthash(bytes32)": {
        "params": {
          "node": "The ENS node to query."
        },
        "returns": {
          "_0": "The associated contenthash."
        }
      },
      "dnsRecord(bytes32,bytes32,uint16)": {
        "params": {
          "name": "the keccak-256 hash of the fully-qualified name for which to fetch the record",
          "node": "the namehash of the node for which to fetch the record",
          "resource": "the ID of the resource as per https://en.wikipedia.org/wiki/List_of_DNS_record_types"
        },
        "returns": {
          "_0": "the DNS record in wire format if present, otherwise empty"
        }
      },
      "hasDNSRecords(bytes32,bytes32)": {
        "params": {
          "name": "the namehash of the node for which to check the records",
          "node": "the namehash of the node for which to check the records"
        }
      },
      "interfaceImplementer(bytes32,bytes4)": {
        "params": {
          "interfaceID": "The EIP 165 interface ID to check for.",
          "node": "The ENS node to query."
        },
        "returns": {
          "_0": "The address that implements this interface, or 0 if the interface is unsupported."
        }
      },
      "isApprovedFor(address,bytes32,address)": {
        "details": "Check to see if the delegate has been approved by the owner for the node."
      },
      "isApprovedForAll(address,address)": {
        "details": "See {IERC1155-isApprovedForAll}."
      },
      "name(bytes32)": {
        "params": {
          "node": "The ENS node to query."
        },
        "returns": {
          "_0": "The associated name."
        }
      },
      "pubkey(bytes32)": {
        "params": {
          "node": "The ENS node to query"
        },
        "returns": {
          "x": "The X coordinate of the curve point for the public key.",
          "y": "The Y coordinate of the curve point for the public key."
        }
      },
      "setABI(bytes32,uint256,bytes)": {
        "params": {
          "contentType": "The content type of the ABI",
          "data": "The ABI data.",
          "node": "The node to update."
        }
      },
      "setAddr(bytes32,address)": {
        "params": {
          "a": "The address to set.",
          "node": "The node to update."
        }
      },
      "setApprovalForAll(address,bool)": {
        "details": "See {IERC1155-setApprovalForAll}."
      },
      "setContenthash(bytes32,bytes)": {
        "params": {
          "hash": "The contenthash to set",
          "node": "The node to update."
        }
      },
      "setDNSRecords(bytes32,bytes)": {
        "params": {
          "data": "the DNS wire format records to set",
          "node": "the namehash of the node for which to set the records"
        }
      },
      "setInterface(bytes32,bytes4,address)": {
        "params": {
          "implementer": "The address of a contract that implements this interface for this node.",
          "interfaceID": "The EIP 165 interface ID.",
          "node": "The node to update."
        }
      },
      "setName(bytes32,string)": {
        "params": {
          "node": "The node to update."
        }
      },
      "setPubkey(bytes32,bytes32,bytes32)": {
        "params": {
          "node": "The ENS node to query",
          "x": "the X coordinate of the curve point for the public key.",
          "y": "the Y coordinate of the curve point for the public key."
        }
      },
      "setText(bytes32,string,string)": {
        "params": {
          "key": "The key to set.",
          "node": "The node to update.",
          "value": "The text data value to set."
        }
      },
      "setZonehash(bytes32,bytes)": {
        "params": {
          "hash": "The zonehash to set",
          "node": "The node to update."
        }
      },
      "text(bytes32,string)": {
        "params": {
          "key": "The text data key to query.",
          "node": "The ENS node to query."
        },
        "returns": {
          "_0": "The associated text data."
        }
      },
      "zonehash(bytes32)": {
        "params": {
          "node": "The ENS node to query."
        },
        "returns": {
          "_0": "The associated contenthash."
        }
      }
    },
    "version": 1
  },
  "userdoc": {
    "kind": "user",
    "methods": {
      "ABI(bytes32,uint256)": {
        "notice": "Returns the ABI associated with an ENS node. Defined in EIP205."
      },
      "addr(bytes32)": {
        "notice": "Returns the address associated with an ENS node."
      },
      "clearRecords(bytes32)": {
        "notice": "Increments the record version associated with an ENS node. May only be called by the owner of that node in the ENS registry."
      },
      "contenthash(bytes32)": {
        "notice": "Returns the contenthash associated with an ENS node."
      },
      "dnsRecord(bytes32,bytes32,uint16)": {
        "notice": "Obtain a DNS record."
      },
      "hasDNSRecords(bytes32,bytes32)": {
        "notice": "Check if a given node has records."
      },
      "interfaceImplementer(bytes32,bytes4)": {
        "notice": "Returns the address of a contract that implements the specified interface for this name. If an implementer has not been set for this interfaceID and name, the resolver will query the contract at `addr()`. If `addr()` is set, a contract exists at that address, and that contract implements EIP165 and returns `true` for the specified interfaceID, its address will be returned."
      },
      "name(bytes32)": {
        "notice": "Returns the name associated with an ENS node, for reverse records. Defined in EIP181."
      },
      "pubkey(bytes32)": {
        "notice": "Returns the SECP256k1 public key associated with an ENS node. Defined in EIP 619."
      },
      "setABI(bytes32,uint256,bytes)": {
        "notice": "Sets the ABI associated with an ENS node. Nodes may have one ABI of each content type. To remove an ABI, set it to the empty string."
      },
      "setAddr(bytes32,address)": {
        "notice": "Sets the address associated with an ENS node. May only be called by the owner of that node in the ENS registry."
      },
      "setContenthash(bytes32,bytes)": {
        "notice": "Sets the contenthash associated with an ENS node. May only be called by the owner of that node in the ENS registry."
      },
      "setDNSRecords(bytes32,bytes)": {
        "notice": "Set one or more DNS records.  Records are supplied in wire-format. Records with the same node/name/resource must be supplied one after the other to ensure the data is updated correctly. For example, if the data was supplied:     a.example.com IN A 1.2.3.4     a.example.com IN A 5.6.7.8     www.example.com IN CNAME a.example.com. then this would store the two A records for a.example.com correctly as a single RRSET, however if the data was supplied:     a.example.com IN A 1.2.3.4     www.example.com IN CNAME a.example.com.     a.example.com IN A 5.6.7.8 then this would store the first A record, the CNAME, then the second A record which would overwrite the first."
      },
      "setInterface(bytes32,bytes4,address)": {
        "notice": "Sets an interface associated with a name. Setting the address to 0 restores the default behaviour of querying the contract at `addr()` for interface support."
      },
      "setName(bytes32,string)": {
        "notice": "Sets the name associated with an ENS node, for reverse records. May only be called by the owner of that node in the ENS registry."
      },
      "setPubkey(bytes32,bytes32,bytes32)": {
        "notice": "Sets the SECP256k1 public key associated with an ENS node."
      },
      "setText(bytes32,string,string)": {
        "notice": "Sets the text data associated with an ENS node and key. May only be called by the owner of that node in the ENS registry."
      },
      "setZonehash(bytes32,bytes)": {
        "notice": "setZonehash sets the hash for the zone. May only be called by the owner of that node in the ENS registry."
      },
      "text(bytes32,string)": {
        "notice": "Returns the text data associated with an ENS node and key."
      },
      "zonehash(bytes32)": {
        "notice": "zonehash obtains the hash for the zone."
      }
    },
    "notice": "A simple resolver anyone can use; only allows the owner of a node to set its address.",
    "version": 1
  },
  "storageLayout": {
    "storage": [
      {
        "astId": 7626,
        "contract": "contracts/resolvers/RemiliasPublicResolver.sol:RemiliasPublicResolver",
        "label": "recordVersions",
        "offset": 0,
        "slot": "0",
        "type": "t_mapping(t_bytes32,t_uint64)"
      },
      {
        "astId": 7705,
        "contract": "contracts/resolvers/RemiliasPublicResolver.sol:RemiliasPublicResolver",
        "label": "versionable_abis",
        "offset": 0,
        "slot": "1",
        "type": "t_mapping(t_uint64,t_mapping(t_bytes32,t_mapping(t_uint256,t_bytes_storage)))"
      },
      {
        "astId": 7859,
        "contract": "contracts/resolvers/RemiliasPublicResolver.sol:RemiliasPublicResolver",
        "label": "versionable_addresses",
        "offset": 0,
        "slot": "2",
        "type": "t_mapping(t_uint64,t_mapping(t_bytes32,t_mapping(t_uint256,t_bytes_storage)))"
      },
      {
        "astId": 8050,
        "contract": "contracts/resolvers/RemiliasPublicResolver.sol:RemiliasPublicResolver",
        "label": "versionable_hashes",
        "offset": 0,
        "slot": "3",
        "type": "t_mapping(t_uint64,t_mapping(t_bytes32,t_bytes_storage))"
      },
      {
        "astId": 8140,
        "contract": "contracts/resolvers/RemiliasPublicResolver.sol:RemiliasPublicResolver",
        "label": "versionable_zonehashes",
        "offset": 0,
        "slot": "4",
        "type": "t_mapping(t_uint64,t_mapping(t_bytes32,t_bytes_storage))"
      },
      {
        "astId": 8150,
        "contract": "contracts/resolvers/RemiliasPublicResolver.sol:RemiliasPublicResolver",
        "label": "versionable_records",
        "offset": 0,
        "slot": "5",
        "type": "t_mapping(t_uint64,t_mapping(t_bytes32,t_mapping(t_bytes32,t_mapping(t_uint16,t_bytes_storage))))"
      },
      {
        "astId": 8158,
        "contract": "contracts/resolvers/RemiliasPublicResolver.sol:RemiliasPublicResolver",
        "label": "versionable_nameEntriesCount",
        "offset": 0,
        "slot": "6",
        "type": "t_mapping(t_uint64,t_mapping(t_bytes32,t_mapping(t_bytes32,t_uint16)))"
      },
      {
        "astId": 8850,
        "contract": "contracts/resolvers/RemiliasPublicResolver.sol:RemiliasPublicResolver",
        "label": "versionable_interfaces",
        "offset": 0,
        "slot": "7",
        "type": "t_mapping(t_uint64,t_mapping(t_bytes32,t_mapping(t_bytes4,t_address)))"
      },
      {
        "astId": 9042,
        "contract": "contracts/resolvers/RemiliasPublicResolver.sol:RemiliasPublicResolver",
        "label": "versionable_names",
        "offset": 0,
        "slot": "8",
        "type": "t_mapping(t_uint64,t_mapping(t_bytes32,t_string_storage))"
      },
      {
        "astId": 9129,
        "contract": "contracts/resolvers/RemiliasPublicResolver.sol:RemiliasPublicResolver",
        "label": "versionable_pubkeys",
        "offset": 0,
        "slot": "9",
        "type": "t_mapping(t_uint64,t_mapping(t_bytes32,t_struct(PublicKey)9122_storage))"
      },
      {
        "astId": 9232,
        "contract": "contracts/resolvers/RemiliasPublicResolver.sol:RemiliasPublicResolver",
        "label": "versionable_texts",
        "offset": 0,
        "slot": "10",
        "type": "t_mapping(t_uint64,t_mapping(t_bytes32,t_mapping(t_string_memory_ptr,t_string_storage)))"
      },
      {
        "astId": 7155,
        "contract": "contracts/resolvers/RemiliasPublicResolver.sol:RemiliasPublicResolver",
        "label": "_operatorApprovals",
        "offset": 0,
        "slot": "11",
        "type": "t_mapping(t_address,t_mapping(t_address,t_bool))"
      },
      {
        "astId": 7164,
        "contract": "contracts/resolvers/RemiliasPublicResolver.sol:RemiliasPublicResolver",
        "label": "_tokenApprovals",
        "offset": 0,
        "slot": "12",
        "type": "t_mapping(t_address,t_mapping(t_bytes32,t_mapping(t_address,t_bool)))"
      }
    ],
    "types": {
      "t_address": {
        "encoding": "inplace",
        "label": "address",
        "numberOfBytes": "20"
      },
      "t_bool": {
        "encoding": "inplace",
        "label": "bool",
        "numberOfBytes": "1"
      },
      "t_bytes32": {
        "encoding": "inplace",
        "label": "bytes32",
        "numberOfBytes": "32"
      },
      "t_bytes4": {
        "encoding": "inplace",
        "label": "bytes4",
        "numberOfBytes": "4"
      },
      "t_bytes_storage": {
        "encoding": "bytes",
        "label": "bytes",
        "numberOfBytes": "32"
      },
      "t_mapping(t_address,t_bool)": {
        "encoding": "mapping",
        "key": "t_address",
        "label": "mapping(address => bool)",
        "numberOfBytes": "32",
        "value": "t_bool"
      },
      "t_mapping(t_address,t_mapping(t_address,t_bool))": {
        "encoding": "mapping",
        "key": "t_address",
        "label": "mapping(address => mapping(address => bool))",
        "numberOfBytes": "32",
        "value": "t_mapping(t_address,t_bool)"
      },
      "t_mapping(t_address,t_mapping(t_bytes32,t_mapping(t_address,t_bool)))": {
        "encoding": "mapping",
        "key": "t_address",
        "label": "mapping(address => mapping(bytes32 => mapping(address => bool)))",
        "numberOfBytes": "32",
        "value": "t_mapping(t_bytes32,t_mapping(t_address,t_bool))"
      },
      "t_mapping(t_bytes32,t_bytes_storage)": {
        "encoding": "mapping",
        "key": "t_bytes32",
        "label": "mapping(bytes32 => bytes)",
        "numberOfBytes": "32",
        "value": "t_bytes_storage"
      },
      "t_mapping(t_bytes32,t_mapping(t_address,t_bool))": {
        "encoding": "mapping",
        "key": "t_bytes32",
        "label": "mapping(bytes32 => mapping(address => bool))",
        "numberOfBytes": "32",
        "value": "t_mapping(t_address,t_bool)"
      },
      "t_mapping(t_bytes32,t_mapping(t_bytes32,t_mapping(t_uint16,t_bytes_storage)))": {
        "encoding": "mapping",
        "key": "t_bytes32",
        "label": "mapping(bytes32 => mapping(bytes32 => mapping(uint16 => bytes)))",
        "numberOfBytes": "32",
        "value": "t_mapping(t_bytes32,t_mapping(t_uint16,t_bytes_storage))"
      },
      "t_mapping(t_bytes32,t_mapping(t_bytes32,t_uint16))": {
        "encoding": "mapping",
        "key": "t_bytes32",
        "label": "mapping(bytes32 => mapping(bytes32 => uint16))",
        "numberOfBytes": "32",
        "value": "t_mapping(t_bytes32,t_uint16)"
      },
      "t_mapping(t_bytes32,t_mapping(t_bytes4,t_address))": {
        "encoding": "mapping",
        "key": "t_bytes32",
        "label": "mapping(bytes32 => mapping(bytes4 => address))",
        "numberOfBytes": "32",
        "value": "t_mapping(t_bytes4,t_address)"
      },
      "t_mapping(t_bytes32,t_mapping(t_string_memory_ptr,t_string_storage))": {
        "encoding": "mapping",
        "key": "t_bytes32",
        "label": "mapping(bytes32 => mapping(string => string))",
        "numberOfBytes": "32",
        "value": "t_mapping(t_string_memory_ptr,t_string_storage)"
      },
      "t_mapping(t_bytes32,t_mapping(t_uint16,t_bytes_storage))": {
        "encoding": "mapping",
        "key": "t_bytes32",
        "label": "mapping(bytes32 => mapping(uint16 => bytes))",
        "numberOfBytes": "32",
        "value": "t_mapping(t_uint16,t_bytes_storage)"
      },
      "t_mapping(t_bytes32,t_mapping(t_uint256,t_bytes_storage))": {
        "encoding": "mapping",
        "key": "t_bytes32",
        "label": "mapping(bytes32 => mapping(uint256 => bytes))",
        "numberOfBytes": "32",
        "value": "t_mapping(t_uint256,t_bytes_storage)"
      },
      "t_mapping(t_bytes32,t_string_storage)": {
        "encoding": "mapping",
        "key": "t_bytes32",
        "label": "mapping(bytes32 => string)",
        "numberOfBytes": "32",
        "value": "t_string_storage"
      },
      "t_mapping(t_bytes32,t_struct(PublicKey)9122_storage)": {
        "encoding": "mapping",
        "key": "t_bytes32",
        "label": "mapping(bytes32 => struct PubkeyResolver.PublicKey)",
        "numberOfBytes": "32",
        "value": "t_struct(PublicKey)9122_storage"
      },
      "t_mapping(t_bytes32,t_uint16)": {
        "encoding": "mapping",
        "key": "t_bytes32",
        "label": "mapping(bytes32 => uint16)",
        "numberOfBytes": "32",
        "value": "t_uint16"
      },
      "t_mapping(t_bytes32,t_uint64)": {
        "encoding": "mapping",
        "key": "t_bytes32",
        "label": "mapping(bytes32 => uint64)",
        "numberOfBytes": "32",
        "value": "t_uint64"
      },
      "t_mapping(t_bytes4,t_address)": {
        "encoding": "mapping",
        "key": "t_bytes4",
        "label": "mapping(bytes4 => address)",
        "numberOfBytes": "32",
        "value": "t_address"
      },
      "t_mapping(t_string_memory_ptr,t_string_storage)": {
        "encoding": "mapping",
        "key": "t_string_memory_ptr",
        "label": "mapping(string => string)",
        "numberOfBytes": "32",
        "value": "t_string_storage"
      },
      "t_mapping(t_uint16,t_bytes_storage)": {
        "encoding": "mapping",
        "key": "t_uint16",
        "label": "mapping(uint16 => bytes)",
        "numberOfBytes": "32",
        "value": "t_bytes_storage"
      },
      "t_mapping(t_uint256,t_bytes_storage)": {
        "encoding": "mapping",
        "key": "t_uint256",
        "label": "mapping(uint256 => bytes)",
        "numberOfBytes": "32",
        "value": "t_bytes_storage"
      },
      "t_mapping(t_uint64,t_mapping(t_bytes32,t_bytes_storage))": {
        "encoding": "mapping",
        "key": "t_uint64",
        "label": "mapping(uint64 => mapping(bytes32 => bytes))",
        "numberOfBytes": "32",
        "value": "t_mapping(t_bytes32,t_bytes_storage)"
      },
      "t_mapping(t_uint64,t_mapping(t_bytes32,t_mapping(t_bytes32,t_mapping(t_uint16,t_bytes_storage))))": {
        "encoding": "mapping",
        "key": "t_uint64",
        "label": "mapping(uint64 => mapping(bytes32 => mapping(bytes32 => mapping(uint16 => bytes))))",
        "numberOfBytes": "32",
        "value": "t_mapping(t_bytes32,t_mapping(t_bytes32,t_mapping(t_uint16,t_bytes_storage)))"
      },
      "t_mapping(t_uint64,t_mapping(t_bytes32,t_mapping(t_bytes32,t_uint16)))": {
        "encoding": "mapping",
        "key": "t_uint64",
        "label": "mapping(uint64 => mapping(bytes32 => mapping(bytes32 => uint16)))",
        "numberOfBytes": "32",
        "value": "t_mapping(t_bytes32,t_mapping(t_bytes32,t_uint16))"
      },
      "t_mapping(t_uint64,t_mapping(t_bytes32,t_mapping(t_bytes4,t_address)))": {
        "encoding": "mapping",
        "key": "t_uint64",
        "label": "mapping(uint64 => mapping(bytes32 => mapping(bytes4 => address)))",
        "numberOfBytes": "32",
        "value": "t_mapping(t_bytes32,t_mapping(t_bytes4,t_address))"
      },
      "t_mapping(t_uint64,t_mapping(t_bytes32,t_mapping(t_string_memory_ptr,t_string_storage)))": {
        "encoding": "mapping",
        "key": "t_uint64",
        "label": "mapping(uint64 => mapping(bytes32 => mapping(string => string)))",
        "numberOfBytes": "32",
        "value": "t_mapping(t_bytes32,t_mapping(t_string_memory_ptr,t_string_storage))"
      },
      "t_mapping(t_uint64,t_mapping(t_bytes32,t_mapping(t_uint256,t_bytes_storage)))": {
        "encoding": "mapping",
        "key": "t_uint64",
        "label": "mapping(uint64 => mapping(bytes32 => mapping(uint256 => bytes)))",
        "numberOfBytes": "32",
        "value": "t_mapping(t_bytes32,t_mapping(t_uint256,t_bytes_storage))"
      },
      "t_mapping(t_uint64,t_mapping(t_bytes32,t_string_storage))": {
        "encoding": "mapping",
        "key": "t_uint64",
        "label": "mapping(uint64 => mapping(bytes32 => string))",
        "numberOfBytes": "32",
        "value": "t_mapping(t_bytes32,t_string_storage)"
      },
      "t_mapping(t_uint64,t_mapping(t_bytes32,t_struct(PublicKey)9122_storage))": {
        "encoding": "mapping",
        "key": "t_uint64",
        "label": "mapping(uint64 => mapping(bytes32 => struct PubkeyResolver.PublicKey))",
        "numberOfBytes": "32",
        "value": "t_mapping(t_bytes32,t_struct(PublicKey)9122_storage)"
      },
      "t_string_memory_ptr": {
        "encoding": "bytes",
        "label": "string",
        "numberOfBytes": "32"
      },
      "t_string_storage": {
        "encoding": "bytes",
        "label": "string",
        "numberOfBytes": "32"
      },
      "t_struct(PublicKey)9122_storage": {
        "encoding": "inplace",
        "label": "struct PubkeyResolver.PublicKey",
        "members": [
          {
            "astId": 9119,
            "contract": "contracts/resolvers/RemiliasPublicResolver.sol:RemiliasPublicResolver",
            "label": "x",
            "offset": 0,
            "slot": "0",
            "type": "t_bytes32"
          },
          {
            "astId": 9121,
            "contract": "contracts/resolvers/RemiliasPublicResolver.sol:RemiliasPublicResolver",
            "label": "y",
            "offset": 0,
            "slot": "1",
            "type": "t_bytes32"
          }
        ],
        "numberOfBytes": "64"
      },
      "t_uint16": {
        "encoding": "inplace",
        "label": "uint16",
        "numberOfBytes": "2"
      },
      "t_uint256": {
        "encoding": "inplace",
        "label": "uint256",
        "numberOfBytes": "32"
      },
      "t_uint64": {
        "encoding": "inplace",
        "label": "uint64",
        "numberOfBytes": "8"
      }
    }
  }
}