{
  "address": "0xCC757CDfC2305113f04Ce1fe08951C2889526B37",
  "abi": [
    {
      "inputs": [
        {
          "internalType": "contract ENS",
          "name": "_ens",
          "type": "address"
        },
        {
          "internalType": "contract IRemiliasRegistrar",
          "name": "_registrar",
          "type": "address"
        },
        {
          "internalType": "contract IMetadataService",
          "name": "_metadataService",
          "type": "address"
        }
      ],
      "stateMutability": "nonpayable",
      "type": "constructor"
    },
    {
      "inputs": [],
      "name": "CannotUpgrade",
      "type": "error"
    },
    {
      "inputs": [],
      "name": "IncompatibleParent",
      "type": "error"
    },
    {
      "inputs": [
        {
          "internalType": "address",
          "name": "owner",
          "type": "address"
        }
      ],
      "name": "IncorrectTargetOwner",
      "type": "error"
    },
    {
      "inputs": [],
      "name": "IncorrectTokenType",
      "type": "error"
    },
    {
      "inputs": [
        {
          "internalType": "bytes32",
          "name": "labelHash",
          "type": "bytes32"
        },
        {
          "internalType": "bytes32",
          "name": "expectedLabelhash",
          "type": "bytes32"
        }
      ],
      "name": "LabelMismatch",
      "type": "error"
    },
    {
      "inputs": [
        {
          "internalType": "string",
          "name": "label",
          "type": "string"
        }
      ],
      "name": "LabelTooLong",
      "type": "error"
    },
    {
      "inputs": [],
      "name": "LabelTooShort",
      "type": "error"
    },
    {
      "inputs": [],
      "name": "NameIsNotWrapped",
      "type": "error"
    },
    {
      "inputs": [],
      "name": "NameIsStillExpired",
      "type": "error"
    },
    {
      "inputs": [
        {
          "internalType": "bytes32",
          "name": "node",
          "type": "bytes32"
        }
      ],
      "name": "OperationProhibited",
      "type": "error"
    },
    {
      "inputs": [
        {
          "internalType": "bytes32",
          "name": "node",
          "type": "bytes32"
        },
        {
          "internalType": "address",
          "name": "addr",
          "type": "address"
        }
      ],
      "name": "Unauthorised",
      "type": "error"
    },
    {
      "anonymous": false,
      "inputs": [
        {
          "indexed": true,
          "internalType": "address",
          "name": "owner",
          "type": "address"
        },
        {
          "indexed": true,
          "internalType": "address",
          "name": "approved",
          "type": "address"
        },
        {
          "indexed": true,
          "internalType": "uint256",
          "name": "tokenId",
          "type": "uint256"
        }
      ],
      "name": "Approval",
      "type": "event"
    },
    {
      "anonymous": false,
      "inputs": [
        {
          "indexed": true,
          "internalType": "address",
          "name": "account",
          "type": "address"
        },
        {
          "indexed": true,
          "internalType": "address",
          "name": "operator",
          "type": "address"
        },
        {
          "indexed": false,
          "internalType": "bool",
          "name": "approved",
          "type": "bool"
        }
      ],
      "name": "ApprovalForAll",
      "type": "event"
    },
    {
      "anonymous": false,
      "inputs": [
        {
          "indexed": true,
          "internalType": "address",
          "name": "controller",
          "type": "address"
        },
        {
          "indexed": false,
          "internalType": "bool",
          "name": "active",
          "type": "bool"
        }
      ],
      "name": "ControllerChanged",
      "type": "event"
    },
    {
      "anonymous": false,
      "inputs": [
        {
          "indexed": true,
          "internalType": "bytes32",
          "name": "node",
          "type": "bytes32"
        },
        {
          "indexed": false,
          "internalType": "uint64",
          "name": "expiry",
          "type": "uint64"
        }
      ],
      "name": "ExpiryExtended",
      "type": "event"
    },
    {
      "anonymous": false,
      "inputs": [
        {
          "indexed": true,
          "internalType": "bytes32",
          "name": "node",
          "type": "bytes32"
        },
        {
          "indexed": false,
          "internalType": "uint32",
          "name": "fuses",
          "type": "uint32"
        }
      ],
      "name": "FusesSet",
      "type": "event"
    },
    {
      "anonymous": false,
      "inputs": [
        {
          "indexed": true,
          "internalType": "bytes32",
          "name": "node",
          "type": "bytes32"
        },
        {
          "indexed": false,
          "internalType": "address",
          "name": "owner",
          "type": "address"
        }
      ],
      "name": "NameUnwrapped",
      "type": "event"
    },
    {
      "anonymous": false,
      "inputs": [
        {
          "indexed": true,
          "internalType": "bytes32",
          "name": "node",
          "type": "bytes32"
        },
        {
          "indexed": false,
          "internalType": "bytes",
          "name": "name",
          "type": "bytes"
        },
        {
          "indexed": false,
          "internalType": "address",
          "name": "owner",
          "type": "address"
        },
        {
          "indexed": false,
          "internalType": "uint32",
          "name": "fuses",
          "type": "uint32"
        },
        {
          "indexed": false,
          "internalType": "uint64",
          "name": "expiry",
          "type": "uint64"
        }
      ],
      "name": "NameWrapped",
      "type": "event"
    },
    {
      "anonymous": false,
      "inputs": [
        {
          "indexed": true,
          "internalType": "address",
          "name": "previousOwner",
          "type": "address"
        },
        {
          "indexed": true,
          "internalType": "address",
          "name": "newOwner",
          "type": "address"
        }
      ],
      "name": "OwnershipTransferred",
      "type": "event"
    },
    {
      "anonymous": false,
      "inputs": [
        {
          "indexed": true,
          "internalType": "address",
          "name": "operator",
          "type": "address"
        },
        {
          "indexed": true,
          "internalType": "address",
          "name": "from",
          "type": "address"
        },
        {
          "indexed": true,
          "internalType": "address",
          "name": "to",
          "type": "address"
        },
        {
          "indexed": false,
          "internalType": "uint256[]",
          "name": "ids",
          "type": "uint256[]"
        },
        {
          "indexed": false,
          "internalType": "uint256[]",
          "name": "values",
          "type": "uint256[]"
        }
      ],
      "name": "TransferBatch",
      "type": "event"
    },
    {
      "anonymous": false,
      "inputs": [
        {
          "indexed": true,
          "internalType": "address",
          "name": "operator",
          "type": "address"
        },
        {
          "indexed": true,
          "internalType": "address",
          "name": "from",
          "type": "address"
        },
        {
          "indexed": true,
          "internalType": "address",
          "name": "to",
          "type": "address"
        },
        {
          "indexed": false,
          "internalType": "uint256",
          "name": "id",
          "type": "uint256"
        },
        {
          "indexed": false,
          "internalType": "uint256",
          "name": "value",
          "type": "uint256"
        }
      ],
      "name": "TransferSingle",
      "type": "event"
    },
    {
      "anonymous": false,
      "inputs": [
        {
          "indexed": false,
          "internalType": "string",
          "name": "value",
          "type": "string"
        },
        {
          "indexed": true,
          "internalType": "uint256",
          "name": "id",
          "type": "uint256"
        }
      ],
      "name": "URI",
      "type": "event"
    },
    {
      "inputs": [
        {
          "internalType": "uint256",
          "name": "",
          "type": "uint256"
        }
      ],
      "name": "_tokens",
      "outputs": [
        {
          "internalType": "uint256",
          "name": "",
          "type": "uint256"
        }
      ],
      "stateMutability": "view",
      "type": "function"
    },
    {
      "inputs": [
        {
          "internalType": "bytes32",
          "name": "node",
          "type": "bytes32"
        },
        {
          "internalType": "uint32",
          "name": "fuseMask",
          "type": "uint32"
        }
      ],
      "name": "allFusesBurned",
      "outputs": [
        {
          "internalType": "bool",
          "name": "",
          "type": "bool"
        }
      ],
      "stateMutability": "view",
      "type": "function"
    },
    {
      "inputs": [
        {
          "internalType": "address",
          "name": "to",
          "type": "address"
        },
        {
          "internalType": "uint256",
          "name": "tokenId",
          "type": "uint256"
        }
      ],
      "name": "approve",
      "outputs": [],
      "stateMutability": "nonpayable",
      "type": "function"
    },
    {
      "inputs": [
        {
          "internalType": "address",
          "name": "account",
          "type": "address"
        },
        {
          "internalType": "uint256",
          "name": "id",
          "type": "uint256"
        }
      ],
      "name": "balanceOf",
      "outputs": [
        {
          "internalType": "uint256",
          "name": "",
          "type": "uint256"
        }
      ],
      "stateMutability": "view",
      "type": "function"
    },
    {
      "inputs": [
        {
          "internalType": "address[]",
          "name": "accounts",
          "type": "address[]"
        },
        {
          "internalType": "uint256[]",
          "name": "ids",
          "type": "uint256[]"
        }
      ],
      "name": "balanceOfBatch",
      "outputs": [
        {
          "internalType": "uint256[]",
          "name": "",
          "type": "uint256[]"
        }
      ],
      "stateMutability": "view",
      "type": "function"
    },
    {
      "inputs": [
        {
          "internalType": "bytes32",
          "name": "node",
          "type": "bytes32"
        },
        {
          "internalType": "address",
          "name": "addr",
          "type": "address"
        }
      ],
      "name": "canModifyName",
      "outputs": [
        {
          "internalType": "bool",
          "name": "",
          "type": "bool"
        }
      ],
      "stateMutability": "view",
      "type": "function"
    },
    {
      "inputs": [
        {
          "internalType": "address",
          "name": "",
          "type": "address"
        }
      ],
      "name": "controllers",
      "outputs": [
        {
          "internalType": "bool",
          "name": "",
          "type": "bool"
        }
      ],
      "stateMutability": "view",
      "type": "function"
    },
    {
      "inputs": [],
      "name": "ens",
      "outputs": [
        {
          "internalType": "contract ENS",
          "name": "",
          "type": "address"
        }
      ],
      "stateMutability": "view",
      "type": "function"
    },
    {
      "inputs": [
        {
          "internalType": "uint256",
          "name": "id",
          "type": "uint256"
        }
      ],
      "name": "getApproved",
      "outputs": [
        {
          "internalType": "address",
          "name": "operator",
          "type": "address"
        }
      ],
      "stateMutability": "view",
      "type": "function"
    },
    {
      "inputs": [
        {
          "internalType": "uint256",
          "name": "id",
          "type": "uint256"
        }
      ],
      "name": "getData",
      "outputs": [
        {
          "internalType": "address",
          "name": "owner",
          "type": "address"
        },
        {
          "internalType": "uint32",
          "name": "fuses",
          "type": "uint32"
        },
        {
          "internalType": "uint64",
          "name": "expiry",
          "type": "uint64"
        }
      ],
      "stateMutability": "view",
      "type": "function"
    },
    {
      "inputs": [
        {
          "internalType": "address",
          "name": "account",
          "type": "address"
        },
        {
          "internalType": "address",
          "name": "operator",
          "type": "address"
        }
      ],
      "name": "isApprovedForAll",
      "outputs": [
        {
          "internalType": "bool",
          "name": "",
          "type": "bool"
        }
      ],
      "stateMutability": "view",
      "type": "function"
    },
    {
      "inputs": [
        {
          "internalType": "bytes32",
          "name": "parentNode",
          "type": "bytes32"
        },
        {
          "internalType": "bytes32",
          "name": "labelhash",
          "type": "bytes32"
        }
      ],
      "name": "isWrapped",
      "outputs": [
        {
          "internalType": "bool",
          "name": "",
          "type": "bool"
        }
      ],
      "stateMutability": "view",
      "type": "function"
    },
    {
      "inputs": [
        {
          "internalType": "bytes32",
          "name": "node",
          "type": "bytes32"
        }
      ],
      "name": "isWrapped",
      "outputs": [
        {
          "internalType": "bool",
          "name": "",
          "type": "bool"
        }
      ],
      "stateMutability": "view",
      "type": "function"
    },
    {
      "inputs": [],
      "name": "metadataService",
      "outputs": [
        {
          "internalType": "contract IMetadataService",
          "name": "",
          "type": "address"
        }
      ],
      "stateMutability": "view",
      "type": "function"
    },
    {
      "inputs": [],
      "name": "name",
      "outputs": [
        {
          "internalType": "string",
          "name": "",
          "type": "string"
        }
      ],
      "stateMutability": "view",
      "type": "function"
    },
    {
      "inputs": [
        {
          "internalType": "bytes32",
          "name": "",
          "type": "bytes32"
        }
      ],
      "name": "names",
      "outputs": [
        {
          "internalType": "bytes",
          "name": "",
          "type": "bytes"
        }
      ],
      "stateMutability": "view",
      "type": "function"
    },
    {
      "inputs": [
        {
          "internalType": "address",
          "name": "to",
          "type": "address"
        },
        {
          "internalType": "address",
          "name": "",
          "type": "address"
        },
        {
          "internalType": "uint256",
          "name": "tokenId",
          "type": "uint256"
        },
        {
          "internalType": "bytes",
          "name": "data",
          "type": "bytes"
        }
      ],
      "name": "onERC721Received",
      "outputs": [
        {
          "internalType": "bytes4",
          "name": "",
          "type": "bytes4"
        }
      ],
      "stateMutability": "nonpayable",
      "type": "function"
    },
    {
      "inputs": [],
      "name": "owner",
      "outputs": [
        {
          "internalType": "address",
          "name": "",
          "type": "address"
        }
      ],
      "stateMutability": "view",
      "type": "function"
    },
    {
      "inputs": [
        {
          "internalType": "uint256",
          "name": "id",
          "type": "uint256"
        }
      ],
      "name": "ownerOf",
      "outputs": [
        {
          "internalType": "address",
          "name": "owner",
          "type": "address"
        }
      ],
      "stateMutability": "view",
      "type": "function"
    },
    {
      "inputs": [
        {
          "internalType": "address",
          "name": "_token",
          "type": "address"
        },
        {
          "internalType": "address",
          "name": "_to",
          "type": "address"
        },
        {
          "internalType": "uint256",
          "name": "_amount",
          "type": "uint256"
        }
      ],
      "name": "recoverFunds",
      "outputs": [],
      "stateMutability": "nonpayable",
      "type": "function"
    },
    {
      "inputs": [],
      "name": "registrar",
      "outputs": [
        {
          "internalType": "contract IRemiliasRegistrar",
          "name": "",
          "type": "address"
        }
      ],
      "stateMutability": "view",
      "type": "function"
    },
    {
      "inputs": [],
      "name": "renounceOwnership",
      "outputs": [],
      "stateMutability": "nonpayable",
      "type": "function"
    },
    {
      "inputs": [
        {
          "internalType": "uint256",
          "name": "tokenId",
          "type": "uint256"
        },
        {
          "internalType": "address",
          "name": "newOwner",
          "type": "address"
        }
      ],
      "name": "resetOwner",
      "outputs": [],
      "stateMutability": "nonpayable",
      "type": "function"
    },
    {
      "inputs": [
        {
          "internalType": "address",
          "name": "from",
          "type": "address"
        },
        {
          "internalType": "address",
          "name": "to",
          "type": "address"
        },
        {
          "internalType": "uint256[]",
          "name": "ids",
          "type": "uint256[]"
        },
        {
          "internalType": "uint256[]",
          "name": "amounts",
          "type": "uint256[]"
        },
        {
          "internalType": "bytes",
          "name": "data",
          "type": "bytes"
        }
      ],
      "name": "safeBatchTransferFrom",
      "outputs": [],
      "stateMutability": "nonpayable",
      "type": "function"
    },
    {
      "inputs": [
        {
          "internalType": "address",
          "name": "from",
          "type": "address"
        },
        {
          "internalType": "address",
          "name": "to",
          "type": "address"
        },
        {
          "internalType": "uint256",
          "name": "id",
          "type": "uint256"
        },
        {
          "internalType": "uint256",
          "name": "amount",
          "type": "uint256"
        },
        {
          "internalType": "bytes",
          "name": "data",
          "type": "bytes"
        }
      ],
      "name": "safeTransferFrom",
      "outputs": [],
      "stateMutability": "nonpayable",
      "type": "function"
    },
    {
      "inputs": [
        {
          "internalType": "address",
          "name": "operator",
          "type": "address"
        },
        {
          "internalType": "bool",
          "name": "approved",
          "type": "bool"
        }
      ],
      "name": "setApprovalForAll",
      "outputs": [],
      "stateMutability": "nonpayable",
      "type": "function"
    },
    {
      "inputs": [
        {
          "internalType": "bytes32",
          "name": "parentNode",
          "type": "bytes32"
        },
        {
          "internalType": "bytes32",
          "name": "labelhash",
          "type": "bytes32"
        },
        {
          "internalType": "uint32",
          "name": "fuses",
          "type": "uint32"
        },
        {
          "internalType": "uint64",
          "name": "expiry",
          "type": "uint64"
        }
      ],
      "name": "setChildFuses",
      "outputs": [],
      "stateMutability": "nonpayable",
      "type": "function"
    },
    {
      "inputs": [
        {
          "internalType": "address",
          "name": "controller",
          "type": "address"
        },
        {
          "internalType": "bool",
          "name": "active",
          "type": "bool"
        }
      ],
      "name": "setController",
      "outputs": [],
      "stateMutability": "nonpayable",
      "type": "function"
    },
    {
      "inputs": [
        {
          "internalType": "bytes32",
          "name": "node",
          "type": "bytes32"
        },
        {
          "internalType": "uint16",
          "name": "ownerControlledFuses",
          "type": "uint16"
        }
      ],
      "name": "setFuses",
      "outputs": [
        {
          "internalType": "uint32",
          "name": "",
          "type": "uint32"
        }
      ],
      "stateMutability": "nonpayable",
      "type": "function"
    },
    {
      "inputs": [
        {
          "internalType": "contract IMetadataService",
          "name": "_metadataService",
          "type": "address"
        }
      ],
      "name": "setMetadataService",
      "outputs": [],
      "stateMutability": "nonpayable",
      "type": "function"
    },
    {
      "inputs": [
        {
          "internalType": "bytes32",
          "name": "node",
          "type": "bytes32"
        },
        {
          "internalType": "address",
          "name": "owner",
          "type": "address"
        },
        {
          "internalType": "address",
          "name": "resolver",
          "type": "address"
        },
        {
          "internalType": "uint64",
          "name": "ttl",
          "type": "uint64"
        }
      ],
      "name": "setRecord",
      "outputs": [],
      "stateMutability": "nonpayable",
      "type": "function"
    },
    {
      "inputs": [
        {
          "internalType": "bytes32",
          "name": "node",
          "type": "bytes32"
        },
        {
          "internalType": "address",
          "name": "resolver",
          "type": "address"
        }
      ],
      "name": "setResolver",
      "outputs": [],
      "stateMutability": "nonpayable",
      "type": "function"
    },
    {
      "inputs": [
        {
          "internalType": "bytes32",
          "name": "parentNode",
          "type": "bytes32"
        },
        {
          "internalType": "string",
          "name": "label",
          "type": "string"
        },
        {
          "internalType": "address",
          "name": "owner",
          "type": "address"
        },
        {
          "internalType": "uint32",
          "name": "fuses",
          "type": "uint32"
        },
        {
          "internalType": "uint64",
          "name": "expiry",
          "type": "uint64"
        }
      ],
      "name": "setSubnodeOwner",
      "outputs": [
        {
          "internalType": "bytes32",
          "name": "node",
          "type": "bytes32"
        }
      ],
      "stateMutability": "nonpayable",
      "type": "function"
    },
    {
      "inputs": [
        {
          "internalType": "bytes32",
          "name": "parentNode",
          "type": "bytes32"
        },
        {
          "internalType": "string",
          "name": "label",
          "type": "string"
        },
        {
          "internalType": "address",
          "name": "owner",
          "type": "address"
        },
        {
          "internalType": "address",
          "name": "resolver",
          "type": "address"
        },
        {
          "internalType": "uint64",
          "name": "ttl",
          "type": "uint64"
        },
        {
          "internalType": "uint32",
          "name": "fuses",
          "type": "uint32"
        },
        {
          "internalType": "uint64",
          "name": "expiry",
          "type": "uint64"
        }
      ],
      "name": "setSubnodeRecord",
      "outputs": [
        {
          "internalType": "bytes32",
          "name": "node",
          "type": "bytes32"
        }
      ],
      "stateMutability": "nonpayable",
      "type": "function"
    },
    {
      "inputs": [
        {
          "internalType": "bytes32",
          "name": "node",
          "type": "bytes32"
        },
        {
          "internalType": "uint64",
          "name": "ttl",
          "type": "uint64"
        }
      ],
      "name": "setTTL",
      "outputs": [],
      "stateMutability": "nonpayable",
      "type": "function"
    },
    {
      "inputs": [
        {
          "internalType": "contract INameWrapperUpgrade",
          "name": "_upgradeAddress",
          "type": "address"
        }
      ],
      "name": "setUpgradeContract",
      "outputs": [],
      "stateMutability": "nonpayable",
      "type": "function"
    },
    {
      "inputs": [
        {
          "internalType": "bytes4",
          "name": "interfaceId",
          "type": "bytes4"
        }
      ],
      "name": "supportsInterface",
      "outputs": [
        {
          "internalType": "bool",
          "name": "",
          "type": "bool"
        }
      ],
      "stateMutability": "view",
      "type": "function"
    },
    {
      "inputs": [
        {
          "internalType": "address",
          "name": "newOwner",
          "type": "address"
        }
      ],
      "name": "transferOwnership",
      "outputs": [],
      "stateMutability": "nonpayable",
      "type": "function"
    },
    {
      "inputs": [
        {
          "internalType": "bytes32",
          "name": "parentNode",
          "type": "bytes32"
        },
        {
          "internalType": "bytes32",
          "name": "labelhash",
          "type": "bytes32"
        },
        {
          "internalType": "address",
          "name": "controller",
          "type": "address"
        }
      ],
      "name": "unwrap",
      "outputs": [],
      "stateMutability": "nonpayable",
      "type": "function"
    },
    {
      "inputs": [
        {
          "internalType": "bytes32",
          "name": "labelhash",
          "type": "bytes32"
        },
        {
          "internalType": "address",
          "name": "registrant",
          "type": "address"
        },
        {
          "internalType": "address",
          "name": "controller",
          "type": "address"
        }
      ],
      "name": "unwrapRemilias2LD",
      "outputs": [],
      "stateMutability": "nonpayable",
      "type": "function"
    },
    {
      "inputs": [
        {
          "internalType": "bytes",
          "name": "name",
          "type": "bytes"
        },
        {
          "internalType": "bytes",
          "name": "extraData",
          "type": "bytes"
        }
      ],
      "name": "upgrade",
      "outputs": [],
      "stateMutability": "nonpayable",
      "type": "function"
    },
    {
      "inputs": [],
      "name": "upgradeContract",
      "outputs": [
        {
          "internalType": "contract INameWrapperUpgrade",
          "name": "",
          "type": "address"
        }
      ],
      "stateMutability": "view",
      "type": "function"
    },
    {
      "inputs": [
        {
          "internalType": "uint256",
          "name": "tokenId",
          "type": "uint256"
        }
      ],
      "name": "uri",
      "outputs": [
        {
          "internalType": "string",
          "name": "",
          "type": "string"
        }
      ],
      "stateMutability": "view",
      "type": "function"
    },
    {
      "inputs": [
        {
          "internalType": "bytes",
          "name": "name",
          "type": "bytes"
        },
        {
          "internalType": "address",
          "name": "wrappedOwner",
          "type": "address"
        },
        {
          "internalType": "address",
          "name": "resolver",
          "type": "address"
        }
      ],
      "name": "wrap",
      "outputs": [],
      "stateMutability": "nonpayable",
      "type": "function"
    },
    {
      "inputs": [
        {
          "internalType": "string",
          "name": "label",
          "type": "string"
        },
        {
          "internalType": "address",
          "name": "wrappedOwner",
          "type": "address"
        },
        {
          "internalType": "uint16",
          "name": "ownerControlledFuses",
          "type": "uint16"
        },
        {
          "internalType": "address",
          "name": "resolver",
          "type": "address"
        }
      ],
      "name": "wrapRemilias2LD",
      "outputs": [
        {
          "internalType": "uint64",
          "name": "expiry",
          "type": "uint64"
        }
      ],
      "stateMutability": "nonpayable",
      "type": "function"
    }
  ],
  "transactionHash": "0x55a8c98acd63d18e75769d9556a367e21c8213274b0f793103d012aa7f95fd2f",
  "args": [
    "0x00000000000C2E074eC69A0dFb2997BA6C7d2e1e",
    "0x61867B6d828C6Ba3a04D114b43C03fa6e94752a3",
    "0xC4BD36fE3ce19F64297579241f9ECfBffca1B50D"
  ],
  "numDeployments": 1,
  "solcInputHash": "aeb391062fb41e8a230bfb201c3db1a3",
  "bytecode": "0x60c06040523480156200001157600080fd5b5060405162005e6938038062005e69833981016040819052620000349162000360565b82336200004181620002c9565b6040516302571be360e01b81526000906001600160a01b038416906302571be39062000092907f91d1777781884d03a6757a803996e38de2a42967fb37eeaca72729271025a9e290600401620003c0565b602060405180830381865afa158015620000b0573d6000803e3d6000fd5b505050506040513d601f19601f82011682018060405250810190620000d69190620003e8565b604051630f41a04d60e11b81529091506001600160a01b03821690631e83409a906200010790859060040162000420565b6020604051808303816000875af115801562000127573d6000803e3d6000fd5b505050506040513d601f19601f820116820180604052508101906200014d919062000444565b505050506001600160a01b0383811660805282811660a052600580546001600160a01b031916918316919091178155600163fffeffff60a01b03197f353c7c2068dfbe98255e19c8d9344dd730a63afbc936ab7cda018f8fddab15948190557fafa26c20e8b3d9a2853d642cfe1021dae26242ffedfac91c97aab212c1a4b93b5560408051808201909152908152626cae8d60e31b6020808301919091527f93cdeb708b7545dc668eb9280176169d1c33cfd8ed6f04690a0bcc88a93fc4ae600052600690527ffb9e8e321b8a5ec48f12a7b41f22c6e595d761285c9eb19d8dda7c99edf1b54f906200024190826200057c565b5060408051808201909152600e81526b6e4cadad2d8d2c2e65ccae8d609b1b6020808301919091527ff029b4b627c4a2cd7f70eb6bb0281fec39238419d6d4df5a010dad7432a8d5c8600052600690527f48c50dfd84d7ca22c841c957360330551021a52f7d8ea1e8e191aa408f9c7a9190620002bf90826200057c565b505050506200064c565b600080546001600160a01b038381166001600160a01b0319831681178455604051919092169283917f8be0079c531659141344cd1fd0a4f28419497f9722a3daafe3b4186f6b6457e09190a35050565b60006001600160a01b0382165b92915050565b6000620003268262000319565b62000344816200032c565b81146200035057600080fd5b50565b8051620003268162000339565b6000806000606084860312156200037a576200037a600080fd5b600062000388868662000353565b93505060206200039b8682870162000353565b9250506040620003ae8682870162000353565b9150509250925092565b805b82525050565b60208101620003268284620003b8565b620003448162000319565b80516200032681620003d0565b600060208284031215620003ff57620003ff600080fd5b60006200040d8484620003db565b949350505050565b620003ba8162000319565b6020810162000326828462000415565b8062000344565b8051620003268162000430565b6000602082840312156200045b576200045b600080fd5b60006200040d848462000437565b634e487b7160e01b600052604160045260246000fd5b634e487b7160e01b600052602260045260246000fd5b600281046001821680620004aa57607f821691505b602082108103620004bf57620004bf6200047f565b50919050565b600062000326620004d38381565b90565b620004e183620004c5565b81546008840282811b60001990911b908116901990911617825550505050565b600062000510818484620004d6565b505050565b8181101562000534576200052b60008262000501565b60010162000515565b5050565b601f82111562000510576000818152602090206020601f85010481016020851015620005615750805b620005756020601f86010483018262000515565b5050505050565b81516001600160401b0381111562000598576200059862000469565b620005a4825462000495565b620005b182828562000538565b6020601f831160018114620005e85760008415620005cf5750858201515b600019600886021c198116600286021786555062000644565b600085815260208120601f198616915b828110156200061a5788850151825560209485019460019092019101620005f8565b86831015620006375784890151600019601f89166008021c191682555b6001600288020188555050505b505050505050565b60805160a05161572c6200073d600039600081816104190152818161099901528181610a36015281816113bc0152818161161b015281816116be0152818161178801528181611808015281816119be01528181611aef01528181611c87015261229c0152600081816104660152818161091b01528181610b7901528181610cdd01528181610d76015281816110000152818161146d01528181611a4401528181611b7501528181611dd90152818161208c015281816124d90152818161257c0152818161263e015281816126bf01528181612a9201528181612bad01528181612e1801526133fc015261572c6000f3fe608060405234801561001057600080fd5b506004361061027e5760003560e01c80635a7777411161015c578063c93ab3fd116100ce578063e985e9c511610087578063e985e9c514610641578063eb8ae53014610654578063ed70554d14610667578063f242432a14610687578063f2fde38b1461069a578063fd0cd0d9146106ad57600080fd5b8063c93ab3fd146105bf578063cf408823146105d2578063d8c9921a146105e5578063d9a50c12146105f8578063da8c229e1461060b578063e0dba60f1461062e57600080fd5b80638da5cb5b116101205780638da5cb5b1461054f578063a22cb46514610560578063adf4960a14610573578063b6bcad2614610586578063c2b556c814610599578063c658e086146105ac57600080fd5b80635a777741146104ee5780635d3590d5146105015780636352211e14610514578063715018a61461052757806381e667a31461052f57600080fd5b80631f4e1504116101f557806333c69ea9116101b957806333c69ea91461044e5780633f15457f14610461578063402906fc1461048857806341415eab146104a85780634e1273f4146104bb57806353095467146104db57600080fd5b80631f4e1504146103ce57806320c38e2b146103ee57806324c1af44146104015780632b20e397146104145780632eb2c2d61461043b57600080fd5b8063095ea7b311610247578063095ea7b31461034d5780630e89341c1461036257806314ab903814610375578063150b7a02146103885780631534e177146103a85780631896f70a146103bb57600080fd5b8062fdd58e146102835780630178fe3f146102ac57806301ffc9a7146102ce57806306fdde03146102ee578063081812fc1461032d575b600080fd5b610296610291366004613aa7565b6106c0565b6040516102a39190613ae2565b60405180910390f35b6102bf6102ba366004613af0565b61072d565b6040516102a393929190613b35565b6102e16102dc366004613b78565b61075d565b6040516102a39190613ba1565b610320604051806040016040528060138152602001722932b6b4b634b0b9a730b6b2abb930b83832b960691b81525081565b6040516102a39190613c07565b61034061033b366004613af0565b61079d565b6040516102a39190613c18565b61036061035b366004613aa7565b6107e2565b005b610320610370366004613af0565b610827565b610360610383366004613c40565b61089d565b61039b610396366004613cc4565b61098c565b6040516102a39190613d57565b6103606103b6366004613d84565b610ad1565b6103606103c9366004613da5565b610afb565b6007546103e1906001600160a01b031681565b6040516102a39190613e1a565b6103206103fc366004613af0565b610bb0565b61029661040f366004613f30565b610c4a565b6103e17f000000000000000000000000000000000000000000000000000000000000000081565b61036061044936600461408b565b610e00565b61036061045c366004614151565b610fb2565b6103e17f000000000000000000000000000000000000000000000000000000000000000081565b61049b6104963660046141ca565b6111a7565b6040516102a391906141fd565b6102e16104b6366004613da5565b611243565b6104ce6104c9366004614280565b611286565b6040516102a39190614343565b6005546103e1906001600160a01b031681565b6103606104fc366004613da5565b61136d565b61036061050f366004614354565b611548565b610340610522366004613af0565b6115c7565b6103606115d2565b61054261053d3660046143a4565b6115e6565b6040516102a39190614419565b6000546001600160a01b0316610340565b61036061056e36600461443a565b6118cf565b6102e161058136600461446d565b611966565b610360610594366004613d84565b61198b565b6103606105a73660046144a0565b611be1565b6102966105ba3660046144e6565b611cf8565b6103606105cd36600461457b565b611ebb565b6103606105e03660046145f2565b61200e565b6103606105f3366004614639565b61218b565b6102e161060636600461466e565b61224b565b6102e1610619366004614690565b60046020526000908152604090205460ff1681565b61036061063c36600461443a565b61232e565b6102e161064f3660046146b1565b612396565b6103606106623660046146d3565b6123c4565b610296610675366004613af0565b60016020526000908152604090205481565b610360610695366004614735565b61276b565b6103606106a8366004614690565b6127d6565b6102e16106bb366004613af0565b61280d565b60006001600160a01b0383166106f15760405162461bcd60e51b81526004016106e8906147da565b60405180910390fd5b60006106fc836115c7565b9050836001600160a01b0316816001600160a01b031603610721576001915050610727565b60009150505b92915050565b60008181526001602052604090205460a081901c60c082901c6107518383836128e5565b90959094509092509050565b60006001600160e01b0319821663644a611b60e11b148061078e57506001600160e01b03198216630a85bd0160e11b145b8061072757506107278261291b565b6000806107a9836115c7565b90506001600160a01b0381166107c25750600092915050565b6000838152600360205260409020546001600160a01b03165b9392505050565b60006107ed8261072d565b50915050603f1960408216016108185760405163a2a7201360e01b81526106e8908390600401613ae2565b610822838361296b565b505050565b6005546040516303a24d0760e21b81526060916001600160a01b031690630e89341c90610858908590600401613ae2565b600060405180830381865afa158015610875573d6000803e3d6000fd5b505050506040513d6000823e601f3d908101601f191682016040526107279190810190614842565b816108a88133611243565b6108c957803360405163168ab55d60e31b81526004016106e892919061487c565b82601060006108d78361072d565b5091505063ffffffff8282161615610904578260405163a2a7201360e01b81526004016106e89190613ae2565b604051630295720760e31b81526001600160a01b037f000000000000000000000000000000000000000000000000000000000000000016906314ab9038906109529089908990600401614897565b600060405180830381600087803b15801561096c57600080fd5b505af1158015610980573d6000803e3d6000fd5b50505050505050505050565b6000336001600160a01b037f000000000000000000000000000000000000000000000000000000000000000016146109d75760405163032634a760e31b815260040160405180910390fd5b60008080806109e8868801886148b2565b83516020850120939750919550935091508890808214610a1f5780826040516331970f3360e21b81526004016106e8929190614923565b604051630a3b53db60e21b81526001600160a01b037f000000000000000000000000000000000000000000000000000000000000000016906328ed4f6c90610a6d908590309060040161487c565b600060405180830381600087803b158015610a8757600080fd5b505af1158015610a9b573d6000803e3d6000fd5b50505050610ab786868661ffff166001600160401b03876129eb565b50630a85bd0160e11b955050505050505b95945050505050565b610ad9612b05565b600580546001600160a01b0319166001600160a01b0392909216919091179055565b81610b068133611243565b610b2757803360405163168ab55d60e31b81526004016106e892919061487c565b8260086000610b358361072d565b5091505063ffffffff8282161615610b62578260405163a2a7201360e01b81526004016106e89190613ae2565b604051630c4b7b8560e11b81526001600160a01b037f00000000000000000000000000000000000000000000000000000000000000001690631896f70a90610952908990899060040161487c565b60066020526000908152604090208054610bc990614954565b80601f0160208091040260200160405190810160405280929190818152602001828054610bf590614954565b8015610c425780601f10610c1757610100808354040283529160200191610c42565b820191906000526020600020905b815481529060010190602001808311610c2557829003601f168201915b505050505081565b600087610c578133611243565b610c7857803360405163168ab55d60e31b81526004016106e892919061487c565b87516020890120610c898a82612b2f565b9250610c958a84612b62565b610c9f8386612ca2565b610caa8a848b612cd4565b50610cb78a848787612da1565b9350610cc283612de9565b610d5f576040516305ef2c7f60e41b81526001600160a01b037f00000000000000000000000000000000000000000000000000000000000000001690635ef2c7f090610d1a908d90859030908d908d90600401614980565b600060405180830381600087803b158015610d3457600080fd5b505af1158015610d48573d6000803e3d6000fd5b50505050610d5a8a848b8b8989612ea6565b610df3565b6040516305ef2c7f60e41b81526001600160a01b037f00000000000000000000000000000000000000000000000000000000000000001690635ef2c7f090610db3908d90859030908d908d90600401614980565b600060405180830381600087803b158015610dcd57600080fd5b505af1158015610de1573d6000803e3d6000fd5b50505050610df38a848b8b8989612edd565b5050979650505050505050565b8151835114610e215760405162461bcd60e51b81526004016106e890614a07565b6001600160a01b038416610e475760405162461bcd60e51b81526004016106e890614a59565b6001600160a01b038516331480610e635750610e638533612396565b610e7f5760405162461bcd60e51b81526004016106e890614ab8565b60005b8351811015610f45576000848281518110610e9f57610e9f614ac8565b602002602001015190506000848381518110610ebd57610ebd614ac8565b602002602001015190506000806000610ed58561072d565b925092509250610ee6858383612fa1565b836001148015610f0757508a6001600160a01b0316836001600160a01b0316145b610f235760405162461bcd60e51b81526004016106e890614b25565b610f2f858b8484612ff0565b505050505080610f3e90614b4b565b9050610e82565b50836001600160a01b0316856001600160a01b0316336001600160a01b03167f4a39dc06d4c0dbc64b70af90fd698a233a518aa5d07e595d983b8c0526c8f7fb8686604051610f95929190614b65565b60405180910390a4610fab338686868686613032565b5050505050565b6000610fbe8585612b2f565b9050610fca8184612ca2565b60008080610fd78461072d565b919450925090506001600160a01b038316158061108a57506040516302571be360e01b815230907f00000000000000000000000000000000000000000000000000000000000000006001600160a01b0316906302571be39061103d908890600401613ae2565b602060405180830381865afa15801561105a573d6000803e3d6000fd5b505050506040513d601f19601f8201168201806040525081019061107e9190614b95565b6001600160a01b031614155b156110a857604051635374b59960e01b815260040160405180910390fd5b6000806110b48a61072d565b9093509150507f6c32148f748aba23997146d7fe89e962e3cc30271290fb96f5f4337756c03b528a01611111576110eb8633611243565b61110c57853360405163168ab55d60e31b81526004016106e892919061487c565b61113c565b61111b8a33611243565b61113c57893360405163168ab55d60e31b81526004016106e892919061487c565b611147868984613140565b61115287848361317a565b96506201000084161580159061117657508363ffffffff1688851763ffffffff1614155b15611196578560405163a2a7201360e01b81526004016106e89190613ae2565b9683179661098086868a868b6131c0565b6000826111b48133611243565b6111d557803360405163168ab55d60e31b81526004016106e892919061487c565b83600260006111e38361072d565b5091505063ffffffff8282161615611210578260405163a2a7201360e01b81526004016106e89190613ae2565b6000808061121d8a61072d565b9250925092506112368a84848c61ffff161784856131c0565b5098975050505050505050565b60008080806112518661072d565b925092509250846001600160a01b0316836001600160a01b0316148061127c575061127c8386612396565b9695505050505050565b606081518351146112a95760405162461bcd60e51b81526004016106e890614bfc565b600083516001600160401b038111156112c4576112c4613e28565b6040519080825280602002602001820160405280156112ed578160200160208202803683370190505b50905060005b84518110156113655761133885828151811061131157611311614ac8565b602002602001015185838151811061132b5761132b614ac8565b60200260200101516106c0565b82828151811061134a5761134a614ac8565b602090810291909101015261135e81614b4b565b90506112f3565b509392505050565b3360009081526004602052604090205460ff1661139c5760405162461bcd60e51b81526004016106e890614c51565b60006113b66000805160206156d783398151915284612b2f565b905060007f00000000000000000000000000000000000000000000000000000000000000006001600160a01b0316636352211e856040518263ffffffff1660e01b81526004016114069190613ae2565b602060405180830381865afa158015611423573d6000803e3d6000fd5b505050506040513d601f19601f820116820180604052508101906114479190614b95565b90506001600160a01b038116301415806114f757506040516302571be360e01b815230907f00000000000000000000000000000000000000000000000000000000000000006001600160a01b0316906302571be3906114aa908690600401613ae2565b602060405180830381865afa1580156114c7573d6000803e3d6000fd5b505050506040513d601f19601f820116820180604052508101906114eb9190614b95565b6001600160a01b031614155b1561151957813360405163168ab55d60e31b81526004016106e892919061487c565b60006115248361072d565b50509050610fab81858560001c60016040518060200160405280600081525061325d565b611550612b05565b60405163a9059cbb60e01b81526001600160a01b0384169063a9059cbb9061157e9085908590600401614c61565b6020604051808303816000875af115801561159d573d6000803e3d6000fd5b505050506040513d601f19601f820116820180604052508101906115c19190614c7a565b50505050565b60006107278261334b565b6115da612b05565b6115e46000613361565b565b60008086866040516115f9929190614cae565b6040519081900381206331a9108f60e11b825291506000906001600160a01b037f00000000000000000000000000000000000000000000000000000000000000001690636352211e90611650908590600401613ae2565b602060405180830381865afa15801561166d573d6000803e3d6000fd5b505050506040513d601f19601f820116820180604052508101906116919190614b95565b90506001600160a01b0381163314801590611738575060405163e985e9c560e01b81526001600160a01b037f0000000000000000000000000000000000000000000000000000000000000000169063e985e9c5906116f59084903390600401614cbb565b602060405180830381865afa158015611712573d6000803e3d6000fd5b505050506040513d601f19601f820116820180604052508101906117369190614c7a565b155b15611771576117556000805160206156d783398151915283612b2f565b3360405163168ab55d60e31b81526004016106e892919061487c565b6040516323b872dd60e01b81526001600160a01b037f000000000000000000000000000000000000000000000000000000000000000016906323b872dd906117c190849030908790600401614cc9565b600060405180830381600087803b1580156117db57600080fd5b505af11580156117ef573d6000803e3d6000fd5b5050604051630a3b53db60e21b81526001600160a01b037f00000000000000000000000000000000000000000000000000000000000000001692506328ed4f6c9150611841908590309060040161487c565b600060405180830381600087803b15801561185b57600080fd5b505af115801561186f573d6000803e3d6000fd5b505050506001600160401b0392506118c488888080601f0160208091040260200160405190810160405280939291908181526020018383808284376000920191909152508a9250505061ffff881686886129eb565b505095945050505050565b6001600160a01b03821633036118f75760405162461bcd60e51b81526004016106e890614d37565b3360008181526002602090815260408083206001600160a01b038716808552925291829020805460ff191685151517905590519091907f17307eab39ab6107e8899845ad3d59bd9653f200f220920489ca2b5937696c319061195a908590613ba1565b60405180910390a35050565b6000806119728461072d565b50841663ffffffff908116908516149250505092915050565b611993612b05565b6007546001600160a01b031615611ab25760075460405163a22cb46560e01b81526001600160a01b037f000000000000000000000000000000000000000000000000000000000000000081169263a22cb465926119fa929190911690600090600401614d47565b600060405180830381600087803b158015611a1457600080fd5b505af1158015611a28573d6000803e3d6000fd5b505060075460405163a22cb46560e01b81526001600160a01b037f00000000000000000000000000000000000000000000000000000000000000008116945063a22cb4659350611a7f921690600090600401614d47565b600060405180830381600087803b158015611a9957600080fd5b505af1158015611aad573d6000803e3d6000fd5b505050505b600780546001600160a01b0319166001600160a01b03831690811790915515611bde5760075460405163a22cb46560e01b81526001600160a01b037f000000000000000000000000000000000000000000000000000000000000000081169263a22cb46592611b2b929190911690600190600401614d47565b600060405180830381600087803b158015611b4557600080fd5b505af1158015611b59573d6000803e3d6000fd5b505060075460405163a22cb46560e01b81526001600160a01b037f00000000000000000000000000000000000000000000000000000000000000008116945063a22cb4659350611bb0921690600190600401614d47565b600060405180830381600087803b158015611bca57600080fd5b505af1158015610fab573d6000803e3d6000fd5b50565b611bf96000805160206156d783398151915284612b2f565b611c038133611243565b611c2457803360405163168ab55d60e31b81526004016106e892919061487c565b306001600160a01b03841603611c4f5782604051632ca49b0d60e11b81526004016106e89190613c18565b611c70611c6a6000805160206156d783398151915286612b2f565b836133b1565b604051632142170760e11b81526001600160a01b037f000000000000000000000000000000000000000000000000000000000000000016906342842e0e90611cc090309087908990600401614cc9565b600060405180830381600087803b158015611cda57600080fd5b505af1158015611cee573d6000803e3d6000fd5b5050505050505050565b600086611d058133611243565b611d2657803360405163168ab55d60e31b81526004016106e892919061487c565b60008787604051611d38929190614cae565b60405180910390209050611d4c8982612b2f565b9250611d588984612b62565b611d628386612ca2565b6000611da58a858b8b8080601f016020809104026020016040519081016040528093929190818152602001838380828437600092019190915250612cd492505050565b9050611db38a858888612da1565b9450611dbe84612de9565b611e68576040516306ab592360e01b81526001600160a01b037f000000000000000000000000000000000000000000000000000000000000000016906306ab592390611e12908d9086903090600401614d62565b6020604051808303816000875af1158015611e31573d6000803e3d6000fd5b505050506040513d601f19601f82011682018060405250810190611e559190614d95565b50611e638482898989613495565b611eae565b611eae8a858b8b8080601f0160208091040260200160405190810160405280939291908181526020018383808284376000920191909152508d92508c91508b9050612edd565b5050509695505050505050565b6000611f01600086868080601f01602080910402602001604051908101604052809392919081815260200183838082843760009201919091525092939250506134d79050565b6007549091506001600160a01b0316611f2d5760405163093075b560e21b815260040160405180910390fd5b611f378133611243565b611f5857803360405163168ab55d60e31b81526004016106e892919061487c565b60008080611f658461072d565b919450925090506000611f778561079d565b9050611f8285613564565b600760009054906101000a90046001600160a01b03166001600160a01b0316639198c2768a8a878787878e8e6040518963ffffffff1660e01b8152600401611fd1989796959493929190614dd9565b600060405180830381600087803b158015611feb57600080fd5b505af1158015611fff573d6000803e3d6000fd5b50505050505050505050505050565b836120198133611243565b61203a57803360405163168ab55d60e31b81526004016106e892919061487c565b84601c60006120488361072d565b5091505063ffffffff8282161615612075578260405163a2a7201360e01b81526004016106e89190613ae2565b60405163cf40882360e01b81526001600160a01b037f0000000000000000000000000000000000000000000000000000000000000000169063cf408823906120c7908b9030908b908b90600401614e42565b600060405180830381600087803b1580156120e157600080fd5b505af11580156120f5573d6000803e3d6000fd5b5050506001600160a01b03881690506121535760006121138961072d565b509150506201ffff19620200008216016121425787604051632ca49b0d60e11b81526004016106e89190613c18565b61214d8960006133b1565b50611cee565b600061215e896115c7565b905061218081898b60001c60016040518060200160405280600081525061325d565b505050505050505050565b6121958383612b2f565b61219f8133611243565b6121c057803360405163168ab55d60e31b81526004016106e892919061487c565b7f0fd64b49d83b5d32808f14944fd7e013c6dc7be6292b20a5fef2528bcd572a3884016122005760405163615a470360e01b815260040160405180910390fd5b6001600160a01b038216158061221e57506001600160a01b03821630145b1561223e5781604051632ca49b0d60e11b81526004016106e89190613c18565b6115c1611c6a8585612b2f565b6000806122588484612b2f565b9050600061226582612de9565b90506000805160206156d783398151915285146122855791506107279050565b6040516331a9108f60e11b81526001600160a01b037f00000000000000000000000000000000000000000000000000000000000000001690636352211e906122d1908790600401613ae2565b602060405180830381865afa92505050801561230a575060408051601f3d908101601f1916820190925261230791810190614b95565b60015b61231957600092505050610727565b6001600160a01b031630149250610727915050565b612336612b05565b6001600160a01b03821660008181526004602052604090819020805460ff1916841515179055517f4c97694570a07277810af7e5669ffd5f6a2d6b74b6e9a274b8b870fd5114cf879061238a908490613ba1565b60405180910390a25050565b6001600160a01b03918216600090815260026020908152604080832093909416825291909152205460ff1690565b60008061240b600087878080601f01602080910402602001604051908101604052809392919081815260200183838082843760009201919091525092939250506136149050565b9150915060006124548288888080601f01602080910402602001604051908101604052809392919081815260200183838082843760009201919091525092939250506134d79050565b905060006124628285612b2f565b600081815260066020526040902090915061247e888a83614f0d565b507f0fd64b49d83b5d32808f14944fd7e013c6dc7be6292b20a5fef2528bcd572a3882016124bf5760405163615a470360e01b815260040160405180910390fd5b6040516302571be360e01b81526000906001600160a01b037f000000000000000000000000000000000000000000000000000000000000000016906302571be39061250e908590600401613ae2565b602060405180830381865afa15801561252b573d6000803e3d6000fd5b505050506040513d601f19601f8201168201806040525081019061254f9190614b95565b90506001600160a01b03811633148015906125f6575060405163e985e9c560e01b81526001600160a01b037f0000000000000000000000000000000000000000000000000000000000000000169063e985e9c5906125b39084903390600401614cbb565b602060405180830381865afa1580156125d0573d6000803e3d6000fd5b505050506040513d601f19601f820116820180604052508101906125f49190614c7a565b155b1561261857813360405163168ab55d60e31b81526004016106e892919061487c565b6001600160a01b038616156126a857604051630c4b7b8560e11b81526001600160a01b037f00000000000000000000000000000000000000000000000000000000000000001690631896f70a906126759085908a9060040161487c565b600060405180830381600087803b15801561268f57600080fd5b505af11580156126a3573d6000803e3d6000fd5b505050505b604051635b0fc9c360e01b81526001600160a01b037f00000000000000000000000000000000000000000000000000000000000000001690635b0fc9c3906126f6908590309060040161487c565b600060405180830381600087803b15801561271057600080fd5b505af1158015612724573d6000803e3d6000fd5b50505050612180828a8a8080601f01602080910402602001604051908101604052809392919081815260200183838082843760009201829052508d93509150819050613495565b6001600160a01b0384166127915760405162461bcd60e51b81526004016106e890614a59565b6001600160a01b0385163314806127ad57506127ad8533612396565b6127c95760405162461bcd60e51b81526004016106e890615015565b610fab858585858561325d565b6127de612b05565b6001600160a01b0381166128045760405162461bcd60e51b81526004016106e890615068565b611bde81613361565b6000818152600660205260408120805482919061282990614954565b80601f016020809104026020016040519081016040528092919081815260200182805461285590614954565b80156128a25780601f10612877576101008083540402835291602001916128a2565b820191906000526020600020905b81548152906001019060200180831161288557829003601f168201915b5050505050905080516000036128bb5750600092915050565b6000806128c88382613614565b909250905060006128d984836134d7565b905061127c818461224b565b60008042836001600160401b031610156129125761ffff196201000085160161290d57600094505b600093505b50929391925050565b60006001600160e01b03198216636cdb3d1360e11b148061294c57506001600160e01b031982166303a24d0760e21b145b8061072757506301ffc9a760e01b6001600160e01b0319831614610727565b6000612976826115c7565b9050806001600160a01b0316836001600160a01b0316036129a95760405162461bcd60e51b81526004016106e8906150b6565b336001600160a01b03821614806129c557506129c58133612396565b6129e15760405162461bcd60e51b81526004016106e890615120565b610822838361369b565b845160208601206000612a0c6000805160206156d783398151915283612b2f565b90506000612a3e886040518060400160405280600e81526020016b6e4cadad2d8d2c2e65ccae8d609b1b815250613709565b6000838152600660205260409020909150612a598282615130565b50612a6c828289620300008a1789613495565b6001600160a01b03841615611cee57604051630c4b7b8560e11b81526001600160a01b037f00000000000000000000000000000000000000000000000000000000000000001690631896f70a90612ac9908590889060040161487c565b600060405180830381600087803b158015612ae357600080fd5b505af1158015612af7573d6000803e3d6000fd5b505050505050505050505050565b6000546001600160a01b031633146115e45760405162461bcd60e51b81526004016106e890615227565b60008282604051602001612b4492919061523d565b60405160208183030381529060405280519060200120905092915050565b60008080612b6f8461072d565b91945092509050426001600160401b03821610808015612c3657506001600160a01b0384161580612c3657506040516302571be360e01b81526000907f00000000000000000000000000000000000000000000000000000000000000006001600160a01b0316906302571be390612bea908990600401613ae2565b602060405180830381865afa158015612c07573d6000803e3d6000fd5b505050506040513d601f19601f82011682018060405250810190612c2b9190614b95565b6001600160a01b0316145b15612c74576000612c468761072d565b509150506020811615612c6e578560405163a2a7201360e01b81526004016106e89190613ae2565b50612c9a565b62010000831615612c9a578460405163a2a7201360e01b81526004016106e89190613ae2565b505050505050565b63fffdffff81811763ffffffff1614612cd0578160405163a2a7201360e01b81526004016106e89190613ae2565b5050565b60606000612d7d83600660008881526020019081526020016000208054612cfa90614954565b80601f0160208091040260200160405190810160405280929190818152602001828054612d2690614954565b8015612d735780601f10612d4857610100808354040283529160200191612d73565b820191906000526020600020905b815481529060010190602001808311612d5657829003601f168201915b5050505050613709565b6000858152600660205260409020909150612d988282615130565b50949350505050565b600080612dad8561072d565b92505050600080612dc08860001c61072d565b9250925050612dd0878784613140565b612ddb85848361317a565b93505050505b949350505050565b600080612df5836115c7565b6001600160a01b03161415801561072757506040516302571be360e01b815230907f00000000000000000000000000000000000000000000000000000000000000006001600160a01b0316906302571be390612e55908690600401613ae2565b602060405180830381865afa158015612e72573d6000803e3d6000fd5b505050506040513d601f19601f82011682018060405250810190612e969190614b95565b6001600160a01b03161492915050565b60008681526006602052604081208054612ec5918791612cfa90614954565b9050612ed48682868686613495565b50505050505050565b60008080612eea8861072d565b9250925092506000612f1488600660008d81526020019081526020016000208054612cfa90614954565b60008a8152600660205260409020805491925090612f3190614954565b9050600003612f54576000898152600660205260409020612f528282615130565b505b612f63898588861785896131c0565b6001600160a01b038716612f8157612f7c8960006133b1565b610980565b61098084888b60001c60016040518060200160405280600081525061325d565b6004821615612fc55760405163a2a7201360e01b81526106e8908490600401613ae2565b60408216600003610822575050600090815260036020526040902080546001600160a01b0319169055565b60c0816001600160401b0316901b60a08363ffffffff16901b846001600160a01b03161717600160008681526020019081526020016000208190555050505050565b6001600160a01b0384163b15612c9a5760405163bc197c8160e01b81526001600160a01b0385169063bc197c81906130769089908990889088908890600401615263565b6020604051808303816000875af19250505080156130b1575060408051601f3d908101601f191682019092526130ae918101906152ce565b60015b613110576130bd6152ef565b806308c379a0036130f657506130d161530a565b806130dc57506130f8565b8060405162461bcd60e51b81526004016106e89190613c07565b505b60405162461bcd60e51b81526004016106e8906153d6565b6001600160e01b0319811663bc197c8160e01b14612ed45760405162461bcd60e51b81526004016106e89061542b565b63ffff0000821615801590600183161590829061315a5750805b15610fab578460405163a2a7201360e01b81526004016106e89190613ae2565b6000816001600160401b0316846001600160401b0316111561319a578193505b826001600160401b0316846001600160401b031610156131b8578293505b509192915050565b6131cc85858584613780565b847f39873f00c80f4f94b7bd1594aebcf650f003545b74824d57ddf4939e3ff3a34b846040516131fc91906141fd565b60405180910390a2816001600160401b0316816001600160401b03161115610fab57847ff675815a0817338f93a7da433f6bd5f5542f1029b11b455191ac96c7f6a9b1328260405161324e9190614419565b60405180910390a25050505050565b600080600061326b8661072d565b92509250925061327c868383612fa1565b84600114801561329d5750876001600160a01b0316836001600160a01b0316145b6132b95760405162461bcd60e51b81526004016106e890614b25565b866001600160a01b0316836001600160a01b0316036132da57505050610fab565b6132e686888484612ff0565b866001600160a01b0316886001600160a01b0316336001600160a01b03167fc3d58168c5ae7397731d063d5bbf3d657854427343f4c083240f7aacaa2d0f628989604051613335929190614923565b60405180910390a4611cee338989898989613796565b6000806133578361072d565b5090949350505050565b600080546001600160a01b038381166001600160a01b0319831681178455604051919092169283917f8be0079c531659141344cd1fd0a4f28419497f9722a3daafe3b4186f6b6457e09190a35050565b6133bc826001611966565b156133dc578160405163a2a7201360e01b81526004016106e89190613ae2565b6133e582613564565b604051635b0fc9c360e01b81526001600160a01b037f00000000000000000000000000000000000000000000000000000000000000001690635b0fc9c390613433908590859060040161487c565b600060405180830381600087803b15801561344d57600080fd5b505af1158015613461573d6000803e3d6000fd5b50505050817fee2ba1195c65bcf218a83d874335c6bf9d9067b4c672f3c3bf16cf40de7586c48260405161238a9190613c18565b6134a185848484613851565b847f8ce7013e8abebc55c3890a68f5a27c67c3f7efa64e584de5fb22363c606fd3408585858560405161324e949392919061543b565b60008060006134e68585613614565b90925090508161352857600185516134fe9190615468565b841461351c5760405162461bcd60e51b81526004016106e8906154af565b50600091506107279050565b61353285826134d7565b8260405160200161354492919061523d565b604051602081830303815290604052805190602001209250505092915050565b60008181526001602052604090205460a081901c60c082901c6135888383836128e5565b600086815260036020526040812080546001600160a01b03191690559093506135b5915085908484612ff0565b60006001600160a01b0316836001600160a01b0316336001600160a01b03167fc3d58168c5ae7397731d063d5bbf3d657854427343f4c083240f7aacaa2d0f628760016040516136069291906154c8565b60405180910390a450505050565b600080835183106136375760405162461bcd60e51b81526004016106e890615517565b600084848151811061364b5761364b614ac8565b016020015160f81c90508015613677576136708561366a866001615527565b836138c8565b925061367c565b600092505b6136868185615527565b613691906001615527565b9150509250929050565b600081815260036020526040902080546001600160a01b0319166001600160a01b03841690811790915581906136d0826115c7565b6001600160a01b03167f8c5be1e5ebec7d5bd14f71427d1e84f3dd0314c0f7b2291e5b200ac8c7c3b92560405160405180910390a45050565b606060018351101561372e57604051631406d65b60e11b815260040160405180910390fd5b60ff83511115613753578260405163e3ba295f60e01b81526004016106e89190613c07565b8251838360405160200161376993929190615574565b604051602081830303815290604052905092915050565b61378a84836138ec565b6115c184848484612ff0565b6001600160a01b0384163b15612c9a5760405163f23a6e6160e01b81526001600160a01b0385169063f23a6e61906137da908990899088908890889060040161559c565b6020604051808303816000875af1925050508015613815575060408051601f3d908101601f19168201909252613812918101906152ce565b60015b613821576130bd6152ef565b6001600160e01b0319811663f23a6e6160e01b14612ed45760405162461bcd60e51b81526004016106e89061542b565b61385b84836138ec565b6000848152600160205260409020546001600160a01b038116156138bc5761388285613564565b847fee2ba1195c65bcf218a83d874335c6bf9d9067b4c672f3c3bf16cf40de7586c460006040516138b39190613c18565b60405180910390a25b610fab85858585613924565b82516000906138d78385615527565b11156138e257600080fd5b5091016020012090565b61ffff81161580159061390457506201000181811614155b15612cd0578160405163a2a7201360e01b81526004016106e89190613ae2565b83600080806139328461072d565b9194509250905063ffff000082166001600160401b038087169083161115613958578195505b42826001600160401b03161061396d57958617955b6001600160a01b038416156139945760405162461bcd60e51b81526004016106e890615617565b6001600160a01b0388166139ba5760405162461bcd60e51b81526004016106e890615665565b306001600160a01b038916036139e25760405162461bcd60e51b81526004016106e8906156c6565b6139ee85898989612ff0565b876001600160a01b031660006001600160a01b0316336001600160a01b03167fc3d58168c5ae7397731d063d5bbf3d657854427343f4c083240f7aacaa2d0f62886001604051613a3f9291906154c8565b60405180910390a46121803360008a88600160405180602001604052806000815250613796565b60006001600160a01b038216610727565b613a8081613a66565b8114611bde57600080fd5b803561072781613a77565b80613a80565b803561072781613a96565b60008060408385031215613abd57613abd600080fd5b6000613ac98585613a8b565b925050602061369185828601613a9c565b805b82525050565b602081016107278284613ada565b600060208284031215613b0557613b05600080fd5b6000612de18484613a9c565b613adc81613a66565b63ffffffff8116613adc565b6001600160401b038116613adc565b60608101613b438286613b11565b613b506020830185613b1a565b612de16040830184613b26565b6001600160e01b03198116613a80565b803561072781613b5d565b600060208284031215613b8d57613b8d600080fd5b6000612de18484613b6d565b801515613adc565b602081016107278284613b99565b60005b83811015613bca578181015183820152602001613bb2565b50506000910152565b6000613bdd825190565b808452602084019350613bf4818560208601613baf565b601f19601f8201165b9093019392505050565b602080825281016107db8184613bd3565b602081016107278284613b11565b6001600160401b038116613a80565b803561072781613c26565b60008060408385031215613c5657613c56600080fd5b6000613c628585613a9c565b925050602061369185828601613c35565b60008083601f840112613c8857613c88600080fd5b5081356001600160401b03811115613ca257613ca2600080fd5b602083019150836001820283011115613cbd57613cbd600080fd5b9250929050565b600080600080600060808688031215613cdf57613cdf600080fd5b6000613ceb8888613a8b565b9550506020613cfc88828901613a8b565b9450506040613d0d88828901613a9c565b93505060608601356001600160401b03811115613d2c57613d2c600080fd5b613d3888828901613c73565b92509250509295509295909350565b6001600160e01b03198116613adc565b602081016107278284613d47565b600061072782613a66565b613a8081613d65565b803561072781613d70565b600060208284031215613d9957613d99600080fd5b6000612de18484613d79565b60008060408385031215613dbb57613dbb600080fd5b6000613dc78585613a9c565b925050602061369185828601613a8b565b60006107276001600160a01b038316613def565b90565b6001600160a01b031690565b600061072782613dd8565b600061072782613dfb565b613adc81613e06565b602081016107278284613e11565b634e487b7160e01b600052604160045260246000fd5b601f19601f83011681018181106001600160401b0382111715613e6357613e63613e28565b6040525050565b6000613e7560405190565b9050613e818282613e3e565b919050565b60006001600160401b03821115613e9f57613e9f613e28565b601f19601f83011660200192915050565b82818337506000910152565b6000613ecf613eca84613e86565b613e6a565b905082815260208101848484011115613eea57613eea600080fd5b611365848285613eb0565b600082601f830112613f0957613f09600080fd5b8135612de1848260208601613ebc565b63ffffffff8116613a80565b803561072781613f19565b600080600080600080600060e0888a031215613f4e57613f4e600080fd5b6000613f5a8a8a613a9c565b97505060208801356001600160401b03811115613f7957613f79600080fd5b613f858a828b01613ef5565b9650506040613f968a828b01613a8b565b9550506060613fa78a828b01613a8b565b9450506080613fb88a828b01613c35565b93505060a0613fc98a828b01613f25565b92505060c0613fda8a828b01613c35565b91505092959891949750929550565b60006001600160401b0382111561400257614002613e28565b5060209081020190565b600061401a613eca84613fe9565b8381529050602080820190840283018581111561403957614039600080fd5b835b8181101561405d578061404e8882613a9c565b8452506020928301920161403b565b5050509392505050565b600082601f83011261407b5761407b600080fd5b8135612de184826020860161400c565b600080600080600060a086880312156140a6576140a6600080fd5b60006140b28888613a8b565b95505060206140c388828901613a8b565b94505060408601356001600160401b038111156140e2576140e2600080fd5b6140ee88828901614067565b93505060608601356001600160401b0381111561410d5761410d600080fd5b61411988828901614067565b92505060808601356001600160401b0381111561413857614138600080fd5b61414488828901613ef5565b9150509295509295909350565b6000806000806080858703121561416a5761416a600080fd5b60006141768787613a9c565b945050602061418787828801613a9c565b935050604061419887828801613f25565b92505060606141a987828801613c35565b91505092959194509250565b61ffff8116613a80565b8035610727816141b5565b600080604083850312156141e0576141e0600080fd5b60006141ec8585613a9c565b9250506020613691858286016141bf565b602081016107278284613b1a565b6000614219613eca84613fe9565b8381529050602080820190840283018581111561423857614238600080fd5b835b8181101561405d578061424d8882613a8b565b8452506020928301920161423a565b600082601f83011261427057614270600080fd5b8135612de184826020860161420b565b6000806040838503121561429657614296600080fd5b82356001600160401b038111156142af576142af600080fd5b6142bb8582860161425c565b92505060208301356001600160401b038111156142da576142da600080fd5b61369185828601614067565b60006142f28383613ada565b505060200190565b6000614304825190565b80845260209384019383018060005b8381101561433857815161432788826142e6565b975060208301925050600101614313565b509495945050505050565b602080825281016107db81846142fa565b60008060006060848603121561436c5761436c600080fd5b60006143788686613a8b565b935050602061438986828701613a8b565b925050604061439a86828701613a9c565b9150509250925092565b6000806000806000608086880312156143bf576143bf600080fd5b85356001600160401b038111156143d8576143d8600080fd5b6143e488828901613c73565b955095505060206143f788828901613a8b565b9350506040614408888289016141bf565b925050606061414488828901613a8b565b602081016107278284613b26565b801515613a80565b803561072781614427565b6000806040838503121561445057614450600080fd5b600061445c8585613a8b565b92505060206136918582860161442f565b6000806040838503121561448357614483600080fd5b600061448f8585613a9c565b925050602061369185828601613f25565b6000806000606084860312156144b8576144b8600080fd5b60006144c48686613a9c565b93505060206144d586828701613a8b565b925050604061439a86828701613a8b565b60008060008060008060a0878903121561450257614502600080fd5b600061450e8989613a9c565b96505060208701356001600160401b0381111561452d5761452d600080fd5b61453989828a01613c73565b9550955050604061454c89828a01613a8b565b935050606061455d89828a01613f25565b925050608061456e89828a01613c35565b9150509295509295509295565b6000806000806040858703121561459457614594600080fd5b84356001600160401b038111156145ad576145ad600080fd5b6145b987828801613c73565b945094505060208501356001600160401b038111156145da576145da600080fd5b6145e687828801613c73565b95989497509550505050565b6000806000806080858703121561460b5761460b600080fd5b60006146178787613a9c565b945050602061462887828801613a8b565b935050604061419887828801613a8b565b60008060006060848603121561465157614651600080fd5b600061465d8686613a9c565b93505060206144d586828701613a9c565b6000806040838503121561468457614684600080fd5b6000613ac98585613a9c565b6000602082840312156146a5576146a5600080fd5b6000612de18484613a8b565b600080604083850312156146c7576146c7600080fd5b6000613dc78585613a8b565b600080600080606085870312156146ec576146ec600080fd5b84356001600160401b0381111561470557614705600080fd5b61471187828801613c73565b9450945050602061472487828801613a8b565b92505060406141a987828801613a8b565b600080600080600060a0868803121561475057614750600080fd5b600061475c8888613a8b565b955050602061476d88828901613a8b565b945050604061477e88828901613a9c565b935050606061411988828901613a9c565b602b81526000602082017f455243313135353a2062616c616e636520717565727920666f7220746865207a81526a65726f206164647265737360a81b602082015291505b5060400190565b602080825281016107278161478f565b60006147f8613eca84613e86565b90508281526020810184848401111561481357614813600080fd5b611365848285613baf565b600082601f83011261483257614832600080fd5b8151612de18482602086016147ea565b60006020828403121561485757614857600080fd5b81516001600160401b0381111561487057614870600080fd5b612de18482850161481e565b6040810161488a8285613ada565b6107db6020830184613b11565b604081016148a58285613ada565b6107db6020830184613b26565b600080600080608085870312156148cb576148cb600080fd5b84356001600160401b038111156148e4576148e4600080fd5b6148f087828801613ef5565b945050602061490187828801613a8b565b9350506040614912878288016141bf565b92505060606141a987828801613a8b565b604081016149318285613ada565b6107db6020830184613ada565b634e487b7160e01b600052602260045260246000fd5b60028104600182168061496857607f821691505b60208210810361497a5761497a61493e565b50919050565b60a0810161498e8288613ada565b61499b6020830187613ada565b6149a86040830186613b11565b6149b56060830185613b11565b61127c6080830184613b26565b602881526000602082017f455243313135353a2069647320616e6420616d6f756e7473206c656e677468208152670dad2e6dac2e8c6d60c31b602082015291506147d3565b60208082528101610727816149c2565b602581526000602082017f455243313135353a207472616e7366657220746f20746865207a65726f206164815264647265737360d81b602082015291506147d3565b6020808252810161072781614a17565b603281526000602082017f455243313135353a207472616e736665722063616c6c6572206973206e6f74208152711bdddb995c881b9bdc88185c1c1c9bdd995960721b602082015291506147d3565b6020808252810161072781614a69565b634e487b7160e01b600052603260045260246000fd5b602a81526000602082017f455243313135353a20696e73756666696369656e742062616c616e636520666f81526939103a3930b739b332b960b11b602082015291506147d3565b6020808252810161072781614ade565b634e487b7160e01b600052601160045260246000fd5b60006000198203614b5e57614b5e614b35565b5060010190565b60408082528101614b7681856142fa565b90508181036020830152612de181846142fa565b805161072781613a77565b600060208284031215614baa57614baa600080fd5b6000612de18484614b8a565b602981526000602082017f455243313135353a206163636f756e747320616e6420696473206c656e677468815268040dad2e6dac2e8c6d60bb1b602082015291506147d3565b6020808252810161072781614bb6565b602881526000602082017f436f6e74726f6c6c61626c653a2043616c6c6572206973206e6f74206120636f815267373a3937b63632b960c11b602082015291506147d3565b6020808252810161072781614c0c565b604081016149318285613b11565b805161072781614427565b600060208284031215614c8f57614c8f600080fd5b6000612de18484614c6f565b6000614ca8838584613eb0565b50500190565b6000612de1828486614c9b565b6040810161488a8285613b11565b60608101614cd78286613b11565b614ce46020830185613b11565b612de16040830184613ada565b602981526000602082017f455243313135353a2073657474696e6720617070726f76616c20737461747573815268103337b91039b2b63360b91b602082015291506147d3565b6020808252810161072781614cf1565b60408101614d558285613b11565b6107db6020830184613b99565b60608101614d708286613ada565b614d7d6020830185613ada565b612de16040830184613b11565b805161072781613a96565b600060208284031215614daa57614daa600080fd5b6000612de18484614d8a565b8183526000602084019350614dcc838584613eb0565b601f19601f840116613bfd565b60c08082528101614deb818a8c614db6565b9050614dfa6020830189613b11565b614e076040830188613b1a565b614e146060830187613b26565b614e216080830186613b11565b81810360a0830152614e34818486614db6565b9a9950505050505050505050565b60808101614e508287613ada565b614e5d6020830186613b11565b614e6a6040830185613b11565b610ac86060830184613b26565b6000610727613dec8381565b614e8c83614e77565b81546008840282811b60001990911b908116901990911617825550505050565b6000610822818484614e83565b81811015612cd057614ecc600082614eac565b600101614eb9565b601f821115610822576000818152602090206020601f85010481016020851015614efb5750805b610fab6020601f860104830182614eb9565b826001600160401b03811115614f2557614f25613e28565b614f2f8254614954565b614f3a828285614ed4565b6000601f831160018114614f6e5760008415614f565750858201355b600019600886021c1981166002860217865550612ed4565b600085815260208120601f198616915b82811015614f9e5788850135825560209485019460019092019101614f7e565b86831015614fba57600019601f88166008021c19858a01351682555b60016002880201885550505050505050505050565b602981526000602082017f455243313135353a2063616c6c6572206973206e6f74206f776e6572206e6f7281526808185c1c1c9bdd995960ba1b602082015291506147d3565b6020808252810161072781614fcf565b602681526000602082017f4f776e61626c653a206e6577206f776e657220697320746865207a65726f206181526564647265737360d01b602082015291506147d3565b6020808252810161072781615025565b602181526000602082017f4552433732313a20617070726f76616c20746f2063757272656e74206f776e658152603960f91b602082015291506147d3565b6020808252810161072781615078565b603d81526000602082017f4552433732313a20617070726f76652063616c6c6572206973206e6f7420746f81527f6b656e206f776e6572206f7220617070726f76656420666f7220616c6c000000602082015291506147d3565b60208082528101610727816150c6565b81516001600160401b0381111561514957615149613e28565b6151538254614954565b61515e828285614ed4565b6020601f831160018114615192576000841561517a5750858201515b600019600886021c1981166002860217865550612c9a565b600085815260208120601f198616915b828110156151c257888501518255602094850194600190920191016151a2565b868310156151de5784890151600019601f89166008021c191682555b600160028802018855505050505050505050565b60208082527f4f776e61626c653a2063616c6c6572206973206e6f7420746865206f776e6572910190815260005b5060200190565b60208082528101610727816151f2565b80613adc565b60006152498285615237565b6020820191506152598284615237565b5060200192915050565b60a081016152718288613b11565b61527e6020830187613b11565b818103604083015261529081866142fa565b905081810360608301526152a481856142fa565b905081810360808301526152b88184613bd3565b979650505050505050565b805161072781613b5d565b6000602082840312156152e3576152e3600080fd5b6000612de184846152c3565b600060033d1115613dec5760046000803e5060005160e01c90565b600060443d10156153185790565b60405160043d036004823e80513d60248201116001600160401b038211171561534057505090565b80820180516001600160401b0381111561535b575050505090565b80602083010160043d03850181111561537657505050505090565b61335782602001850186613e3e565b603481526000602082017f455243313135353a207472616e7366657220746f206e6f6e20455243313135358152732932b1b2b4bb32b91034b6b83632b6b2b73a32b960611b602082015291506147d3565b6020808252810161072781615385565b602881526000602082017f455243313135353a204552433131353552656365697665722072656a656374658152676420746f6b656e7360c01b602082015291506147d3565b60208082528101610727816153e6565b6080808252810161544c8187613bd3565b905061545b6020830186613b11565b614e6a6040830185613b1a565b8181038181111561072757610727614b35565b601d81526000602082017f6e616d65686173683a204a756e6b20617420656e64206f66206e616d6500000081529150615220565b602080825281016107278161547b565b613adc81614e77565b604081016154d68285613ada565b6107db60208301846154bf565b601e81526000602082017f726561644c6162656c3a20496e646578206f7574206f6620626f756e6473000081529150615220565b60208082528101610727816154e3565b8082018082111561072757610727614b35565b60006107278260f81b90565b613adc60ff821661553a565b600061555c825190565b61556a818560208601613baf565b9290920192915050565b60006155808286615546565b6001820191506155908285615552565b9150610ac88284615552565b60a081016155aa8288613b11565b6155b76020830187613b11565b6155c46040830186613ada565b6155d16060830185613ada565b81810360808301526152b88184613bd3565b601f81526000602082017f455243313135353a206d696e74206f66206578697374696e6720746f6b656e0081529150615220565b60208082528101610727816155e3565b602181526000602082017f455243313135353a206d696e7420746f20746865207a65726f206164647265738152607360f81b602082015291506147d3565b6020808252810161072781615627565b603481526000602082017f455243313135353a206e65774f776e65722063616e6e6f74206265207468652081527313985b5955dc985c1c195c8818dbdb9d1c9858dd60621b602082015291506147d3565b602080825281016107278161567556fef029b4b627c4a2cd7f70eb6bb0281fec39238419d6d4df5a010dad7432a8d5c8a2646970667358221220359e61bba3dc2eefa37b5f570ed860c8eabaf3c011b7a280395e7860dfd2688664736f6c63430008110033",
  "devdoc": {
    "kind": "dev",
    "methods": {
      "allFusesBurned(bytes32,uint32)": {
        "params": {
          "fuseMask": "The fuses you want to check",
          "node": "Namehash of the name"
        },
        "returns": {
          "_0": "Boolean of whether or not all the selected fuses are burned"
        }
      },
      "approve(address,uint256)": {
        "params": {
          "to": "address to approve",
          "tokenId": "name to approve"
        }
      },
      "balanceOf(address,uint256)": {
        "details": "See {IERC1155-balanceOf}. Requirements: - `account` cannot be the zero address."
      },
      "balanceOfBatch(address[],uint256[])": {
        "details": "See {IERC1155-balanceOfBatch}. Requirements: - `accounts` and `ids` must have the same length."
      },
      "canModifyName(bytes32,address)": {
        "params": {
          "addr": "which address to check permissions for",
          "node": "namehash of the name to check"
        },
        "returns": {
          "_0": "whether or not is owner or operator"
        }
      },
      "getApproved(uint256)": {
        "params": {
          "id": "Namehash of the name"
        },
        "returns": {
          "operator": "Approved operator of a name"
        }
      },
      "getData(uint256)": {
        "params": {
          "id": "Namehash of the name"
        },
        "returns": {
          "expiry": "Expiry of the name",
          "fuses": "Fuses of the name",
          "owner": "Owner of the name"
        }
      },
      "isApprovedForAll(address,address)": {
        "details": "See {IERC1155-isApprovedForAll}."
      },
      "isWrapped(bytes32)": {
        "params": {
          "node": "Namehash of the name"
        },
        "returns": {
          "_0": "Boolean of whether or not the name is wrapped"
        }
      },
      "isWrapped(bytes32,bytes32)": {
        "params": {
          "labelhash": "Namehash of the name",
          "parentNode": "Namehash of the name"
        },
        "returns": {
          "_0": "Boolean of whether or not the name is wrapped"
        }
      },
      "owner()": {
        "details": "Returns the address of the current owner."
      },
      "ownerOf(uint256)": {
        "params": {
          "id": "Label as a string of the .eth domain to wrap"
        },
        "returns": {
          "owner": "The owner of the name"
        }
      },
      "recoverFunds(address,address,uint256)": {
        "details": "The contract is Ownable and only the owner can call the recover function.",
        "params": {
          "_amount": "The amount of tokens to recover.",
          "_to": "The address to send the tokens to.",
          "_token": "The address of the ERC20 token to recover"
        }
      },
      "renounceOwnership()": {
        "details": "Leaves the contract without owner. It will not be possible to call `onlyOwner` functions. Can only be called by the current owner. NOTE: Renouncing ownership will leave the contract without an owner, thereby disabling any functionality that is only available to the owner."
      },
      "resetOwner(uint256,address)": {
        "details": "Only callable by authorised controllers.",
        "params": {
          "newOwner": "Owner of the NFT",
          "tokenId": "The id of the token"
        }
      },
      "safeBatchTransferFrom(address,address,uint256[],uint256[],bytes)": {
        "details": "See {IERC1155-safeBatchTransferFrom}."
      },
      "safeTransferFrom(address,address,uint256,uint256,bytes)": {
        "details": "See {IERC1155-safeTransferFrom}."
      },
      "setApprovalForAll(address,bool)": {
        "details": "See {IERC1155-setApprovalForAll}."
      },
      "setChildFuses(bytes32,bytes32,uint32,uint64)": {
        "params": {
          "expiry": "When the name will expire in seconds since the Unix epoch",
          "fuses": "Fuses to burn",
          "labelhash": "Labelhash of the name, e.g. vitalik.xyz would be keccak256('vitalik')",
          "parentNode": "Parent namehash of the name e.g. vitalik.xyz would be namehash('xyz')"
        }
      },
      "setFuses(bytes32,uint16)": {
        "params": {
          "node": "Namehash of the name",
          "ownerControlledFuses": "Owner-controlled fuses to burn"
        },
        "returns": {
          "_0": "Old fuses"
        }
      },
      "setMetadataService(address)": {
        "params": {
          "_metadataService": "The new metadata service"
        }
      },
      "setRecord(bytes32,address,address,uint64)": {
        "params": {
          "node": "Namehash of the name to set a record for",
          "owner": "New owner in the registry",
          "resolver": "Resolver contract",
          "ttl": "Time to live in the registry"
        }
      },
      "setResolver(bytes32,address)": {
        "params": {
          "node": "namehash of the name",
          "resolver": "the resolver contract"
        }
      },
      "setSubnodeOwner(bytes32,string,address,uint32,uint64)": {
        "params": {
          "expiry": "When the name will expire in seconds since the Unix epoch",
          "fuses": "Initial fuses for the wrapped subdomain",
          "label": "Label of the subdomain as a string",
          "owner": "New owner in the wrapper",
          "parentNode": "Parent namehash of the subdomain"
        },
        "returns": {
          "node": "Namehash of the subdomain"
        }
      },
      "setSubnodeRecord(bytes32,string,address,address,uint64,uint32,uint64)": {
        "params": {
          "expiry": "When the name will expire in seconds since the Unix epoch",
          "fuses": "initial fuses for the wrapped subdomain",
          "label": "label of the subdomain as a string",
          "owner": "new owner in the wrapper",
          "parentNode": "parent namehash of the subdomain",
          "resolver": "resolver contract in the registry",
          "ttl": "ttl in the registry"
        },
        "returns": {
          "node": "Namehash of the subdomain"
        }
      },
      "setTTL(bytes32,uint64)": {
        "params": {
          "node": "Namehash of the name",
          "ttl": "TTL in the registry"
        }
      },
      "setUpgradeContract(address)": {
        "details": "The default value of upgradeContract is the 0 address. Use the 0 address at any time to make the contract not upgradable.",
        "params": {
          "_upgradeAddress": "address of an upgraded contract"
        }
      },
      "transferOwnership(address)": {
        "details": "Transfers ownership of the contract to a new account (`newOwner`). Can only be called by the current owner."
      },
      "unwrap(bytes32,bytes32,address)": {
        "details": "Can be called by the owner in the wrapper or an authorised caller in the wrapper",
        "params": {
          "controller": "Sets the owner in the registry to this address",
          "labelhash": "Labelhash of the name, e.g. vitalik.xyz would be keccak256('vitalik')",
          "parentNode": "Parent namehash of the name e.g. vitalik.xyz would be namehash('xyz')"
        }
      },
      "unwrapRemilias2LD(bytes32,address,address)": {
        "details": "Can be called by the owner in the wrapper or an authorised caller in the wrapper",
        "params": {
          "controller": "Sets the owner in the registry to this address",
          "labelhash": "Labelhash of the .eth domain",
          "registrant": "Sets the owner in the .eth registrar to this address"
        }
      },
      "upgrade(bytes,bytes)": {
        "details": "Can be called by the owner or an authorised caller",
        "params": {
          "extraData": "Extra data to pass to the upgrade contract",
          "name": "The name to upgrade, in DNS format"
        }
      },
      "uri(uint256)": {
        "params": {
          "tokenId": "The id of the token"
        },
        "returns": {
          "_0": "string uri of the metadata service"
        }
      },
      "wrap(bytes,address,address)": {
        "details": "Can be called by the owner in the registry or an authorised caller in the registry",
        "params": {
          "name": "The name to wrap, in DNS format",
          "resolver": "Resolver contract",
          "wrappedOwner": "Owner of the name in this contract"
        }
      },
      "wrapRemilias2LD(string,address,uint16,address)": {
        "details": "Can be called by the owner of the name on the .eth registrar or an authorised caller on the registrar",
        "params": {
          "label": "Label as a string of the .eth domain to wrap",
          "ownerControlledFuses": "Initial owner-controlled fuses to set",
          "resolver": "Resolver contract address",
          "wrappedOwner": "Owner of the name in this contract"
        }
      }
    },
    "version": 1
  },
  "userdoc": {
    "kind": "user",
    "methods": {
      "allFusesBurned(bytes32,uint32)": {
        "notice": "Checks all Fuses in the mask are burned for the node"
      },
      "approve(address,uint256)": {
        "notice": "Approves an address for a name"
      },
      "canModifyName(bytes32,address)": {
        "notice": "Checks if owner or operator of the owner"
      },
      "getApproved(uint256)": {
        "notice": "Gets the owner of a name"
      },
      "getData(uint256)": {
        "notice": "Gets the data for a name"
      },
      "isWrapped(bytes32)": {
        "notice": "Checks if a name is wrapped"
      },
      "isWrapped(bytes32,bytes32)": {
        "notice": "Checks if a name is wrapped in a more gas efficient way"
      },
      "ownerOf(uint256)": {
        "notice": "Gets the owner of a name"
      },
      "recoverFunds(address,address,uint256)": {
        "notice": "Recover ERC20 tokens sent to the contract by mistake."
      },
      "resetOwner(uint256,address)": {
        "notice": "Resets a remilias.eth second-level domain."
      },
      "setChildFuses(bytes32,bytes32,uint32,uint64)": {
        "notice": "Sets fuses of a name that you own the parent of"
      },
      "setFuses(bytes32,uint16)": {
        "notice": "Sets fuses of a name"
      },
      "setMetadataService(address)": {
        "notice": "Set the metadata service. Only the owner can do this"
      },
      "setRecord(bytes32,address,address,uint64)": {
        "notice": "Sets records for the name in the ENS Registry"
      },
      "setResolver(bytes32,address)": {
        "notice": "Sets resolver contract in the registry"
      },
      "setSubnodeOwner(bytes32,string,address,uint32,uint64)": {
        "notice": "Sets the subdomain owner in the registry and then wraps the subdomain"
      },
      "setSubnodeRecord(bytes32,string,address,address,uint64,uint32,uint64)": {
        "notice": "Sets the subdomain owner in the registry with records and then wraps the subdomain"
      },
      "setTTL(bytes32,uint64)": {
        "notice": "Sets TTL in the registry"
      },
      "setUpgradeContract(address)": {
        "notice": "Set the address of the upgradeContract of the contract. only admin can do this"
      },
      "unwrap(bytes32,bytes32,address)": {
        "notice": "Unwraps a non remilias.eth domain, of any kind. Could be a DNSSEC name vitalik.xyz or a subdomain"
      },
      "unwrapRemilias2LD(bytes32,address,address)": {
        "notice": "Unwraps a remilias.eth domain. e.g. cyphered.remilias.eth"
      },
      "upgrade(bytes,bytes)": {
        "notice": "Upgrades a domain of any kind. Could be a .eth name vitalik.eth, a DNSSEC name vitalik.xyz, or a subdomain"
      },
      "uri(uint256)": {
        "notice": "Get the metadata uri"
      },
      "wrap(bytes,address,address)": {
        "notice": "Wraps a non .eth domain, of any kind. Could be a DNSSEC name vitalik.xyz or a subdomain"
      },
      "wrapRemilias2LD(string,address,uint16,address)": {
        "notice": "Wraps a .eth domain, creating a new token and sending the original ERC721 token to this contract"
      }
    },
    "version": 1
  },
  "storageLayout": {
    "storage": [
      {
        "astId": 7,
        "contract": "contracts/wrapper/RemiliasNameWrapper.sol:RemiliasNameWrapper",
        "label": "_owner",
        "offset": 0,
        "slot": "0",
        "type": "t_address"
      },
      {
        "astId": 5767,
        "contract": "contracts/wrapper/RemiliasNameWrapper.sol:RemiliasNameWrapper",
        "label": "_tokens",
        "offset": 0,
        "slot": "1",
        "type": "t_mapping(t_uint256,t_uint256)"
      },
      {
        "astId": 5773,
        "contract": "contracts/wrapper/RemiliasNameWrapper.sol:RemiliasNameWrapper",
        "label": "_operatorApprovals",
        "offset": 0,
        "slot": "2",
        "type": "t_mapping(t_address,t_mapping(t_address,t_bool))"
      },
      {
        "astId": 5777,
        "contract": "contracts/wrapper/RemiliasNameWrapper.sol:RemiliasNameWrapper",
        "label": "_tokenApprovals",
        "offset": 0,
        "slot": "3",
        "type": "t_mapping(t_uint256,t_address)"
      },
      {
        "astId": 5698,
        "contract": "contracts/wrapper/RemiliasNameWrapper.sol:RemiliasNameWrapper",
        "label": "controllers",
        "offset": 0,
        "slot": "4",
        "type": "t_mapping(t_address,t_bool)"
      },
      {
        "astId": 7211,
        "contract": "contracts/wrapper/RemiliasNameWrapper.sol:RemiliasNameWrapper",
        "label": "metadataService",
        "offset": 0,
        "slot": "5",
        "type": "t_contract(IMetadataService)6741"
      },
      {
        "astId": 7215,
        "contract": "contracts/wrapper/RemiliasNameWrapper.sol:RemiliasNameWrapper",
        "label": "names",
        "offset": 0,
        "slot": "6",
        "type": "t_mapping(t_bytes32,t_bytes_storage)"
      },
      {
        "astId": 7230,
        "contract": "contracts/wrapper/RemiliasNameWrapper.sol:RemiliasNameWrapper",
        "label": "upgradeContract",
        "offset": 0,
        "slot": "7",
        "type": "t_contract(INameWrapperUpgrade)6759"
      }
    ],
    "types": {
      "t_address": {
        "encoding": "inplace",
        "label": "address",
        "numberOfBytes": "20"
      },
      "t_bool": {
        "encoding": "inplace",
        "label": "bool",
        "numberOfBytes": "1"
      },
      "t_bytes32": {
        "encoding": "inplace",
        "label": "bytes32",
        "numberOfBytes": "32"
      },
      "t_bytes_storage": {
        "encoding": "bytes",
        "label": "bytes",
        "numberOfBytes": "32"
      },
      "t_contract(IMetadataService)6741": {
        "encoding": "inplace",
        "label": "contract IMetadataService",
        "numberOfBytes": "20"
      },
      "t_contract(INameWrapperUpgrade)6759": {
        "encoding": "inplace",
        "label": "contract INameWrapperUpgrade",
        "numberOfBytes": "20"
      },
      "t_mapping(t_address,t_bool)": {
        "encoding": "mapping",
        "key": "t_address",
        "label": "mapping(address => bool)",
        "numberOfBytes": "32",
        "value": "t_bool"
      },
      "t_mapping(t_address,t_mapping(t_address,t_bool))": {
        "encoding": "mapping",
        "key": "t_address",
        "label": "mapping(address => mapping(address => bool))",
        "numberOfBytes": "32",
        "value": "t_mapping(t_address,t_bool)"
      },
      "t_mapping(t_bytes32,t_bytes_storage)": {
        "encoding": "mapping",
        "key": "t_bytes32",
        "label": "mapping(bytes32 => bytes)",
        "numberOfBytes": "32",
        "value": "t_bytes_storage"
      },
      "t_mapping(t_uint256,t_address)": {
        "encoding": "mapping",
        "key": "t_uint256",
        "label": "mapping(uint256 => address)",
        "numberOfBytes": "32",
        "value": "t_address"
      },
      "t_mapping(t_uint256,t_uint256)": {
        "encoding": "mapping",
        "key": "t_uint256",
        "label": "mapping(uint256 => uint256)",
        "numberOfBytes": "32",
        "value": "t_uint256"
      },
      "t_uint256": {
        "encoding": "inplace",
        "label": "uint256",
        "numberOfBytes": "32"
      }
    }
  }
}