{
  "address": "0xC4BD36fE3ce19F64297579241f9ECfBffca1B50D",
  "abi": [
    {
      "inputs": [
        {
          "internalType": "string",
          "name": "_metaDataUri",
          "type": "string"
        }
      ],
      "stateMutability": "nonpayable",
      "type": "constructor"
    },
    {
      "inputs": [
        {
          "internalType": "uint256",
          "name": "",
          "type": "uint256"
        }
      ],
      "name": "uri",
      "outputs": [
        {
          "internalType": "string",
          "name": "",
          "type": "string"
        }
      ],
      "stateMutability": "view",
      "type": "function"
    }
  ],
  "transactionHash": "0xe0d6fb9e0fb7853c0fd88772dd02131b278276174821dc452c9a0e3f57fcde81",
  "args": [
    "https://remilias.name/name/0x{id}"
  ],
  "numDeployments": 2,
  "solcInputHash": "468626f201f3be43017a32ea5ca45b1e",
  "bytecode": "0x608060405234801561001057600080fd5b5060405161054738038061054783398101604081905261002f9161015b565b600061003b8282610286565b5050610349565b634e487b7160e01b600052604160045260246000fd5b601f19601f83011681018181106001600160401b038211171561007d5761007d610042565b6040525050565b600061008f60405190565b905061009b8282610058565b919050565b60006001600160401b038211156100b9576100b9610042565b601f19601f83011660200192915050565b60005b838110156100e55781810151838201526020016100cd565b50506000910152565b60006101016100fc846100a0565b610084565b90508281526020810184848401111561011c5761011c600080fd5b6101278482856100ca565b509392505050565b600082601f83011261014357610143600080fd5b81516101538482602086016100ee565b949350505050565b60006020828403121561017057610170600080fd5b81516001600160401b0381111561018957610189600080fd5b6101538482850161012f565b634e487b7160e01b600052602260045260246000fd5b6002810460018216806101bf57607f821691505b6020821081036101d1576101d1610195565b50919050565b60006101e66101e38381565b90565b92915050565b6101f5836101d7565b81546008840282811b60001990911b908116901990911617825550505050565b60006102228184846101ec565b505050565b818110156102425761023a600082610215565b600101610227565b5050565b601f821115610222576000818152602090206020601f8501048101602085101561026d5750805b61027f6020601f860104830182610227565b5050505050565b81516001600160401b0381111561029f5761029f610042565b6102a982546101ab565b6102b4828285610246565b6020601f8311600181146102e857600084156102d05750858201515b600019600886021c1981166002860217865550610341565b600085815260208120601f198616915b8281101561031857888501518255602094850194600190920191016102f8565b868310156103345784890151600019601f89166008021c191682555b6001600288020188555050505b505050505050565b6101ef806103586000396000f3fe608060405234801561001057600080fd5b506004361061002b5760003560e01c80630e89341c14610030575b600080fd5b61004361003e3660046100ed565b610059565b604051610050919061015f565b60405180910390f35b6060600080546100689061018d565b80601f01602080910402602001604051908101604052809291908181526020018280546100949061018d565b80156100e15780601f106100b6576101008083540402835291602001916100e1565b820191906000526020600020905b8154815290600101906020018083116100c457829003601f168201915b50505050509050919050565b60006020828403121561010257610102600080fd5b5035919050565b60005b8381101561012457818101518382015260200161010c565b50506000910152565b6000610137825190565b80845260208401935061014e818560208601610109565b601f01601f19169290920192915050565b60208082528101610170818461012d565b9392505050565b634e487b7160e01b600052602260045260246000fd5b6002810460018216806101a157607f821691505b6020821081036101b3576101b3610177565b5091905056fea2646970667358221220632d43824856ec1b1a38f56b9796b80bc9ee8c90fcd035925734f7eabfbd8f5164736f6c63430008110033",
  "devdoc": {
    "kind": "dev",
    "methods": {},
    "version": 1
  },
  "userdoc": {
    "kind": "user",
    "methods": {},
    "version": 1
  },
  "storageLayout": {
    "storage": [
      {
        "astId": 28661,
        "contract": "contracts/wrapper/StaticMetadataService.sol:StaticMetadataService",
        "label": "_uri",
        "offset": 0,
        "slot": "0",
        "type": "t_string_storage"
      }
    ],
    "types": {
      "t_string_storage": {
        "encoding": "bytes",
        "label": "string",
        "numberOfBytes": "32"
      }
    }
  }
}